{"abi":[{"type":"constructor","inputs":[],"stateMutability":"nonpayable"},{"type":"receive","stateMutability":"payable"},{"type":"function","name":"MANAGER","inputs":[],"outputs":[{"name":"","type":"address","internalType":"address"}],"stateMutability":"view"},{"type":"function","name":"RAISE_TOKEN","inputs":[],"outputs":[{"name":"","type":"address","internalType":"address"}],"stateMutability":"view"},{"type":"function","name":"SALE_TOKEN","inputs":[],"outputs":[{"name":"","type":"address","internalType":"address"}],"stateMutability":"view"},{"type":"function","name":"SQRT_RATIO_X96","inputs":[],"outputs":[{"name":"","type":"uint160","internalType":"uint160"}],"stateMutability":"view"},{"type":"function","name":"TICK_LOWER","inputs":[],"outputs":[{"name":"","type":"int24","internalType":"int24"}],"stateMutability":"view"},{"type":"function","name":"TICK_UPPER","inputs":[],"outputs":[{"name":"","type":"int24","internalType":"int24"}],"stateMutability":"view"},{"type":"function","name":"WETH9","inputs":[],"outputs":[{"name":"","type":"address","internalType":"address"}],"stateMutability":"view"},{"type":"function","name":"_cachedUniV3PoolAddress","inputs":[],"outputs":[{"name":"","type":"address","internalType":"address"}],"stateMutability":"view"},{"type":"function","name":"approve","inputs":[{"name":"to","type":"address","internalType":"address"},{"name":"tokenId","type":"uint256","internalType":"uint256"}],"outputs":[],"stateMutability":"nonpayable"},{"type":"function","name":"balanceOf","inputs":[{"name":"owner","type":"address","internalType":"address"}],"outputs":[{"name":"","type":"uint256","internalType":"uint256"}],"stateMutability":"view"},{"type":"function","name":"baseURI","inputs":[],"outputs":[{"name":"","type":"string","internalType":"string"}],"stateMutability":"view"},{"type":"function","name":"batchRemoveWhitelist","inputs":[{"name":"users","type":"address[]","internalType":"address[]"}],"outputs":[],"stateMutability":"nonpayable"},{"type":"function","name":"batchWhitelist","inputs":[{"name":"users","type":"address[]","internalType":"address[]"}],"outputs":[],"stateMutability":"nonpayable"},{"type":"function","name":"buy","inputs":[{"name":"raiseAmount","type":"uint256","internalType":"uint256"},{"name":"recipient","type":"address","internalType":"address"}],"outputs":[{"name":"tokenId","type":"uint256","internalType":"uint256"},{"name":"liquidityDelta","type":"uint128","internalType":"uint128"}],"stateMutability":"nonpayable"},{"type":"function","name":"claim","inputs":[{"name":"tokenId","type":"uint256","internalType":"uint256"}],"outputs":[{"name":"amount0","type":"uint256","internalType":"uint256"},{"name":"amount1","type":"uint256","internalType":"uint256"}],"stateMutability":"payable"},{"type":"function","name":"claimNew","inputs":[{"name":"tokenId","type":"uint256","internalType":"uint256"}],"outputs":[{"name":"amount0","type":"uint256","internalType":"uint256"},{"name":"amount1","type":"uint256","internalType":"uint256"}],"stateMutability":"payable"},{"type":"function","name":"claimOLD","inputs":[{"name":"tokenId","type":"uint256","internalType":"uint256"}],"outputs":[{"name":"amount0","type":"uint256","internalType":"uint256"},{"name":"amount1","type":"uint256","internalType":"uint256"}],"stateMutability":"payable"},{"type":"function","name":"claimProjectRefund","inputs":[{"name":"projectAdmin","type":"address","internalType":"address"}],"outputs":[{"name":"refundAmount","type":"uint256","internalType":"uint256"}],"stateMutability":"nonpayable"},{"type":"function","name":"claimRefund","inputs":[{"name":"tokenId","type":"uint256","internalType":"uint256"}],"outputs":[],"stateMutability":"nonpayable"},{"type":"function","name":"getApproved","inputs":[{"name":"tokenId","type":"uint256","internalType":"uint256"}],"outputs":[{"name":"","type":"address","internalType":"address"}],"stateMutability":"view"},{"type":"function","name":"initialize","inputs":[{"name":"params","type":"tuple","internalType":"struct IILOPool.InitPoolParams","components":[{"name":"uniV3Pool","type":"address","internalType":"address"},{"name":"tickLower","type":"int24","internalType":"int24"},{"name":"tickUpper","type":"int24","internalType":"int24"},{"name":"sqrtRatioLowerX96","type":"uint160","internalType":"uint160"},{"name":"sqrtRatioUpperX96","type":"uint160","internalType":"uint160"},{"name":"hardCap","type":"uint256","internalType":"uint256"},{"name":"softCap","type":"uint256","internalType":"uint256"},{"name":"maxCapPerUser","type":"uint256","internalType":"uint256"},{"name":"start","type":"uint64","internalType":"uint64"},{"name":"end","type":"uint64","internalType":"uint64"},{"name":"vestingConfigs","type":"tuple[]","internalType":"struct IILOVest.VestingConfig[]","components":[{"name":"shares","type":"uint16","internalType":"uint16"},{"name":"recipient","type":"address","internalType":"address"},{"name":"schedule","type":"tuple[]","internalType":"struct IILOVest.LinearVest[]","components":[{"name":"shares","type":"uint16","internalType":"uint16"},{"name":"start","type":"uint64","internalType":"uint64"},{"name":"end","type":"uint64","internalType":"uint64"}]}]}]}],"outputs":[],"stateMutability":"nonpayable"},{"type":"function","name":"isApprovedForAll","inputs":[{"name":"owner","type":"address","internalType":"address"},{"name":"operator","type":"address","internalType":"address"}],"outputs":[{"name":"","type":"bool","internalType":"bool"}],"stateMutability":"view"},{"type":"function","name":"isOpenToAll","inputs":[],"outputs":[{"name":"","type":"bool","internalType":"bool"}],"stateMutability":"view"},{"type":"function","name":"isWhitelisted","inputs":[{"name":"user","type":"address","internalType":"address"}],"outputs":[{"name":"","type":"bool","internalType":"bool"}],"stateMutability":"view"},{"type":"function","name":"launch","inputs":[],"outputs":[],"stateMutability":"nonpayable"},{"type":"function","name":"multicall","inputs":[{"name":"data","type":"bytes[]","internalType":"bytes[]"}],"outputs":[{"name":"results","type":"bytes[]","internalType":"bytes[]"}],"stateMutability":"payable"},{"type":"function","name":"name","inputs":[],"outputs":[{"name":"","type":"string","internalType":"string"}],"stateMutability":"pure"},{"type":"function","name":"ownerOf","inputs":[{"name":"tokenId","type":"uint256","internalType":"uint256"}],"outputs":[{"name":"","type":"address","internalType":"address"}],"stateMutability":"view"},{"type":"function","name":"positions","inputs":[{"name":"tokenId","type":"uint256","internalType":"uint256"}],"outputs":[{"name":"liquidity","type":"uint128","internalType":"uint128"},{"name":"raiseAmount","type":"uint256","internalType":"uint256"},{"name":"feeGrowthInside0LastX128","type":"uint256","internalType":"uint256"},{"name":"feeGrowthInside1LastX128","type":"uint256","internalType":"uint256"}],"stateMutability":"view"},{"type":"function","name":"safeTransferFrom","inputs":[{"name":"from","type":"address","internalType":"address"},{"name":"to","type":"address","internalType":"address"},{"name":"tokenId","type":"uint256","internalType":"uint256"}],"outputs":[],"stateMutability":"nonpayable"},{"type":"function","name":"safeTransferFrom","inputs":[{"name":"from","type":"address","internalType":"address"},{"name":"to","type":"address","internalType":"address"},{"name":"tokenId","type":"uint256","internalType":"uint256"},{"name":"_data","type":"bytes","internalType":"bytes"}],"outputs":[],"stateMutability":"nonpayable"},{"type":"function","name":"setApprovalForAll","inputs":[{"name":"operator","type":"address","internalType":"address"},{"name":"approved","type":"bool","internalType":"bool"}],"outputs":[],"stateMutability":"nonpayable"},{"type":"function","name":"setOpenToAll","inputs":[{"name":"openToAll","type":"bool","internalType":"bool"}],"outputs":[],"stateMutability":"nonpayable"},{"type":"function","name":"someTest","inputs":[],"outputs":[],"stateMutability":"nonpayable"},{"type":"function","name":"supportsInterface","inputs":[{"name":"interfaceId","type":"bytes4","internalType":"bytes4"}],"outputs":[{"name":"","type":"bool","internalType":"bool"}],"stateMutability":"view"},{"type":"function","name":"symbol","inputs":[],"outputs":[{"name":"","type":"string","internalType":"string"}],"stateMutability":"pure"},{"type":"function","name":"tokenByIndex","inputs":[{"name":"index","type":"uint256","internalType":"uint256"}],"outputs":[{"name":"","type":"uint256","internalType":"uint256"}],"stateMutability":"view"},{"type":"function","name":"tokenOfOwnerByIndex","inputs":[{"name":"owner","type":"address","internalType":"address"},{"name":"index","type":"uint256","internalType":"uint256"}],"outputs":[{"name":"","type":"uint256","internalType":"uint256"}],"stateMutability":"view"},{"type":"function","name":"tokenURI","inputs":[{"name":"tokenId","type":"uint256","internalType":"uint256"}],"outputs":[{"name":"","type":"string","internalType":"string"}],"stateMutability":"view"},{"type":"function","name":"totalSold","inputs":[],"outputs":[{"name":"_totalSold","type":"uint256","internalType":"uint256"}],"stateMutability":"view"},{"type":"function","name":"totalSupply","inputs":[],"outputs":[{"name":"","type":"uint256","internalType":"uint256"}],"stateMutability":"view"},{"type":"function","name":"transferFrom","inputs":[{"name":"from","type":"address","internalType":"address"},{"name":"to","type":"address","internalType":"address"},{"name":"tokenId","type":"uint256","internalType":"uint256"}],"outputs":[],"stateMutability":"nonpayable"},{"type":"function","name":"uniswapV3MintCallback","inputs":[{"name":"amount0Owed","type":"uint256","internalType":"uint256"},{"name":"amount1Owed","type":"uint256","internalType":"uint256"},{"name":"data","type":"bytes","internalType":"bytes"}],"outputs":[],"stateMutability":"nonpayable"},{"type":"function","name":"vestingStatus","inputs":[{"name":"tokenId","type":"uint256","internalType":"uint256"}],"outputs":[{"name":"unlockedLiquidity","type":"uint128","internalType":"uint128"},{"name":"claimedLiquidity","type":"uint128","internalType":"uint128"}],"stateMutability":"view"},{"type":"event","name":"Approval","inputs":[{"name":"owner","type":"address","indexed":true,"internalType":"address"},{"name":"approved","type":"address","indexed":true,"internalType":"address"},{"name":"tokenId","type":"uint256","indexed":true,"internalType":"uint256"}],"anonymous":false},{"type":"event","name":"ApprovalForAll","inputs":[{"name":"owner","type":"address","indexed":true,"internalType":"address"},{"name":"operator","type":"address","indexed":true,"internalType":"address"},{"name":"approved","type":"bool","indexed":false,"internalType":"bool"}],"anonymous":false},{"type":"event","name":"Buy","inputs":[{"name":"investor","type":"address","indexed":true,"internalType":"address"},{"name":"tokenId","type":"uint256","indexed":false,"internalType":"uint256"},{"name":"raiseAmount","type":"uint256","indexed":false,"internalType":"uint256"},{"name":"liquidity","type":"uint128","indexed":false,"internalType":"uint128"}],"anonymous":false},{"type":"event","name":"Claim","inputs":[{"name":"user","type":"address","indexed":true,"internalType":"address"},{"name":"tokenId","type":"uint256","indexed":false,"internalType":"uint256"},{"name":"liquidity","type":"uint128","indexed":false,"internalType":"uint128"},{"name":"amount0","type":"uint256","indexed":false,"internalType":"uint256"},{"name":"amount1","type":"uint256","indexed":false,"internalType":"uint256"},{"name":"feeGrowthInside0LastX128","type":"uint256","indexed":false,"internalType":"uint256"},{"name":"feeGrowthInside1LastX128","type":"uint256","indexed":false,"internalType":"uint256"}],"anonymous":false},{"type":"event","name":"Collect","inputs":[{"name":"tokenId","type":"uint256","indexed":true,"internalType":"uint256"},{"name":"recipient","type":"address","indexed":false,"internalType":"address"},{"name":"amount0","type":"uint256","indexed":false,"internalType":"uint256"},{"name":"amount1","type":"uint256","indexed":false,"internalType":"uint256"}],"anonymous":false},{"type":"event","name":"DecreaseLiquidity","inputs":[{"name":"tokenId","type":"uint256","indexed":true,"internalType":"uint256"},{"name":"liquidity","type":"uint128","indexed":false,"internalType":"uint128"},{"name":"amount0","type":"uint256","indexed":false,"internalType":"uint256"},{"name":"amount1","type":"uint256","indexed":false,"internalType":"uint256"}],"anonymous":false},{"type":"event","name":"ILOPoolInitialized","inputs":[{"name":"univ3Pool","type":"address","indexed":true,"internalType":"address"},{"name":"tickLower","type":"int32","indexed":false,"internalType":"int32"},{"name":"tickUpper","type":"int32","indexed":false,"internalType":"int32"},{"name":"saleInfo","type":"tuple","indexed":false,"internalType":"struct IILOSale.SaleInfo","components":[{"name":"hardCap","type":"uint256","internalType":"uint256"},{"name":"softCap","type":"uint256","internalType":"uint256"},{"name":"maxCapPerUser","type":"uint256","internalType":"uint256"},{"name":"start","type":"uint64","internalType":"uint64"},{"name":"end","type":"uint64","internalType":"uint64"},{"name":"maxSaleAmount","type":"uint256","internalType":"uint256"}]},{"name":"vestingConfig","type":"tuple[]","indexed":false,"internalType":"struct IILOVest.VestingConfig[]","components":[{"name":"shares","type":"uint16","internalType":"uint16"},{"name":"recipient","type":"address","internalType":"address"},{"name":"schedule","type":"tuple[]","internalType":"struct IILOVest.LinearVest[]","components":[{"name":"shares","type":"uint16","internalType":"uint16"},{"name":"start","type":"uint64","internalType":"uint64"},{"name":"end","type":"uint64","internalType":"uint64"}]}]}],"anonymous":false},{"type":"event","name":"IncreaseLiquidity","inputs":[{"name":"tokenId","type":"uint256","indexed":true,"internalType":"uint256"},{"name":"liquidity","type":"uint128","indexed":false,"internalType":"uint128"},{"name":"amount0","type":"uint256","indexed":false,"internalType":"uint256"},{"name":"amount1","type":"uint256","indexed":false,"internalType":"uint256"}],"anonymous":false},{"type":"event","name":"PoolLaunch","inputs":[{"name":"project","type":"address","indexed":true,"internalType":"address"},{"name":"liquidity","type":"uint128","indexed":false,"internalType":"uint128"},{"name":"token0","type":"uint256","indexed":false,"internalType":"uint256"},{"name":"token1","type":"uint256","indexed":false,"internalType":"uint256"}],"anonymous":false},{"type":"event","name":"ProjectRefund","inputs":[{"name":"projectAdmin","type":"address","indexed":true,"internalType":"address"},{"name":"saleTokenAmount","type":"uint256","indexed":false,"internalType":"uint256"}],"anonymous":false},{"type":"event","name":"SetOpenToAll","inputs":[{"name":"openToAll","type":"bool","indexed":false,"internalType":"bool"}],"anonymous":false},{"type":"event","name":"SetWhitelist","inputs":[{"name":"user","type":"address","indexed":true,"internalType":"address"},{"name":"isWhitelist","type":"bool","indexed":false,"internalType":"bool"}],"anonymous":false},{"type":"event","name":"Transfer","inputs":[{"name":"from","type":"address","indexed":true,"internalType":"address"},{"name":"to","type":"address","indexed":true,"internalType":"address"},{"name":"tokenId","type":"uint256","indexed":true,"internalType":"uint256"}],"anonymous":false},{"type":"event","name":"UserRefund","inputs":[{"name":"user","type":"address","indexed":true,"internalType":"address"},{"name":"tokenId","type":"uint256","indexed":false,"internalType":"uint256"},{"name":"raiseTokenAmount","type":"uint256","indexed":false,"internalType":"uint256"}],"anonymous":false}],"bytecode":{"object":"0x60806040523480156200001157600080fd5b5060408051602080820183526000808352835191820190935291825290620000406301ffc9a760e01b620000b5565b81516200005590600690602085019062000149565b5080516200006b90600790602084019062000149565b506200007e6380ac58cd60e01b620000b5565b62000090635b5e139f60e01b620000b5565b620000a263780e9d6360e01b620000b5565b50620000af90506200013a565b620001f5565b6001600160e01b0319808216141562000115576040805162461bcd60e51b815260206004820152601c60248201527f4552433136353a20696e76616c696420696e7465726661636520696400000000604482015290519081900360640190fd5b6001600160e01b0319166000908152602081905260409020805460ff19166001179055565b600e805460ff19166001179055565b828054600181600116156101000203166002900490600052602060002090601f016020900481019282620001815760008555620001cc565b82601f106200019c57805160ff1916838001178555620001cc565b82800160010185558215620001cc579182015b82811115620001cc578251825591602001919060010190620001af565b50620001da929150620001de565b5090565b5b80821115620001da5760008155600101620001df565b61764480620002056000396000f3fe60806040526004361061026b5760003560e01c80636352211e11610144578063ac9650d8116100b6578063ce245aed1161007a578063ce245aed14610731578063d348799714610751578063d755fd6114610771578063ddba471314610786578063dfbd8eb0146107b4578063e985e9c5146107d4576102c2565b8063ac9650d8146106a9578063b5616f00146106c9578063b88d4fde146106dc578063b8ac77a4146106fc578063c87b56dd14610711576102c2565b80637deb6025116101085780637deb6025146105e15780639106d7ba1461060f57806395d89b411461062457806399fbab88146106395780639f2439e214610669578063a22cb46514610689576102c2565b80636352211e1461055957806363bc597a146105795780636c0360eb1461058c57806370a08231146105a15780637d8d4b8b146105c1576102c2565b80632f745c59116101dd57806347377d92116101a157806347377d92146104c55780634a315be4146104da5780634aa4a4fc146104ef5780634f6ccce7146105045780635a435920146105245780635b7baf6414610539576102c2565b80632f745c5914610424578063379607f51461044457806339ee0661146104655780633af32abf1461048557806342842e0e146104a5576102c2565b80631347407a1161022f5780631347407a1461038157806318160ddd146103965780631a4d3456146103b85780631b2df850146103cd578063239f3af7146103e257806323b872dd14610404576102c2565b806301339c21146102c757806301ffc9a7146102dc57806306fdde0314610312578063081812fc14610334578063095ea7b314610361576102c2565b366102c257600e5461010090046001600160a01b031633146102c0576040805162461bcd60e51b81526020600482015260096024820152684e6f7420574554483960b81b604482015290519081900360640190fd5b005b600080fd5b3480156102d357600080fd5b506102c06107f4565b3480156102e857600080fd5b506102fc6102f73660046163dc565b610c8f565b6040516103099190616aac565b60405180910390f35b34801561031e57600080fd5b50610327610cb2565b6040516103099190616b76565b34801561034057600080fd5b5061035461034f3660046166e5565b610cde565b604051610309919061698f565b34801561036d57600080fd5b506102c061037c366004616356565b610d40565b34801561038d57600080fd5b50610354610e16565b3480156103a257600080fd5b506103ab610e25565b6040516103099190616ab7565b3480156103c457600080fd5b506102fc610e36565b3480156103d957600080fd5b50610354610e3f565b3480156103ee57600080fd5b506103f7610e4e565b6040516103099190616ac0565b34801561041057600080fd5b506102c061041f366004616243565b610e5e565b34801561043057600080fd5b506103ab61043f366004616356565b610eb5565b6104576104523660046166e5565b610ee0565b604051610309929190616db6565b34801561047157600080fd5b506102c0610480366004616381565b61172c565b34801561049157600080fd5b506102fc6104a03660046161d3565b61181e565b3480156104b157600080fd5b506102c06104c0366004616243565b611829565b3480156104d157600080fd5b506103f7611844565b3480156104e657600080fd5b50610354611854565b3480156104fb57600080fd5b50610354611863565b34801561051057600080fd5b506103ab61051f3660046166e5565b611877565b34801561053057600080fd5b506102c061188d565b34801561054557600080fd5b506102c06105543660046166e5565b611b02565b34801561056557600080fd5b506103546105743660046166e5565b611d02565b6104576105873660046166e5565b611d2a565b34801561059857600080fd5b5061032761243c565b3480156105ad57600080fd5b506103ab6105bc3660046161d3565b6124d2565b3480156105cd57600080fd5b506102c06105dc366004616381565b61253a565b3480156105ed57600080fd5b506106016105fc366004616715565b612626565b604051610309929190616d6e565b34801561061b57600080fd5b506103ab612906565b34801561063057600080fd5b50610327612919565b34801561064557600080fd5b506106596106543660046166e5565b612941565b6040516103099493929190616d29565b34801561067557600080fd5b506102c061068436600461648e565b612973565b34801561069557600080fd5b506102c06106a4366004616329565b612e6a565b6106bc6106b7366004616381565b612f6f565b6040516103099190616a4c565b6104576106d73660046166e5565b6130ae565b3480156106e857600080fd5b506102c06106f7366004616283565b613695565b34801561070857600080fd5b506103546136ed565b34801561071d57600080fd5b5061032761072c3660046166e5565b6136fc565b34801561073d57600080fd5b506102c061074c3660046163c0565b61397d565b34801561075d57600080fd5b506102c061076c36600461675c565b613a3f565b34801561077d57600080fd5b50610354613a92565b34801561079257600080fd5b506107a66107a13660046166e5565b613aa1565b604051610309929190616cee565b3480156107c057600080fd5b506103ab6107cf3660046161d3565b613ae0565b3480156107e057600080fd5b506102fc6107ef36600461620b565b613c11565b600f546001600160a01b031633146108275760405162461bcd60e51b815260040161081e90616c4f565b60405180910390fd5b601d5460ff161561084a5760405162461bcd60e51b815260040161081e90616bfa565b601d54610100900460ff16156108725760405162461bcd60e51b815260040161081e90616bdd565b60195460215410156108965760405162461bcd60e51b815260040161081e90616cd2565b6017546015546010546000926001600160a01b0390811692849283928392839290821691168114156108dc5760215494508492506108d383613c3f565b975093506108f6565b6108e7602154613c3f565b60215490985090955093508391505b61093d6040518060c00160405280886001600160a01b03168152602001896001600160801b0316815260200187815260200186815260200185815260200184815250613cf8565b60405191965094506001600160a01b038716907f84f9f64193fad2eb4f21dc303b38ced11c1c88d8edb451059ef1668cca27b58a90610981908a9089908990616d08565b60405180910390a25050600f546040516341c09a5b60e11b8152600094506001600160a01b03909116925063838134b691506109c190859060040161698f565b6101c06040518083038186803b1580156109da57600080fd5b505afa1580156109ee573d6000803e3d6000fd5b505050506040513d601f19601f82011682018060405250810190610a1291906164c6565b905060015b601f54811015610c7057600080601f8381548110610a3157fe5b60009182526020808320604080516060810182526002909402909101805461ffff811685526001600160a01b03620100009091041684840152600181018054835181860281018601855281815295969295938701949192909184015b82821015610ae4576000848152602090819020604080516060810182529185015461ffff811683526001600160401b03620100008204811684860152600160501b9091041690820152825260019092019101610a8d565b50505091525050602080820151815460018101909255909350909150610b0a9083613dd6565b8051600090610b2a906001600160801b0389169061ffff16612710613f04565b6000848152601e6020908152604080832080546001600160801b0386166001600160801b031991821681178355600d9094529184208054909216909217815592935091600101905b846040015151811015610c14578185604001518281518110610b9057fe5b602090810291909101810151825460018181018555600094855293839020825191018054938301516040909301516001600160401b03908116600160501b0267ffffffffffffffff60501b1991909416620100000269ffffffffffffffff00001961ffff90941661ffff199096169590951792909216939093171617905501610b72565b5083602001516001600160a01b03167fb9d0a41e74263c0b717632d7be04eb071146bae0d842981580b5ef45b22a6dff86600086604051610c5793929190616d4f565b60405180910390a2505060019093019250610a17915050565b508051610c7c90613fb4565b5050601d805460ff191660011790555050565b6001600160e01b0319811660009081526020819052604090205460ff165b919050565b6040805180820190915260128152714b52595354414c20494c4f506f6f6c20563160701b602082015290565b6000610ce98261409a565b610d245760405162461bcd60e51b815260040180806020018281038252602c81526020018061748d602c913960400191505060405180910390fd5b506000908152600460205260409020546001600160a01b031690565b6000610d4b82611d02565b9050806001600160a01b0316836001600160a01b03161415610d9e5760405162461bcd60e51b81526004018080602001828103825260218152602001806175356021913960400191505060405180910390fd5b806001600160a01b0316610db06140a7565b6001600160a01b03161480610dcc5750610dcc816107ef6140a7565b610e075760405162461bcd60e51b81526004018080602001828103825260388152602001806173b46038913960400191505060405180910390fd5b610e1183836140ab565b505050565b6012546001600160a01b031681565b6000610e316002614119565b905090565b600a5460ff1690565b600f546001600160a01b031681565b601154600160b81b900460020b81565b610e6f610e696140a7565b82614124565b610eaa5760405162461bcd60e51b81526004018080602001828103825260318152602001806175566031913960400191505060405180910390fd5b610e118383836141c8565b6001600160a01b0382166000908152600160205260408120610ed79083614314565b90505b92915050565b60008082610eee3382614124565b610f0a5760405162461bcd60e51b815260040161081e90616c4f565b601d5460ff16610f2c5760405162461bcd60e51b815260040161081e90616c16565b6000610f3785614320565b6017546000878152601e6020526040808220600f5491516341c09a5b60e11b81529495506001600160a01b039384169490939091169063838134b690610f8190869060040161698f565b6101c06040518083038186803b158015610f9a57600080fd5b505afa158015610fae573d6000803e3d6000fd5b505050506040513d601f19601f82011682018060405250810190610fd291906164c6565b82549091506001600160801b03908116908516811015610ff157600080fd5b6110266040518060600160405280602c81526020016175e3602c9139826001600160801b0316876001600160801b031661437b565b60115460405163a34123a760e01b81526001600160a01b0386169163a34123a79161106d91600160a01b8104600290810b92600160b81b909204900b908a90600401616b50565b6040805180830381600087803b15801561108657600080fd5b505af115801561109a573d6000803e3d6000fd5b505050506040513d601f19601f820116820180604052508101906110be9190616739565b80985081995050506110f36040518060600160405280602b8152602001617389602b91398989886001600160801b0316614431565b61110388888461014001516144ef565b809850819950505061112e60405180606001604052806038815260200161732560389139898961437b565b601154600090611155903090600160a01b8104600290810b91600160b81b9004900b614524565b9050600080866001600160a01b031663514ea4bf846040518263ffffffff1660e01b81526004016111869190616ab7565b60a06040518083038186803b15801561119e57600080fd5b505afa1580156111b2573d6000803e3d6000fd5b505050506040513d601f19601f820116820180604052508101906111d6919061668f565b5050925092505060006111fd87600101548403866001600160801b0316600160801b613f04565b9050600061121f88600201548403876001600160801b0316600160801b613f04565b90506112616040518060400160405280601a81526020017f556e69466565303a202573202c20556e69466565313a20257320000000000000815250838361437b565b61127182828961016001516144ef565b809250819350505061129c6040518060600160405280603081526020016175b360309139838361437b565b818d019c50808c019b506112c96040518060600160405280602c815260200161743f602c91398e8e61437b565b8388600101819055508288600201819055508986038860000160006101000a8154816001600160801b0302191690836001600160801b031602179055508d7f26f6a048ee9138f2c0ce266f322cb99228e8d619ae2bff30c67f8dcf9d2377b48b8f8f60405161133a93929190616d08565b60405180910390a250506011546040516309e3d67b60e31b8152600096508695506001600160a01b0389169450634f1eb3d893506113a092503091600160a01b8104600290810b92600160b81b909204900b906001600160801b039081906004016169e5565b6040805180830381600087803b1580156113b957600080fd5b505af11580156113cd573d6000803e3d6000fd5b505050506040513d601f19601f820116820180604052508101906113f1919061665d565b91509150887f40d0efd1a53d60ecbf40971b9daf7dc90178c3aadc7aab1765632738fa8b8f0130848460405161142993929190616a22565b60405180910390a26114666040518060600160405280603c8152602001617293603c9139836001600160801b0316836001600160801b031661437b565b604080518082018252601c81527f42616c616e636520616674657220636f6c6c6563742054303a20257300000000602082015260155491516370a0823160e01b815261151f926001600160a01b0316906370a08231906114ca90309060040161698f565b60206040518083038186803b1580156114e257600080fd5b505afa1580156114f6573d6000803e3d6000fd5b505050506040513d601f19601f8201168201806040525081019061151a91906166fd565b61457a565b604080518082018252601c81527f42616c616e636520616674657220636f6c6c6563742054313a20257300000000602082015260165491516370a0823160e01b8152611583926001600160a01b0316906370a08231906114ca90309060040161698f565b6015546115a2906001600160a01b031661159c8b611d02565b8a614628565b6016546115c1906001600160a01b03166115bb8b611d02565b89614628565b6115ca89611d02565b6001600160a01b03167efe069a20409e3c2b6ab9c03af6584b490a3c6fcf430a29cc0c2e3b24d5740a8a878b8b8860010154896002015460405161161396959493929190616d85565b60405180910390a2600f546040805163552e94a960e01b815290516000926001600160a01b03169163552e94a991600480830192602092919082900301818787803b15801561166157600080fd5b505af1158015611675573d6000803e3d6000fd5b505050506040513d601f19601f8201168201806040525081019061169991906161ef565b90506116da6040518060400160405280601281526020017102332b2902a30b5b2b91030b6b7bab73a1d160751b8152508a856001600160801b03160361457a565b6015546116fd906001600160a01b0316826001600160801b0386168c9003614628565b601654611720906001600160a01b0316826001600160801b0385168b9003614628565b50505050505050915091565b600f546017546040516341c09a5b60e11b81526000926001600160a01b039081169263838134b692611764929091169060040161698f565b6101c06040518083038186803b15801561177d57600080fd5b505afa158015611791573d6000803e3d6000fd5b505050506040513d601f19601f820116820180604052508101906117b591906164c6565b80519091506001600160a01b031633146117e15760405162461bcd60e51b815260040161081e90616c4f565b60005b82811015611818576118108484838181106117fb57fe5b905060200201356001600160a01b0316614776565b6001016117e4565b50505050565b6000610eda826147c5565b610e1183838360405180602001604052806000815250613695565b601154600160a01b900460020b81565b6010546001600160a01b031681565b600e5461010090046001600160a01b031681565b6000806118856002846147df565b509392505050565b6017546011546001600160a01b03909116906000906118c3903090600160a01b8104600290810b91600160b81b9004900b614524565b9050600080836001600160a01b031663514ea4bf846040518263ffffffff1660e01b81526004016118f49190616ab7565b60a06040518083038186803b15801561190c57600080fd5b505afa158015611920573d6000803e3d6000fd5b505050506040513d601f19601f82011682018060405250810190611944919061668f565b5050925092505061198b6040518060400160405280601a81526020017f466565506f73303a202573202c20466565506f73313a20257320000000000000815250838361437b565b60115460405163f30dba9360e01b815260009182916001600160a01b0388169163f30dba93916119c891600160a01b900460020b90600401616ac0565b6101006040518083038186803b1580156119e157600080fd5b505afa1580156119f5573d6000803e3d6000fd5b505050506040513d601f19601f82011682018060405250810190611a1991906165b7565b505060115460405163f30dba9360e01b815294985092965060009550859450506001600160a01b038b169263f30dba9392611a629250600160b81b900460020b90600401616ac0565b6101006040518083038186803b158015611a7b57600080fd5b505afa158015611a8f573d6000803e3d6000fd5b505050506040513d601f19601f82011682018060405250810190611ab391906165b7565b505060408051808201909152600d81526c313a202573202c20323a20257360981b6020820152939750919550505086850392508584039150611af690838361437b565b50505050505050505050565b601d54610100900460ff16611bfd57601d5460ff1615611b345760405162461bcd60e51b815260040161081e90616bfa565b600f546017546040516341c09a5b60e11b81526000926001600160a01b039081169263838134b692611b6c929091169060040161698f565b6101c06040518083038186803b158015611b8557600080fd5b505afa158015611b99573d6000803e3d6000fd5b505050506040513d601f19601f82011682018060405250810190611bbd91906164c6565b90508060c001516001600160401b0316421015611bec5760405162461bcd60e51b815260040161081e90616cb5565b50601d805461ff0019166101001790555b80611c083382614124565b611c245760405162461bcd60e51b815260040161081e90616c4f565b6000828152601e602052604081206003015490611c4084611d02565b6000858152601e6020908152604080832080546001600160801b031990811682556001808301869055600283018690556003909201859055600d9093529083208054909216825592935091611c9790830182615f80565b5050611ca2846147fd565b601054611cb9906001600160a01b03168284614628565b806001600160a01b03167f8a5e5be454dd2022994a88db148243a2a31a03d1cb4f280d702975ed73db23db8584604051611cf4929190616db6565b60405180910390a250505050565b6000610eda8260405180606001604052806029815260200161741660299139600291906148ca565b60008082611d383382614124565b611d545760405162461bcd60e51b815260040161081e90616c4f565b601d5460ff16611d765760405162461bcd60e51b815260040161081e90616c16565b6000611d8185614320565b6017546000878152601e6020526040808220600f5491516341c09a5b60e11b81529495506001600160a01b0393841694929384939192849291169063838134b690611dd090889060040161698f565b6101c06040518083038186803b158015611de957600080fd5b505afa158015611dfd573d6000803e3d6000fd5b505050506040513d601f19601f82011682018060405250810190611e2191906164c6565b82549091506001600160801b03908116908716811015611e4057600080fd5b611e756040518060600160405280602c81526020016175e3602c9139826001600160801b0316896001600160801b031661437b565b600080600080611e84856148d7565b9350935093509350611ecc6040518060400160405280601a81526020017f556e69466565303a202573202c20556e69466565313a20257320000000000000815250858561437b565b896001600160a01b031663a34123a7601160149054906101000a900460020b601160179054906101000a900460020b8e6040518463ffffffff1660e01b8152600401611f1a93929190616b50565b6040805180830381600087803b158015611f3357600080fd5b505af1158015611f47573d6000803e3d6000fd5b505050506040513d601f19601f82011682018060405250810190611f6b9190616739565b809e50819f505050611fa06040518060600160405280602b8152602001617389602b91398f8f8e6001600160801b0316614431565b611fc7604051806060016040528060248152602001617511602491398f86018f860161437b565b611fe18e87610140015161ffff1661271061ffff16613f04565b9850611ffd8d87610140015161ffff1661271061ffff16613f04565b9750888e039d50878d039c5061202c604051806060016040528060388152602001617325603891398f8f61437b565b6120468487610160015161ffff1661271061ffff16613f04565b61016087015199019861206190849061ffff16612710613f04565b61016087015198019761207c90859061ffff16612710613f04565b61016087015194039361209790849061ffff16612710613f04565b830392506120be6040518060600160405280603081526020016175b360309139858561437b565b838e019d50828d019c506120eb6040518060600160405280602c815260200161743f602c91398f8f61437b565b600187019190915560028087019190915585546001600160801b03948b900385166001600160801b03199091161786556011546040516309e3d67b60e31b81526000965086956001600160a01b038c169550634f1eb3d8945061216b933093600160a01b8104820b93600160b81b90910490910b919081906004016169e5565b6040805180830381600087803b15801561218457600080fd5b505af1158015612198573d6000803e3d6000fd5b505050506040513d601f19601f820116820180604052508101906121bc919061665d565b604080518082018252601981527842616c616e636520616674657220636f6c6c6563743a20257360381b602082015260155491516370a0823160e01b8152939550919350612224926001600160a01b03909116906370a08231906114ca90309060040161698f565b604080518082018252601981527842616c616e636520616674657220636f6c6c6563743a20257360381b602082015260165491516370a0823160e01b8152612284926001600160a01b0316906370a08231906114ca90309060040161698f565b6122b96040518060600160405280603c8152602001617293603c9139836001600160801b0316836001600160801b031661437b565b6015546122d8906001600160a01b03166122d28d611d02565b8c614628565b6016546122f7906001600160a01b03166122f18d611d02565b8b614628565b600f546040805163552e94a960e01b815290516000926001600160a01b03169163552e94a991600480830192602092919082900301818787803b15801561233d57600080fd5b505af1158015612351573d6000803e3d6000fd5b505050506040513d601f19601f8201168201806040525081019061237591906161ef565b90506123c16040518060400160405280601a81526020017f57726f6e67204665652054616b657220616d6f756e7420303a200000000000008152508c856001600160801b03160361457a565b6124006040518060400160405280601b81526020017f436f72726563744665652054616b657220616d6f756e7420303a2000000000008152508761457a565b601554612417906001600160a01b03168288614628565b60165461242e906001600160a01b03168287614628565b505050505050505050915091565b60098054604080516020601f60026000196101006001881615020190951694909404938401819004810282018101909252828152606093909290918301828280156124c85780601f1061249d576101008083540402835291602001916124c8565b820191906000526020600020905b8154815290600101906020018083116124ab57829003601f168201915b5050505050905090565b60006001600160a01b0382166125195760405162461bcd60e51b815260040180806020018281038252602a8152602001806173ec602a913960400191505060405180910390fd5b6001600160a01b0382166000908152600160205260409020610eda90614119565b600f546017546040516341c09a5b60e11b81526000926001600160a01b039081169263838134b692612572929091169060040161698f565b6101c06040518083038186803b15801561258b57600080fd5b505afa15801561259f573d6000803e3d6000fd5b505050506040513d601f19601f820116820180604052508101906125c391906164c6565b80519091506001600160a01b031633146125ef5760405162461bcd60e51b815260040161081e90616c4f565b60005b828110156118185761261e84848381811061260957fe5b905060200201356001600160a01b0316614c08565b6001016125f2565b600080612632836147c5565b61264e5760405162461bcd60e51b815260040161081e90616c4f565b601b546001600160401b0316421180156126795750601b54600160401b90046001600160401b031642105b6126955760405162461bcd60e51b815260040161081e90616c33565b602154601854038411156126bb5760405162461bcd60e51b815260040161081e90616c99565b6021805485019055601c546126ce612906565b11156126ec5760405162461bcd60e51b815260040161081e90616ba5565b6126f5836124d2565b61275957602080546001810190915591506127108383613dd6565b601f60008154811061271e57fe5b9060005260206000209060020201600101600d6000848152602001908152602001600020600101908054612753929190615f9e565b50612767565b612764836000610eb5565b91505b6000828152601e602052604090206003810154601a540385111561279d5760405162461bcd60e51b815260040161081e90616b89565b600381018054860190556015546010546001600160a01b03908116911614156127e4576012546014546127dd916001600160a01b03908116911687614c57565b9150612804565b601354601254612801916001600160a01b03908116911687614cc3565b91505b6000826001600160801b03161161282d5760405162461bcd60e51b815260040161081e90616bc1565b612865826001600160801b0316601f60008154811061284857fe5b600091825260209091206002909102015461ffff16612710613f04565b81546001600160801b03808216830181166001600160801b0319928316178085556000878152600d60205260409020805490931691161790556010549092506128b9906001600160a01b0316333088614d00565b836001600160a01b03167fb9d0a41e74263c0b717632d7be04eb071146bae0d842981580b5ef45b22a6dff8487856040516128f693929190616d4f565b60405180910390a2509250929050565b6000612913602154613c3f565b50919050565b60408051808201909152600e81526d4b52595354414c2d494c4f2d563160901b602082015290565b6000908152601e602052604090208054600382015460018301546002909301546001600160801b039092169390929190565b600e5460ff161561298357600080fd5b60016020908155600f80546001600160a01b0319163317908190556000916001600160a01b03919091169063838134b6906129c0908501856161d3565b6040518263ffffffff1660e01b81526004016129dc919061698f565b6101c06040518083038186803b1580156129f557600080fd5b505afa158015612a09573d6000803e3d6000fd5b505050506040513d601f19601f82011682018060405250810190612a2d91906164c6565b9050600f60009054906101000a90046001600160a01b03166001600160a01b0316634aa4a4fc6040518163ffffffff1660e01b8152600401602060405180830381600087803b158015612a7f57600080fd5b505af1158015612a93573d6000803e3d6000fd5b505050506040513d601f19601f82011682018060405250810190612ab791906161ef565b600e8054610100600160a81b0319166101006001600160a01b03938416021790556040820151601080546001600160a01b0319908116928416929092179055602080840151601180549093169316929092179055612b17908301836161d3565b601780546001600160a01b039283166001600160a01b0319918216179091556101208301518051601580549185169184169190911790556020808201516016805460409485015162ffffff16600160a01b0262ffffff60a01b19939097169516949094171693909317909155612b9291908401908401616404565b6011805460029290920b62ffffff16600160a01b0262ffffff60a01b19909216919091179055612bc86060830160408401616404565b6011805460029290920b62ffffff16600160b81b0262ffffff60b81b19909216919091179055612bfe60808301606084016161d3565b601380546001600160a01b0319166001600160a01b0392909216919091179055612c2e60a08301608084016161d3565b601480546001600160a01b039283166001600160a01b0319918216179091556080830151601280549190931691161790556000612c6e60a0840135613c3f565b5090506040518060c001604052808460a0013581526020018460c0013581526020018460e00135815260200184610100016020810190612cae91906167d6565b6001600160401b03168152602001612cce610140860161012087016167d6565b6001600160401b03908116825260209182018490528251601855908201516019556040820151601a556060820151601b805460808501518416600160401b026fffffffffffffffff0000000000000000199390941667ffffffffffffffff19909116179190911691909117905560a090810151601c55820151612d6790612d59610140860186616dc4565b612d6291616eda565b614e58565b60005b612d78610140850185616dc4565b9050811015612dd957601f612d91610140860186616dc4565b83818110612d9b57fe5b9050602002810190612dad9190616e4e565b815460018101835560009283526020909220909160020201612dcf82826170ef565b5050600101612d6a565b50612de760208401846161d3565b6011546001600160a01b0391909116907f681c183d681d0e43cb6d93d65e534fe40540d61ffb0d59f6f5ea93a8c24c914290600160a01b8104600290810b91600160b81b9004900b6018612e3f610140890189616dc4565b604051612e50959493929190616ace565b60405180910390a25050600e805460ff1916600117905550565b612e726140a7565b6001600160a01b0316826001600160a01b03161415612ed8576040805162461bcd60e51b815260206004820152601960248201527f4552433732313a20617070726f766520746f2063616c6c657200000000000000604482015290519081900360640190fd5b8060056000612ee56140a7565b6001600160a01b03908116825260208083019390935260409182016000908120918716808252919093529120805460ff191692151592909217909155612f296140a7565b6001600160a01b03167f17307eab39ab6107e8899845ad3d59bd9653f200f220920489ca2b5937696c318360405180821515815260200191505060405180910390a35050565b6060816001600160401b0381118015612f8757600080fd5b50604051908082528060200260200182016040528015612fbb57816020015b6060815260200190600190039081612fa65790505b50905060005b828110156130a75760008030868685818110612fd957fe5b9050602002810190612feb9190616e0a565b604051612ff992919061697f565b600060405180830381855af49150503d8060008114613034576040519150601f19603f3d011682016040523d82523d6000602084013e613039565b606091505b5091509150816130855760448151101561305257600080fd5b6004810190508080602001905181019061306c9190616425565b60405162461bcd60e51b815260040161081e9190616b76565b8084848151811061309257fe5b60209081029190910101525050600101612fc1565b5092915050565b600080826130bc3382614124565b6130d85760405162461bcd60e51b815260040161081e90616c4f565b601d5460ff166130fa5760405162461bcd60e51b815260040161081e90616c16565b600061310585614320565b6017546000878152601e6020526040808220600f5491516341c09a5b60e11b81529495506001600160a01b039384169490939091169063838134b69061314f90869060040161698f565b6101c06040518083038186803b15801561316857600080fd5b505afa15801561317c573d6000803e3d6000fd5b505050506040513d601f19601f820116820180604052508101906131a091906164c6565b6011549091506000906131ca903090600160a01b8104600290810b91600160b81b9004900b614524565b83549091506001600160801b039081169086168110156131e957600080fd5b61321d60405180604001604052806013815260200172151515102122a327a92290212aa9271015151560691b81525061501c565b600080866001600160a01b031663514ea4bf856040518263ffffffff1660e01b815260040161324c9190616ab7565b60a06040518083038186803b15801561326457600080fd5b505afa158015613278573d6000803e3d6000fd5b505050506040513d601f19601f8201168201806040525081019061329c919061668f565b505092509250506132ac836148d7565b505060115460405163a34123a760e01b81526001600160a01b038b16935063a34123a792506132f791600160a01b8104600290810b92600160b81b909204900b908d90600401616b50565b6040805180830381600087803b15801561331057600080fd5b505af1158015613324573d6000803e3d6000fd5b505050506040513d601f19601f820116820180604052508101906133489190616739565b809b50819c50505061337d6040518060600160405280602b8152602001617389602b91398c8c8b6001600160801b0316614431565b6133b0604051806040016040528060128152602001711515151020a32a22a910212aa9271015151560711b81525061501c565b6133b9836148d7565b505050506133cd8b8b8761014001516144ef565b60405163514ea4bf60e01b8152919c509a506001600160a01b0388169063514ea4bf906133fe908790600401616ab7565b60a06040518083038186803b15801561341657600080fd5b505afa15801561342a573d6000803e3d6000fd5b505050506040513d601f19601f8201168201806040525081019061344e919061668f565b505060018901549194509250600091506134789084036001600160801b038616600160801b613f04565b9050600061349a88600201548403866001600160801b0316600160801b613f04565b90506134ac82828961016001516144ef565b60018a01959095556002808a019490945588546001600160801b03968c900387166001600160801b03199091161789556011546040516309e3d67b60e31b81529e9091019d9c9094019b600097508796506001600160a01b038a1695634f1eb3d89561353595309550600160a01b8204810b9450600160b81b909104900b9181906004016169e5565b6040805180830381600087803b15801561354e57600080fd5b505af1158015613562573d6000803e3d6000fd5b505050506040513d601f19601f82011682018060405250810190613586919061665d565b915091506135bf6040518060600160405280602c8152602001617587602c9139836001600160801b0316836001600160801b031661437b565b6015546135d8906001600160a01b031661159c8b611d02565b6016546135f1906001600160a01b03166115bb8b611d02565b600f546040805163552e94a960e01b815290516000926001600160a01b03169163552e94a991600480830192602092919082900301818787803b15801561363757600080fd5b505af115801561364b573d6000803e3d6000fd5b505050506040513d601f19601f8201168201806040525081019061366f91906161ef565b6015549091506116fd906001600160a01b0316826001600160801b0386168c9003614628565b6136a66136a06140a7565b83614124565b6136e15760405162461bcd60e51b81526004018080602001828103825260318152602001806175566031913960400191505060405180910390fd5b611818848484846150c5565b6011546001600160a01b031681565b60606137078261409a565b6137425760405162461bcd60e51b815260040180806020018281038252602f8152602001806174e2602f913960400191505060405180910390fd5b60008281526008602090815260408083208054825160026001831615610100026000190190921691909104601f8101859004850282018501909352828152929091908301828280156137d55780601f106137aa576101008083540402835291602001916137d5565b820191906000526020600020905b8154815290600101906020018083116137b857829003601f168201915b5050505050905060006137e661243c565b90508051600014156137fa57509050610cad565b8151156138bb5780826040516020018083805190602001908083835b602083106138355780518252601f199092019160209182019101613816565b51815160209384036101000a600019018019909216911617905285519190930192850191508083835b6020831061387d5780518252601f19909201916020918201910161385e565b6001836020036101000a0380198251168184511680821785525050505050509050019250505060405160208183030381529060405292505050610cad565b806138c585615117565b6040516020018083805190602001908083835b602083106138f75780518252601f1990920191602091820191016138d8565b51815160209384036101000a600019018019909216911617905285519190930192850191508083835b6020831061393f5780518252601f199092019160209182019101613920565b6001836020036101000a0380198251168184511680821785525050505050509050019250505060405160208183030381529060405292505050919050565b600f546017546040516341c09a5b60e11b81526000926001600160a01b039081169263838134b6926139b5929091169060040161698f565b6101c06040518083038186803b1580156139ce57600080fd5b505afa1580156139e2573d6000803e3d6000fd5b505050506040513d601f19601f82011682018060405250810190613a0691906164c6565b80519091506001600160a01b03163314613a325760405162461bcd60e51b815260040161081e90616c4f565b613a3b826151f1565b5050565b6017546001600160a01b03163314613a5657600080fd5b8315613a7457601554613a74906001600160a01b0316303387615238565b821561181857601654611818906001600160a01b0316303386615238565b6017546001600160a01b031681565b600080613aad83615381565b6000938452601e6020908152604080862054600d9092529094205490946001600160801b03948516919094160392915050565b601d54600090610100900460ff16613bde57601d5460ff1615613b155760405162461bcd60e51b815260040161081e90616bfa565b600f546017546040516341c09a5b60e11b81526000926001600160a01b039081169263838134b692613b4d929091169060040161698f565b6101c06040518083038186803b158015613b6657600080fd5b505afa158015613b7a573d6000803e3d6000fd5b505050506040513d601f19601f82011682018060405250810190613b9e91906164c6565b90508060c001516001600160401b0316421015613bcd5760405162461bcd60e51b815260040161081e90616cb5565b50601d805461ff0019166101001790555b600f546001600160a01b03163314613c085760405162461bcd60e51b815260040161081e90616c4f565b610eda82613fb4565b6001600160a01b03918216600090815260056020908152604080832093909416825291909152205460ff1690565b60008082613c5257506000905080613cf3565b6011546015546001600160a01b0390811691161415613cb157601354601254613c88916001600160a01b03908116911685614cc3565b601254601454919250613caa916001600160a01b03918216911683600161547a565b9150613cf3565b601254601454613cce916001600160a01b03908116911685614c57565b601354601254919250613cf0916001600160a01b03918216911683600161552e565b91505b915091565b80516011546020830151604051633c8a7d8d60e01b815260009384936001600160a01b0390911692633c8a7d8d92613d4c923092600160a01b8204600290810b93600160b81b909304900b916004016169a3565b6040805180830381600087803b158015613d6557600080fd5b505af1158015613d79573d6000803e3d6000fd5b505050506040513d601f19601f82011682018060405250810190613d9d9190616739565b608085015191935091508210801590613dba57508260a001518110155b613cf35760405162461bcd60e51b815260040161081e90616c6b565b6001600160a01b038216613e31576040805162461bcd60e51b815260206004820181905260248201527f4552433732313a206d696e7420746f20746865207a65726f2061646472657373604482015290519081900360640190fd5b613e3a8161409a565b15613e8c576040805162461bcd60e51b815260206004820152601c60248201527f4552433732313a20746f6b656e20616c7265616479206d696e74656400000000604482015290519081900360640190fd5b613e9860008383610e11565b6001600160a01b0382166000908152600160205260409020613eba908261559e565b50613ec7600282846155aa565b5060405181906001600160a01b038416906000907fddf252ad1be2c89b69c2b068fc378daa952ba7f163c4a11628f55a4df523b3ef908290a45050565b6000808060001985870986860292508281109083900303905080613f3a5760008411613f2f57600080fd5b508290049050613fad565b808411613f4657600080fd5b6000848688096000868103871696879004966002600389028118808a02820302808a02820302808a02820302808a02820302808a02820302808a02909103029181900381900460010186841190950394909402919094039290920491909117919091029150505b9392505050565b6011546040516370a0823160e01b81526000916001600160a01b0316906370a0823190613fe590309060040161698f565b60206040518083038186803b158015613ffd57600080fd5b505afa158015614011573d6000803e3d6000fd5b505050506040513d601f19601f8201168201806040525081019061403591906166fd565b90508015610cad57601154614054906001600160a01b03168383614628565b816001600160a01b03167f498ae545c84e03bf5ed5dc924dbe40cdf07cc7ff5b4077eee662fa2a7fd0500d8260405161408d9190616ab7565b60405180910390a2919050565b6000610eda6002836155c0565b3390565b600081815260046020526040902080546001600160a01b0319166001600160a01b03841690811790915581906140e082611d02565b6001600160a01b03167f8c5be1e5ebec7d5bd14f71427d1e84f3dd0314c0f7b2291e5b200ac8c7c3b92560405160405180910390a45050565b6000610eda826155cc565b600061412f8261409a565b61416a5760405162461bcd60e51b815260040180806020018281038252602c81526020018061735d602c913960400191505060405180910390fd5b600061417583611d02565b9050806001600160a01b0316846001600160a01b031614806141b05750836001600160a01b03166141a584610cde565b6001600160a01b0316145b806141c057506141c08185613c11565b949350505050565b826001600160a01b03166141db82611d02565b6001600160a01b0316146142205760405162461bcd60e51b81526004018080602001828103825260298152602001806174b96029913960400191505060405180910390fd5b6001600160a01b0382166142655760405162461bcd60e51b81526004018080602001828103825260248152602001806173016024913960400191505060405180910390fd5b614270838383610e11565b61427b6000826140ab565b6001600160a01b038316600090815260016020526040902061429d90826155d0565b506001600160a01b03821660009081526001602052604090206142c0908261559e565b506142cd600282846155aa565b5080826001600160a01b0316846001600160a01b03167fddf252ad1be2c89b69c2b068fc378daa952ba7f163c4a11628f55a4df523b3ef60405160405180910390a4505050565b6000610ed783836155dc565b6000818152601e6020908152604080832054600d9092528220546001600160801b039182169116038161435284615381565b9050806001600160801b0316826001600160801b0316106143745760006141c0565b0392915050565b610e118383836040516024018080602001848152602001838152602001828103825285818151815260200191508051906020019080838360005b838110156143cd5781810151838201526020016143b5565b50505050905090810190601f1680156143fa5780820380516001836020036101000a031916815260200191505b5060408051601f198184030181529190526020810180516001600160e01b031663969cdd0360e01b17905294506156409350505050565b611818848484846040516024018080602001858152602001848152602001838152602001828103825286818151815260200191508051906020019080838360005b8381101561448a578181015183820152602001614472565b50505050905090810190601f1680156144b75780820380516001836020036101000a031916815260200191505b5060408051601f198184030181529190526020810180516001600160e01b03166304772b3360e11b1790529550615640945050505050565b6000806145038561ffff8516612710613f04565b850391506145188461ffff8516612710613f04565b84039050935093915050565b6040805160609490941b6bffffffffffffffffffffffff1916602080860191909152600293840b60e890811b60348701529290930b90911b60378401528051808403601a018152603a9093019052815191012090565b613a3b82826040516024018080602001838152602001828103825284818151815260200191508051906020019080838360005b838110156145c55781810151838201526020016145ad565b50505050905090810190601f1680156145f25780820380516001836020036101000a031916815260200191505b5060408051601f198184030181529190526020810180516001600160e01b03166309710a9d60e41b179052935061564092505050565b604080516001600160a01b038481166024830152604480830185905283518084039091018152606490920183526020820180516001600160e01b031663a9059cbb60e01b1781529251825160009485949389169392918291908083835b602083106146a45780518252601f199092019160209182019101614685565b6001836020036101000a0380198251168184511680821785525050505050509050019150506000604051808303816000865af19150503d8060008114614706576040519150601f19603f3d011682016040523d82523d6000602084013e61470b565b606091505b5091509150818015614739575080511580614739575080806020019051602081101561473657600080fd5b50515b61476f576040805162461bcd60e51b815260206004820152600260248201526114d560f21b604482015290519081900360640190fd5b5050505050565b614781600b82615661565b50604080516001815290516001600160a01b038316917ff6019ec0a78d156d249a1ec7579e2321f6ac7521d6e1d2eacf90ba4a184dcceb919081900360200190a250565b600a5460009060ff1680610eda5750610eda600b83615676565b60008080806147ee868661568b565b909450925050505b9250929050565b600061480882611d02565b905061481681600084610e11565b6148216000836140ab565b600082815260086020526040902054600260001961010060018416150201909116041561485f57600082815260086020526040812061485f9161604c565b6001600160a01b038116600090815260016020526040902061488190836155d0565b5061488d600283615706565b5060405182906000906001600160a01b038416907fddf252ad1be2c89b69c2b068fc378daa952ba7f163c4a11628f55a4df523b3ef908390a45050565b60006141c0848484615712565b6017546011546000918291829182916001600160a01b03909116908290614915903090600160a01b8104600290810b91600160b81b9004900b614524565b60405163514ea4bf60e01b81529091506001600160a01b0383169063514ea4bf90614944908490600401616ab7565b60a06040518083038186803b15801561495c57600080fd5b505afa158015614970573d6000803e3d6000fd5b505050506040513d601f19601f82011682018060405250810190614994919061668f565b505060115460405163f30dba9360e01b81529297509095506000925082916001600160a01b0386169163f30dba93916149da91600160a01b900460020b90600401616ac0565b6101006040518083038186803b1580156149f357600080fd5b505afa158015614a07573d6000803e3d6000fd5b505050506040513d601f19601f82011682018060405250810190614a2b91906165b7565b505060115460405163f30dba9360e01b815294985092965060009550859450506001600160a01b0389169263f30dba9392614a749250600160b81b900460020b90600401616ac0565b6101006040518083038186803b158015614a8d57600080fd5b505afa158015614aa1573d6000803e3d6000fd5b505050506040513d601f19601f82011682018060405250810190614ac591906165b7565b5050505093509350505060008285886001600160a01b031663f30583996040518163ffffffff1660e01b815260040160206040518083038186803b158015614b0c57600080fd5b505afa158015614b20573d6000803e3d6000fd5b505050506040513d601f19601f82011682018060405250810190614b4491906166fd565b0303905060008285896001600160a01b031663461413196040518163ffffffff1660e01b815260040160206040518083038186803b158015614b8557600080fd5b505afa158015614b99573d6000803e3d6000fd5b505050506040513d601f19601f82011682018060405250810190614bbd91906166fd565b03039050614bdb8a83038e6001600160801b0316600160801b613f04565b9b50614bf78982038e6001600160801b0316600160801b613f04565b9a5050505050505050509193509193565b614c13600b826157dc565b50604080516000815290516001600160a01b038316917ff6019ec0a78d156d249a1ec7579e2321f6ac7521d6e1d2eacf90ba4a184dcceb919081900360200190a250565b6000826001600160a01b0316846001600160a01b03161115614c77579192915b6000614c9a856001600160a01b0316856001600160a01b0316600160601b613f04565b9050614cba614cb584838888036001600160a01b0316613f04565b6157f1565b95945050505050565b6000826001600160a01b0316846001600160a01b03161115614ce3579192915b6141c0614cb583600160601b8787036001600160a01b0316613f04565b604080516001600160a01b0385811660248301528481166044830152606480830185905283518084039091018152608490920183526020820180516001600160e01b03166323b872dd60e01b178152925182516000948594938a169392918291908083835b60208310614d845780518252601f199092019160209182019101614d65565b6001836020036101000a0380198251168184511680821785525050505050509050019150506000604051808303816000865af19150503d8060008114614de6576040519150601f19603f3d011682016040523d82523d6000602084013e614deb565b606091505b5091509150818015614e19575080511580614e195750808060200190516020811015614e1657600080fd5b50515b614e50576040805162461bcd60e51b815260206004820152600360248201526229aa2360e91b604482015290519081900360640190fd5b505050505050565b6000612710815b8351811015614fda5780614ed55760006001600160a01b0316848281518110614e8457fe5b6020026020010151602001516001600160a01b031614614ed0576040805162461bcd60e51b81526020600482015260026024820152612b2960f11b604482015290519081900360640190fd5b614f39565b60006001600160a01b0316848281518110614eec57fe5b6020026020010151602001516001600160a01b03161415614f39576040805162461bcd60e51b81526020600482015260026024820152612b2960f11b604482015290519081900360640190fd5b838181518110614f4557fe5b60200260200101516000015161ffff1683830361ffff161015614f94576040805162461bcd60e51b8152602060048201526002602482015261545360f01b604482015290519081900360640190fd5b614fb585858381518110614fa457fe5b602002602001015160400151615807565b838181518110614fc157fe5b6020908102919091010151519290920191600101614e5f565b508061ffff168261ffff1614611818576040805162461bcd60e51b8152602060048201526002602482015261545360f01b604482015290519081900360640190fd5b6150c2816040516024018080602001828103825283818151815260200191508051906020019080838360005b83811015615060578181015183820152602001615048565b50505050905090810190601f16801561508d5780820380516001836020036101000a031916815260200191505b5060408051601f198184030181529190526020810180516001600160e01b031663104c13eb60e21b1790529250615640915050565b50565b6150d08484846141c8565b6150dc848484846159bf565b6118185760405162461bcd60e51b81526004018080602001828103825260328152602001806172cf6032913960400191505060405180910390fd5b60608161513c57506040805180820190915260018152600360fc1b6020820152610cad565b8160005b811561515457600101600a82049150615140565b6000816001600160401b038111801561516c57600080fd5b506040519080825280601f01601f191660200182016040528015615197576020820181803683370190505b50859350905060001982015b83156151e857600a840660300160f81b828280600190039350815181106151c657fe5b60200101906001600160f81b031916908160001a905350600a840493506151a3565b50949350505050565b600a805482151560ff19909116811790915560408051918252517fa34710d73859085b6fee7b99a381be6ee8c07b2b66605c250a0b71cd9740a4749181900360200190a150565b600e546001600160a01b038581166101009092041614801561525a5750804710155b1561535457600e60019054906101000a90046001600160a01b03166001600160a01b031663d0e30db0826040518263ffffffff1660e01b81526004016000604051808303818588803b1580156152af57600080fd5b505af11580156152c3573d6000803e3d6000fd5b5050600e546040805163a9059cbb60e01b81526001600160a01b038881166004830152602482018890529151610100909304909116945063a9059cbb935060448082019350602092918290030181600087803b15801561532257600080fd5b505af1158015615336573d6000803e3d6000fd5b505050506040513d602081101561534c57600080fd5b506118189050565b6001600160a01b03831630141561537557615370848383614628565b611818565b61181884848484614d00565b6000818152600d60205260408120805460018201906001600160801b0316835b82548110156154715760008382815481106153b857fe5b600091825260209091200180549091506201000090046001600160401b03164210156153e45750615471565b805442600160501b9091046001600160401b0316101561542357805461541a9061ffff166001600160801b038516612710613f04565b86019550615468565b8054615463906001600160801b0361ffff8216860216906001600160401b0362010000820481164281900392600160501b90048216036127100216613f04565b860195505b506001016153a1565b50505050919050565b6000836001600160a01b0316856001600160a01b0316111561549a579293925b6fffffffffffffffffffffffffffffffff60601b606084901b166001600160a01b0386860381169087166154cd57600080fd5b836154fd57866001600160a01b03166154f08383896001600160a01b0316613f04565b816154f757fe5b04615523565b6155236155148383896001600160a01b0316615b27565b886001600160a01b0316615b61565b979650505050505050565b6000836001600160a01b0316856001600160a01b0316111561554e579293925b8161557b57615576836001600160801b03168686036001600160a01b0316600160601b613f04565b614cba565b614cba836001600160801b03168686036001600160a01b0316600160601b615b27565b6000610ed78383615b6c565b60006141c084846001600160a01b038516615bb6565b6000610ed78383615c4d565b5490565b6000610ed78383615c65565b8154600090821061561e5760405162461bcd60e51b81526004018080602001828103825260228152602001806172716022913960400191505060405180910390fd5b82600001828154811061562d57fe5b9060005260206000200154905092915050565b80516a636f6e736f6c652e6c6f67602083016000808483855afa5050505050565b6000610ed7836001600160a01b038416615b6c565b6000610ed7836001600160a01b038416615c4d565b8154600090819083106156cf5760405162461bcd60e51b815260040180806020018281038252602281526020018061746b6022913960400191505060405180910390fd5b60008460000184815481106156e057fe5b906000526020600020906002020190508060000154816001015492509250509250929050565b6000610ed78383615d2b565b600082815260018401602052604081205482816157ad5760405162461bcd60e51b81526004018080602001828103825283818151815260200191508051906020019080838360005b8381101561577257818101518382015260200161575a565b50505050905090810190601f16801561579f5780820380516001836020036101000a031916815260200191505b509250505060405180910390fd5b508460000160018203815481106157c057fe5b9060005260206000209060020201600101549150509392505050565b6000610ed7836001600160a01b038416615c65565b806001600160801b0381168114610cad57600080fd5b816001600160401b03168160008151811061581e57fe5b6020026020010151602001516001600160401b0316101561586b576040805162461bcd60e51b8152602060048201526002602482015261159560f21b604482015290519081900360640190fd5b8051612710906000908190815b8181101561597d57826001600160401b031686828151811061589657fe5b6020026020010151602001516001600160401b031610156158e3576040805162461bcd60e51b8152602060048201526002602482015261159560f21b604482015290519081900360640190fd5b8581815181106158ef57fe5b602002602001015160400151925085818151811061590957fe5b60200260200101516000015161ffff1684860361ffff161015615958576040805162461bcd60e51b8152602060048201526002602482015261565360f01b604482015290519081900360640190fd5b85818151811061596457fe5b6020908102919091010151519390930192600101615878565b508361ffff168361ffff1614614e50576040805162461bcd60e51b8152602060048201526002602482015261565360f01b604482015290519081900360640190fd5b60006159d3846001600160a01b0316615dff565b6159df575060016141c0565b6000615aed630a85bd0160e11b6159f46140a7565b88878760405160240180856001600160a01b03168152602001846001600160a01b0316815260200183815260200180602001828103825283818151815260200191508051906020019080838360005b83811015615a5b578181015183820152602001615a43565b50505050905090810190601f168015615a885780820380516001836020036101000a031916815260200191505b5095505050505050604051602081830303815290604052906001600160e01b0319166020820180516001600160e01b0383818316178352505050506040518060600160405280603281526020016172cf603291396001600160a01b0388169190615e05565b90506000818060200190516020811015615b0657600080fd5b50516001600160e01b031916630a85bd0160e11b1492505050949350505050565b6000615b34848484613f04565b905060008280615b4057fe5b8486091115613fad576000198110615b5757600080fd5b6001019392505050565b808204910615150190565b6000615b788383615c4d565b615bae57508154600181810184556000848152602080822090930184905584548482528286019093526040902091909155610eda565b506000610eda565b600082815260018401602052604081205480615c1b575050604080518082018252838152602080820184815286546001818101895560008981528481209551600290930290950191825591519082015586548684528188019092529290912055613fad565b82856000016001830381548110615c2e57fe5b9060005260206000209060020201600101819055506000915050613fad565b60009081526001919091016020526040902054151590565b60008181526001830160205260408120548015615d215783546000198083019190810190600090879083908110615c9857fe5b9060005260206000200154905080876000018481548110615cb557fe5b600091825260208083209091019290925582815260018981019092526040902090840190558654879080615ce557fe5b60019003818190600052602060002001600090559055866001016000878152602001908152602001600020600090556001945050505050610eda565b6000915050610eda565b60008181526001830160205260408120548015615d215783546000198083019190810190600090879083908110615d5e57fe5b9060005260206000209060020201905080876000018481548110615d7e57fe5b600091825260208083208454600290930201918255600193840154918401919091558354825289830190526040902090840190558654879080615dbd57fe5b6000828152602080822060026000199094019384020182815560019081018390559290935588815289820190925260408220919091559450610eda9350505050565b3b151590565b60606141c0848460008585615e1985615dff565b615e6a576040805162461bcd60e51b815260206004820152601d60248201527f416464726573733a2063616c6c20746f206e6f6e2d636f6e7472616374000000604482015290519081900360640190fd5b600080866001600160a01b031685876040518082805190602001908083835b60208310615ea85780518252601f199092019160209182019101615e89565b6001836020036101000a03801982511681845116808217855250505050505090500191505060006040518083038185875af1925050503d8060008114615f0a576040519150601f19603f3d011682016040523d82523d6000602084013e615f0f565b606091505b509150915061552382828660608315615f29575081613fad565b825115615f395782518084602001fd5b60405162461bcd60e51b815260206004820181815284516024840152845185939192839260440191908501908083836000831561577257818101518382015260200161575a565b50805460008255906000526020600020908101906150c29190616090565b82805482825590600052602060002090810192821561603c5760005260206000209182015b8281111561603c578254825461ffff90911661ffff1990911617808355835469ffffffffffffffff00001990911662010000918290046001600160401b0390811690920217808455845467ffffffffffffffff60501b19909116600160501b918290049092160217825560019283019290910190615fc3565b50616048929150616090565b5090565b50805460018160011615610100020316600290046000825580601f1061607257506150c2565b601f0160209004906000526020600020908101906150c291906160ba565b5b8082111561604857805471ffffffffffffffffffffffffffffffffffff19168155600101616091565b5b8082111561604857600081556001016160bb565b8051610cad81617228565b60008083601f8401126160eb578182fd5b5081356001600160401b03811115616101578182fd5b60208301915083602080830285010111156147f657600080fd5b8051610cad8161723d565b600060608284031215616137578081fd5b604051606081018181106001600160401b038211171561615357fe5b8060405250809150825161616681617228565b8152602083015161617681617228565b6020820152616187604084016161b5565b60408201525092915050565b80516001600160801b0381168114610cad57600080fd5b8051610cad8161724b565b805162ffffff81168114610cad57600080fd5b8051610cad8161725b565b6000602082840312156161e4578081fd5b8135613fad81617228565b600060208284031215616200578081fd5b8151613fad81617228565b6000806040838503121561621d578081fd5b823561622881617228565b9150602083013561623881617228565b809150509250929050565b600080600060608486031215616257578081fd5b833561626281617228565b9250602084013561627281617228565b929592945050506040919091013590565b60008060008060808587031215616298578182fd5b84356162a381617228565b935060208501356162b381617228565b92506040850135915060608501356001600160401b038111156162d4578182fd5b8501601f810187136162e4578182fd5b80356162f76162f282616ead565b616e6d565b81815288602083850101111561630b578384fd5b81602084016020830137908101602001929092525092959194509250565b6000806040838503121561633b578182fd5b823561634681617228565b915060208301356162388161723d565b60008060408385031215616368578182fd5b823561637381617228565b946020939093013593505050565b60008060208385031215616393578182fd5b82356001600160401b038111156163a8578283fd5b6163b4858286016160da565b90969095509350505050565b6000602082840312156163d1578081fd5b8135613fad8161723d565b6000602082840312156163ed578081fd5b81356001600160e01b031981168114613fad578182fd5b600060208284031215616415578081fd5b81358060020b8114613fad578182fd5b600060208284031215616436578081fd5b81516001600160401b0381111561644b578182fd5b8201601f8101841361645b578182fd5b80516164696162f282616ead565b81815285602083850101111561647d578384fd5b614cba8260208301602086016170c3565b60006020828403121561649f578081fd5b81356001600160401b038111156164b4578182fd5b82016101608185031215613fad578182fd5b60006101c082840312156164d8578081fd5b6101806164e481616e6d565b6164ed846160cf565b81526164fb602085016160cf565b602082015261650c604085016160cf565b604082015261651d606085016161b5565b606082015261652e608085016160cf565b608082015261653f60a085016161c8565b60a082015261655060c085016161c8565b60c082015261656160e085016161aa565b60e08201526101006165748186016160cf565b9082015261012061658786868301616126565b908201526165968483016161aa565b6101408201526165a96101a085016161aa565b610160820152949350505050565b600080600080600080600080610100898b0312156165d3578586fd5b6165dc89616193565b9750602089015180600f0b81146165f1578687fd5b80975050604089015195506060890151945060808901518060060b8114616616578485fd5b60a08a015190945061662781617228565b60c08a015190935063ffffffff81168114616640578283fd5b915061664e60e08a0161611b565b90509295985092959890939650565b6000806040838503121561666f578182fd5b61667883616193565b915061668660208401616193565b90509250929050565b600080600080600060a086880312156166a6578283fd5b6166af86616193565b945060208601519350604086015192506166cb60608701616193565b91506166d960808701616193565b90509295509295909350565b6000602082840312156166f6578081fd5b5035919050565b60006020828403121561670e578081fd5b5051919050565b60008060408385031215616727578182fd5b82359150602083013561623881617228565b6000806040838503121561674b578182fd5b505080516020909101519092909150565b60008060008060608587031215616771578182fd5b843593506020850135925060408501356001600160401b0380821115616795578384fd5b818701915087601f8301126167a8578384fd5b8135818111156167b6578485fd5b8860208285010111156167c7578485fd5b95989497505060200194505050565b6000602082840312156167e7578081fd5b8135613fad8161725b565b60008284526020808501945082825b8581101561685e5781356168148161724b565b61ffff168752818301356168278161725b565b6001600160401b0390811688850152604090838201356168468161725b565b16908801526060968701969190910190600101616801565b509495945050505050565b818352602080840193600091908185020181018584845b878110156169395782840389528135605e198836030181126168a0578687fd5b8701606081356168af8161724b565b61ffff168652818701356168c281617228565b6001600160a01b03168688015260408281013536849003601e190181126168e757898afd5b830180356001600160401b038111156168fe578a8bfd5b838102360385131561690e578a8bfd5b83838a0152616922848a01828c85016167f2565b9d8a019d9850505093870193505050600101616880565b5091979650505050505050565b6000815180845261695e8160208601602086016170c3565b601f01601f19169290920160200192915050565b6001600160401b03169052565b6000828483379101908152919050565b6001600160a01b0391909116815260200190565b6001600160a01b03949094168452600292830b6020850152910b60408301526001600160801b0316606082015260a06080820181905260009082015260c00190565b6001600160a01b03959095168552600293840b60208601529190920b60408401526001600160801b03918216606084015216608082015260a00190565b6001600160a01b039390931683526001600160801b03918216602084015216604082015260600190565b6000602080830181845280855180835260408601915060408482028701019250838701855b82811015616a9f57603f19888603018452616a8d858351616946565b94509285019290850190600101616a71565b5092979650505050505050565b901515815260200190565b90815260200190565b60029190910b815260200190565b60006101208760020b83528660020b602084015285546040840152600186015460608401526002860154608084015260038601546001600160401b0380821660a0860152616b2460c08601828460401c16616972565b5050600486015460e084015280610100840152616b448184018587616869565b98975050505050505050565b600293840b81529190920b60208201526001600160801b03909116604082015260600190565b600060208252610ed76020830184616946565b602080825260029082015261554360f01b604082015260600190565b602080825260029082015261534160f01b604082015260600190565b6020808252600290820152615a4160f01b604082015260600190565b60208082526003908201526224a92360e91b604082015260600190565b602080825260029082015261141360f21b604082015260600190565b60208082526003908201526214139360ea1b604082015260600190565b60208082526002908201526114d560f21b604082015260600190565b602080825260029082015261554160f01b604082015260600190565b602080825260149082015273507269636520736c69707061676520636865636b60601b604082015260600190565b602080825260029082015261484360f01b604082015260600190565b60208082526003908201526214919560ea1b604082015260600190565b602080825260029082015261534360f01b604082015260600190565b6001600160801b0392831681529116602082015260400190565b6001600160801b039390931683526020830191909152604082015260600190565b6001600160801b0394909416845260208401929092526040830152606082015260800190565b92835260208301919091526001600160801b0316604082015260600190565b9182526001600160801b0316602082015260400190565b9586526001600160801b0394909416602086015260408501929092526060840152608083015260a082015260c00190565b918252602082015260400190565b6000808335601e19843603018112616dda578283fd5b8301803591506001600160401b03821115616df3578283fd5b60209081019250810236038213156147f657600080fd5b6000808335601e19843603018112616e20578283fd5b8301803591506001600160401b03821115616e39578283fd5b6020019150368190038213156147f657600080fd5b60008235605e19833603018112616e63578182fd5b9190910192915050565b6040518181016001600160401b0381118282101715616e8857fe5b604052919050565b60006001600160401b03821115616ea357fe5b5060209081020190565b60006001600160401b03821115616ec057fe5b50601f01601f191660200190565b60009081526020902090565b6000616ee86162f284616e90565b8381526020808201919084845b8781101561703457813587016060808236031215616f11578788fd5b604080518281016001600160401b038282108183111715616f2e57fe5b908352843590616f3d8261724b565b9082528488013590616f4e82617228565b818984015283860135915080821115616f65578b8cfd5b9481019436601f870112616f77578b8cfd5b85359150616f876162f283616e90565b82815289810190878b01368886028a018d011115616fa3578e8ffd5b8e98505b8489101561701557878136031215616fbd578e8ffd5b86518881018181108682111715616fd057fe5b88528135616fdd8161724b565b8152818d0135616fec8161725b565b818e015281880135616ffd8161725b565b81890152835260019890980197918b01918701616fa7565b5094840194909452505088525050509382019390820190600101616ef5565b50919695505050505050565b600160401b83111561704e57fe5b805483825580841015617085576000828152602081208581019083015b808210156170815782825560018201915061706b565b5050505b508161709082616ece565b6000805b868110156170ba576170a784838561719e565b6060939093019260019283019201617094565b50505050505050565b60005b838110156170de5781810151838201526020016170c6565b838111156118185750506000910152565b81356170fa8161724b565b617104818361718b565b50602082013561711381617228565b815462010000600160b01b03191660109190911b62010000600160b01b0316178155604082013536839003601e1901811261714d57600080fd5b820180356001600160401b0381111561716557600080fd5b60208201915060608102360382131561717d57600080fd5b611818818360018601617040565b61ffff821661ffff198254161781555050565b81156171a657fe5b82356171b18161724b565b6171bb818361718b565b5060208301356171ca8161725b565b815469ffffffffffffffff0000191660109190911b69ffffffffffffffff0000161780825560408401356171fd8161725b565b67ffffffffffffffff60501b199190911660509190911b67ffffffffffffffff60501b161790555050565b6001600160a01b03811681146150c257600080fd5b80151581146150c257600080fd5b61ffff811681146150c257600080fd5b6001600160401b03811681146150c257600080fdfe456e756d657261626c655365743a20696e646578206f7574206f6620626f756e6473546f74616c556e69416d6f756e74436f6c6c6563746564303a202573202c20546f74616c556e69416d6f756e74436f6c6c6563746564313a202573204552433732313a207472616e7366657220746f206e6f6e20455243373231526563656976657220696d706c656d656e7465724552433732313a207472616e7366657220746f20746865207a65726f20616464726573734275726e656430202d20506c6174666f726d204665653a202573202c204275726e656431202d20506c6174666f726d204665653a202573204552433732313a206f70657261746f7220717565727920666f72206e6f6e6578697374656e7420746f6b656e556e694275726e303a202573202c20556e694275726e313a202573202c204c697120436c61696d3a2025734552433732313a20617070726f76652063616c6c6572206973206e6f74206f776e6572206e6f7220617070726f76656420666f7220616c6c4552433732313a2062616c616e636520717565727920666f7220746865207a65726f20616464726573734552433732313a206f776e657220717565727920666f72206e6f6e6578697374656e7420746f6b656e416d6f756e743020666f7220557365723a202573202c20416d6f756e743120666f7220557365723a20257320456e756d657261626c654d61703a20696e646578206f7574206f6620626f756e64734552433732313a20617070726f76656420717565727920666f72206e6f6e6578697374656e7420746f6b656e4552433732313a207472616e73666572206f6620746f6b656e2074686174206973206e6f74206f776e4552433732314d657461646174613a2055524920717565727920666f72206e6f6e6578697374656e7420746f6b656e556e694275726e2b466565303a202573202c20556e694275726e2b466565313a202573204552433732313a20617070726f76616c20746f2063757272656e74206f776e65724552433732313a207472616e736665722063616c6c6572206973206e6f74206f776e6572206e6f7220617070726f766564416d6f756e74436f6c6c6563746564303a202573202c20416d6f756e74436f6c6c6563746564313a20257320556e6946656530202d2050657266204665653a202573202c20556e6946656531202d2050657266204665653a20257320506f732e204c69717569646974793a202573202c204c697175696469747920746f20436c61696d3a20257320a2646970667358221220379e66a24690281fd5b3dc30faf824adf8880e5e9002d53e8c2a6d61db8d98bd64736f6c63430007060033","linkReferences":{}},"methodIdentifiers":{"MANAGER()":"1b2df850","RAISE_TOKEN()":"4a315be4","SALE_TOKEN()":"b8ac77a4","SQRT_RATIO_X96()":"1347407a","TICK_LOWER()":"47377d92","TICK_UPPER()":"239f3af7","WETH9()":"4aa4a4fc","_cachedUniV3PoolAddress()":"d755fd61","approve(address,uint256)":"095ea7b3","balanceOf(address)":"70a08231","baseURI()":"6c0360eb","batchRemoveWhitelist(address[])":"7d8d4b8b","batchWhitelist(address[])":"39ee0661","buy(uint256,address)":"7deb6025","claim(uint256)":"379607f5","claimNew(uint256)":"63bc597a","claimOLD(uint256)":"b5616f00","claimProjectRefund(address)":"dfbd8eb0","claimRefund(uint256)":"5b7baf64","getApproved(uint256)":"081812fc","initialize((address,int24,int24,uint160,uint160,uint256,uint256,uint256,uint64,uint64,(uint16,address,(uint16,uint64,uint64)[])[]))":"9f2439e2","isApprovedForAll(address,address)":"e985e9c5","isOpenToAll()":"1a4d3456","isWhitelisted(address)":"3af32abf","launch()":"01339c21","multicall(bytes[])":"ac9650d8","name()":"06fdde03","ownerOf(uint256)":"6352211e","positions(uint256)":"99fbab88","safeTransferFrom(address,address,uint256)":"42842e0e","safeTransferFrom(address,address,uint256,bytes)":"b88d4fde","setApprovalForAll(address,bool)":"a22cb465","setOpenToAll(bool)":"ce245aed","someTest()":"5a435920","supportsInterface(bytes4)":"01ffc9a7","symbol()":"95d89b41","tokenByIndex(uint256)":"4f6ccce7","tokenOfOwnerByIndex(address,uint256)":"2f745c59","tokenURI(uint256)":"c87b56dd","totalSold()":"9106d7ba","totalSupply()":"18160ddd","transferFrom(address,address,uint256)":"23b872dd","uniswapV3MintCallback(uint256,uint256,bytes)":"d3487997","vestingStatus(uint256)":"ddba4713"},"id":60}