{"abi":[{"type":"constructor","inputs":[],"stateMutability":"nonpayable"},{"type":"function","name":"FEE_TAKER","inputs":[],"outputs":[{"name":"","type":"address","internalType":"address"}],"stateMutability":"view"},{"type":"function","name":"ILO_POOL_IMPLEMENTATION","inputs":[],"outputs":[{"name":"","type":"address","internalType":"address"}],"stateMutability":"view"},{"type":"function","name":"PERFORMANCE_FEE","inputs":[],"outputs":[{"name":"","type":"uint16","internalType":"uint16"}],"stateMutability":"view"},{"type":"function","name":"PLATFORM_FEE","inputs":[],"outputs":[{"name":"","type":"uint16","internalType":"uint16"}],"stateMutability":"view"},{"type":"function","name":"UNIV3_FACTORY","inputs":[],"outputs":[{"name":"","type":"address","internalType":"address"}],"stateMutability":"view"},{"type":"function","name":"WETH9","inputs":[],"outputs":[{"name":"","type":"address","internalType":"address"}],"stateMutability":"view"},{"type":"function","name":"claimRefund","inputs":[{"name":"uniV3PoolAddress","type":"address","internalType":"address"}],"outputs":[{"name":"totalRefundAmount","type":"uint256","internalType":"uint256"}],"stateMutability":"nonpayable"},{"type":"function","name":"initILOPool","inputs":[{"name":"params","type":"tuple","internalType":"struct IILOManager.InitPoolParams","components":[{"name":"uniV3Pool","type":"address","internalType":"address"},{"name":"tickLower","type":"int24","internalType":"int24"},{"name":"tickUpper","type":"int24","internalType":"int24"},{"name":"hardCap","type":"uint256","internalType":"uint256"},{"name":"softCap","type":"uint256","internalType":"uint256"},{"name":"maxCapPerUser","type":"uint256","internalType":"uint256"},{"name":"start","type":"uint64","internalType":"uint64"},{"name":"end","type":"uint64","internalType":"uint64"},{"name":"vestingConfigs","type":"tuple[]","internalType":"struct IILOVest.VestingConfig[]","components":[{"name":"shares","type":"uint16","internalType":"uint16"},{"name":"recipient","type":"address","internalType":"address"},{"name":"schedule","type":"tuple[]","internalType":"struct IILOVest.LinearVest[]","components":[{"name":"shares","type":"uint16","internalType":"uint16"},{"name":"start","type":"uint64","internalType":"uint64"},{"name":"end","type":"uint64","internalType":"uint64"}]}]}]}],"outputs":[{"name":"iloPoolAddress","type":"address","internalType":"address"}],"stateMutability":"nonpayable"},{"type":"function","name":"initProject","inputs":[{"name":"params","type":"tuple","internalType":"struct IILOManager.InitProjectParams","components":[{"name":"saleToken","type":"address","internalType":"address"},{"name":"raiseToken","type":"address","internalType":"address"},{"name":"fee","type":"uint24","internalType":"uint24"},{"name":"initialPoolPriceX96","type":"uint160","internalType":"uint160"},{"name":"launchTime","type":"uint64","internalType":"uint64"}]}],"outputs":[{"name":"uniV3PoolAddress","type":"address","internalType":"address"}],"stateMutability":"nonpayable"},{"type":"function","name":"initialize","inputs":[{"name":"initialOwner","type":"address","internalType":"address"},{"name":"_feeTaker","type":"address","internalType":"address"},{"name":"iloPoolImplementation","type":"address","internalType":"address"},{"name":"uniV3Factory","type":"address","internalType":"address"},{"name":"weth9","type":"address","internalType":"address"},{"name":"platformFee","type":"uint16","internalType":"uint16"},{"name":"performanceFee","type":"uint16","internalType":"uint16"}],"outputs":[],"stateMutability":"nonpayable"},{"type":"function","name":"launch","inputs":[{"name":"uniV3PoolAddress","type":"address","internalType":"address"}],"outputs":[],"stateMutability":"nonpayable"},{"type":"function","name":"owner","inputs":[],"outputs":[{"name":"","type":"address","internalType":"address"}],"stateMutability":"view"},{"type":"function","name":"project","inputs":[{"name":"uniV3PoolAddress","type":"address","internalType":"address"}],"outputs":[{"name":"","type":"tuple","internalType":"struct IILOManager.Project","components":[{"name":"admin","type":"address","internalType":"address"},{"name":"saleToken","type":"address","internalType":"address"},{"name":"raiseToken","type":"address","internalType":"address"},{"name":"fee","type":"uint24","internalType":"uint24"},{"name":"initialPoolPriceX96","type":"uint160","internalType":"uint160"},{"name":"launchTime","type":"uint64","internalType":"uint64"},{"name":"refundDeadline","type":"uint64","internalType":"uint64"},{"name":"investorShares","type":"uint16","internalType":"uint16"},{"name":"uniV3PoolAddress","type":"address","internalType":"address"},{"name":"_cachedPoolKey","type":"tuple","internalType":"struct PoolAddress.PoolKey","components":[{"name":"token0","type":"address","internalType":"address"},{"name":"token1","type":"address","internalType":"address"},{"name":"fee","type":"uint24","internalType":"uint24"}]},{"name":"platformFee","type":"uint16","internalType":"uint16"},{"name":"performanceFee","type":"uint16","internalType":"uint16"}]}],"stateMutability":"view"},{"type":"function","name":"renounceOwnership","inputs":[],"outputs":[],"stateMutability":"nonpayable"},{"type":"function","name":"setDefaultDeadlineOffset","inputs":[{"name":"defaultDeadlineOffset","type":"uint64","internalType":"uint64"}],"outputs":[],"stateMutability":"nonpayable"},{"type":"function","name":"setFeeTaker","inputs":[{"name":"_feeTaker","type":"address","internalType":"address"}],"outputs":[],"stateMutability":"nonpayable"},{"type":"function","name":"setILOPoolImplementation","inputs":[{"name":"iloPoolImplementation","type":"address","internalType":"address"}],"outputs":[],"stateMutability":"nonpayable"},{"type":"function","name":"setPerformanceFee","inputs":[{"name":"_performanceFee","type":"uint16","internalType":"uint16"}],"outputs":[],"stateMutability":"nonpayable"},{"type":"function","name":"setPlatformFee","inputs":[{"name":"_platformFee","type":"uint16","internalType":"uint16"}],"outputs":[],"stateMutability":"nonpayable"},{"type":"function","name":"setRefundDeadlineForProject","inputs":[{"name":"uniV3Pool","type":"address","internalType":"address"},{"name":"refundDeadline","type":"uint64","internalType":"uint64"}],"outputs":[],"stateMutability":"nonpayable"},{"type":"function","name":"transferAdminProject","inputs":[{"name":"admin","type":"address","internalType":"address"},{"name":"uniV3Pool","type":"address","internalType":"address"}],"outputs":[],"stateMutability":"nonpayable"},{"type":"function","name":"transferOwnership","inputs":[{"name":"newOwner","type":"address","internalType":"address"}],"outputs":[],"stateMutability":"nonpayable"},{"type":"event","name":"DefaultDeadlineOffsetChanged","inputs":[{"name":"owner","type":"address","indexed":true,"internalType":"address"},{"name":"oldDeadlineOffset","type":"uint64","indexed":false,"internalType":"uint64"},{"name":"newDeadlineOffset","type":"uint64","indexed":false,"internalType":"uint64"}],"anonymous":false},{"type":"event","name":"ILOPoolCreated","inputs":[{"name":"uniV3PoolAddress","type":"address","indexed":true,"internalType":"address"},{"name":"iloPoolAddress","type":"address","indexed":true,"internalType":"address"},{"name":"index","type":"uint256","indexed":false,"internalType":"uint256"}],"anonymous":false},{"type":"event","name":"OwnershipTransferred","inputs":[{"name":"previousOwner","type":"address","indexed":true,"internalType":"address"},{"name":"newOwner","type":"address","indexed":true,"internalType":"address"}],"anonymous":false},{"type":"event","name":"PoolImplementationChanged","inputs":[{"name":"oldPoolImplementation","type":"address","indexed":true,"internalType":"address"},{"name":"newPoolImplementation","type":"address","indexed":true,"internalType":"address"}],"anonymous":false},{"type":"event","name":"ProjectAdminChanged","inputs":[{"name":"uniV3PoolAddress","type":"address","indexed":true,"internalType":"address"},{"name":"oldAdmin","type":"address","indexed":false,"internalType":"address"},{"name":"newAdmin","type":"address","indexed":false,"internalType":"address"}],"anonymous":false},{"type":"event","name":"ProjectCreated","inputs":[{"name":"uniV3PoolAddress","type":"address","indexed":true,"internalType":"address"},{"name":"project","type":"tuple","indexed":false,"internalType":"struct IILOManager.Project","components":[{"name":"admin","type":"address","internalType":"address"},{"name":"saleToken","type":"address","internalType":"address"},{"name":"raiseToken","type":"address","internalType":"address"},{"name":"fee","type":"uint24","internalType":"uint24"},{"name":"initialPoolPriceX96","type":"uint160","internalType":"uint160"},{"name":"launchTime","type":"uint64","internalType":"uint64"},{"name":"refundDeadline","type":"uint64","internalType":"uint64"},{"name":"investorShares","type":"uint16","internalType":"uint16"},{"name":"uniV3PoolAddress","type":"address","internalType":"address"},{"name":"_cachedPoolKey","type":"tuple","internalType":"struct PoolAddress.PoolKey","components":[{"name":"token0","type":"address","internalType":"address"},{"name":"token1","type":"address","internalType":"address"},{"name":"fee","type":"uint24","internalType":"uint24"}]},{"name":"platformFee","type":"uint16","internalType":"uint16"},{"name":"performanceFee","type":"uint16","internalType":"uint16"}]}],"anonymous":false},{"type":"event","name":"ProjectLaunch","inputs":[{"name":"uniV3PoolAddress","type":"address","indexed":true,"internalType":"address"}],"anonymous":false},{"type":"event","name":"ProjectRefund","inputs":[{"name":"project","type":"address","indexed":true,"internalType":"address"},{"name":"refundAmount","type":"uint256","indexed":false,"internalType":"uint256"}],"anonymous":false},{"type":"event","name":"RefundDeadlineChanged","inputs":[{"name":"project","type":"address","indexed":true,"internalType":"address"},{"name":"oldRefundDeadline","type":"uint64","indexed":false,"internalType":"uint64"},{"name":"newRefundDeadline","type":"uint64","indexed":false,"internalType":"uint64"}],"anonymous":false}],"bytecode":{"object":"0x608060405260028054600160a01b600160e01b03191661127560a71b1790553480156200002b57600080fd5b5060006200003862000082565b600080546001600160a01b0319166001600160a01b03831690811782556040519293509160008051602062002bc8833981519152908290a3506200007c3262000086565b6200019f565b3390565b6200009062000082565b6001600160a01b0316620000a362000190565b6001600160a01b031614620000ff576040805162461bcd60e51b815260206004820181905260248201527f4f776e61626c653a2063616c6c6572206973206e6f7420746865206f776e6572604482015290519081900360640190fd5b6001600160a01b038116620001465760405162461bcd60e51b815260040180806020018281038252602681526020018062002ba26026913960400191505060405180910390fd5b600080546040516001600160a01b038085169392169160008051602062002bc883398151915291a3600080546001600160a01b0319166001600160a01b0392909216919091179055565b6000546001600160a01b031690565b6129f380620001af6000396000f3fe608060405234801561001057600080fd5b50600436106101425760003560e01c8063881501e3116100b8578063c80b85001161007c578063c80b850014610269578063d9739d161461027c578063e15264191461028f578063e93f5665146102a2578063f2fde38b146102aa578063f41a295d146102bd57610142565b8063881501e3146102135780638da5cb5b1461021b578063a2e53a7f14610223578063aa290e6d14610236578063bffa55d51461024957610142565b8063552e94a91161010a578063552e94a9146101b55780635cbc742c146101bd578063643e6fd3146101d0578063715018a6146101e35780637a89cdd3146101eb578063838134b6146101f357610142565b80630f2a674014610147578063214013ca1461017057806334fbc9a1146101855780634aa4a4fc1461019a5780634ec5908d146101a2575b600080fd5b61015a61015536600461200b565b6102d0565b60405161016791906122e2565b60405180910390f35b61018361017e366004611eaf565b61073f565b005b61018d610993565b604051610167919061270e565b61015a6109a4565b6101836101b0366004611eaf565b6109b3565b61015a610a37565b6101836101cb36600461205a565b610a46565b6101836101de366004612145565b610aca565b610183610bb8565b61015a610c64565b610206610201366004611eaf565b610c73565b6040516101679190612507565b61015a610d7c565b61015a610d8b565b61015a610231366004612043565b610d9a565b61018361024436600461205a565b610edb565b61025c610257366004611eaf565b610f60565b604051610167919061271d565b610183610277366004611eaf565b611120565b61018361028a366004611eee565b6111de565b61018361029d366004611f26565b611287565b61018d61134d565b6101836102b8366004611eaf565b61135e565b6101836102cb366004611fbb565b611460565b60006102df6020830183611eaf565b6001600160a01b038181166000908152600560205260409020541633146103215760405162461bcd60e51b8152600401610318906123c9565b60405180910390fd5b60006005816103336020870187611eaf565b6001600160a01b03908116825260208201929092526040016000206004810154909250600160501b90041661037a5760405162461bcd60e51b815260040161031890612402565b61038b610100850160e08601612145565b6001600160401b03166103a460e0860160c08701612145565b6001600160401b03161080156103e657506003810154600160a01b90046001600160401b03166103db610100860160e08701612145565b6001600160401b0316105b6104025760405162461bcd60e51b815260040161031890612356565b600061040c61154a565b6104196020870187611eaf565b6006600061042a60208a018a611eaf565b6001600160a01b031681526020808201929092526040908101600020549051610455949392016122ba565b60408051601f198184030181529190528051602090910120600454909150610486906001600160a01b03168261154e565b60048301549094506001600160a01b0380861691600160501b9004167f2381f1db74d535b324bbaff14b95d6a9ba95c1a8d6d07738f258f597029a5499600660006104d460208b018b611eaf565b6001600160a01b03168152602081019190915260409081016000205490516104fc919061271d565b60405180910390a3600061051e6105196040880160208901611fef565b6115f9565b905060006105356105196060890160408a01611fef565b60038501549091506001600160a01b039081169083161080156105695750806001600160a01b0316826001600160a01b0316105b6105855760405162461bcd60e51b8152600401610318906123aa565b604080516101608101909152600090806105a260208b018b611eaf565b6001600160a01b031681526020018960200160208101906105c39190611fef565b60020b81526020016105db60608b0160408c01611fef565b60020b8152602001846001600160a01b03168152602001836001600160a01b0316815260200189606001358152602001896080013581526020018960a0013581526020018960c00160208101906106329190612145565b6001600160401b031681526020016106516101008b0160e08c01612145565b6001600160401b0316815260200161066d6101008b018b612740565b610676916127d9565b9052604051634f921cf160e11b81529091506001600160a01b03881690639f2439e2906106a790849060040161243a565b600060405180830381600087803b1580156106c157600080fd5b505af11580156106d5573d6000803e3d6000fd5b5060069250600091506106ed905060208b018b611eaf565b6001600160a01b03908116825260208083019390935260409091016000908120805460018101825590825292902090910180546001600160a01b03191691891691909117905550949695505050505050565b6001600160a01b038116600090815260056020526040902060030154600160a01b90046001600160401b031642116107895760405162461bcd60e51b815260040161031890612372565b6000816001600160a01b0316633850c7bd6040518163ffffffff1660e01b815260040160e06040518083038186803b1580156107c457600080fd5b505afa1580156107d8573d6000803e3d6000fd5b505050506040513d601f19601f820116820180604052508101906107fc9190612076565b505050506001600160a01b03858116600090815260056020526040902060030154939450848116931692909214915061084990505760405162461bcd60e51b815260040161031890612338565b6001600160a01b0382166000908152600660209081526040808320805482518185028101850190935280835291929091908301828280156108b357602002820191906000526020600020905b81546001600160a01b03168152600190910190602001808311610895575b5050505050905060008151116108db5760405162461bcd60e51b81526004016103189061241e565b60005b8151811015610959578181815181106108f357fe5b60200260200101516001600160a01b03166301339c216040518163ffffffff1660e01b8152600401600060405180830381600087803b15801561093557600080fd5b505af1158015610949573d6000803e3d6000fd5b5050600190920191506108de9050565b506040516001600160a01b038416907fc19640e7134a81ace4b7c471e3a4bf9717ef94be7b32a97ee3ba339463da6b2e90600090a2505050565b600254600160e01b900461ffff1681565b6002546001600160a01b031681565b6109bb61192b565b6001600160a01b03166109cc610d8b565b6001600160a01b031614610a15576040805162461bcd60e51b8152602060048201819052602482015260008051602061299e833981519152604482015290519081900360640190fd5b600380546001600160a01b0319166001600160a01b0392909216919091179055565b6003546001600160a01b031681565b610a4e61192b565b6001600160a01b0316610a5f610d8b565b6001600160a01b031614610aa8576040805162461bcd60e51b8152602060048201819052602482015260008051602061299e833981519152604482015290519081900360640190fd5b6002805461ffff909216600160e01b0261ffff60e01b19909216919091179055565b610ad261192b565b6001600160a01b0316610ae3610d8b565b6001600160a01b031614610b2c576040805162461bcd60e51b8152602060048201819052602482015260008051602061299e833981519152604482015290519081900360640190fd5b610b34610d8b565b6001600160a01b03167f1eaa9862d39854f680c8a3de8406fc35fe05e04202a4caa7c59ce476836709ec600260149054906101000a90046001600160401b031683604051610b83929190612726565b60405180910390a2600280546001600160401b03909216600160a01b0267ffffffffffffffff60a01b19909216919091179055565b610bc061192b565b6001600160a01b0316610bd1610d8b565b6001600160a01b031614610c1a576040805162461bcd60e51b8152602060048201819052602482015260008051602061299e833981519152604482015290519081900360640190fd5b600080546040516001600160a01b03909116907f8be0079c531659141344cd1fd0a4f28419497f9722a3daafe3b4186f6b6457e0908390a3600080546001600160a01b0319169055565b6001546001600160a01b031681565b610c7b611e0e565b506001600160a01b03808216600090815260056020818152604092839020835161018081018552815486168152600182015486168184015260028201548087168287015262ffffff600160a01b9182900481166060808501919091526003850154808a1660808601526001600160401b0390849004811660a0860152600486015490811660c086015261ffff680100000000000000008204811660e0870152600160501b9091048a16610100860152885191820189529685015489168152600685015498891695810195909552960490951693820193909352610120840152600790910154808216610140840152620100009004166101608201525b919050565b6004546001600160a01b031681565b6000546001600160a01b031690565b60008054600160a01b900460ff16610db157600080fd5b600254600090600160a01b90046001600160401b0316610dd760a0850160808601612145565b0190506000610e11610dec6020860186611eaf565b610dfc6040870160208801611eaf565b610e0c606088016040890161210a565b61192f565b9050610e2c81610e276080870160608801611eaf565b611985565b9250610e8583610e3f6020870187611eaf565b610e4f6040880160208901611eaf565b610e5f6060890160408a0161210a565b610e6f60808a0160608b01611eaf565b610e7f60a08b0160808c01612145565b88611c43565b6001600160a01b0383166000818152600560205260409081902090517f4a132cdc977ea04e370eaebc5df7593a65058b3ee18b2164ea3c4fead7c0a3d891610ecc916125f3565b60405180910390a25050919050565b610ee361192b565b6001600160a01b0316610ef4610d8b565b6001600160a01b031614610f3d576040805162461bcd60e51b8152602060048201819052602482015260008051602061299e833981519152604482015290519081900360640190fd5b6002805461ffff909216600160f01b026001600160f01b03909216919091179055565b6001600160a01b0380821660009081526005602052604081205490918391163314610f9d5760405162461bcd60e51b8152600401610318906123c9565b6001600160a01b038316600090815260056020526040902060040154426001600160401b0390911610610fe25760405162461bcd60e51b8152600401610318906123e5565b6001600160a01b03831660009081526006602090815260408083208054825181850281018501909352808352919290919083018282801561104c57602002820191906000526020600020905b81546001600160a01b0316815260019091019060200180831161102e575b5050505050905060005b81518110156111185781818151811061106b57fe5b6020908102919091018101516001600160a01b0387811660009081526005909352604092839020549251630dfbd8eb60e41b81529181169263dfbd8eb0926110ba9291909116906004016122e2565b602060405180830381600087803b1580156110d457600080fd5b505af11580156110e8573d6000803e3d6000fd5b505050506040513d601f19601f8201168201806040525081019061110c919061212d565b90930192600101611056565b505050919050565b61112861192b565b6001600160a01b0316611139610d8b565b6001600160a01b031614611182576040805162461bcd60e51b8152602060048201819052602482015260008051602061299e833981519152604482015290519081900360640190fd5b6004546040516001600160a01b038084169216907fa25722a1a181c15cdfb0dd53b032dbef57c67131277e8a05f9ff33d17f4e28aa90600090a3600480546001600160a01b0319166001600160a01b0392909216919091179055565b6001600160a01b0380821660009081526005602052604090205482911633146112195760405162461bcd60e51b8152600401610318906123c9565b6001600160a01b038281166000818152600560205260409081902080546001600160a01b031916938716939093178355517f826f925bad013c7f7ba208af8e885b00b4838c2bf548ea4878a7f9926f71711b9061127990339088906122f6565b60405180910390a250505050565b600054600160a01b900460ff161561129e57600080fd5b6002805461ffff838116600160f01b026001600160f01b03918616600160e01b0261ffff60e01b199093169290921716179055600380546001600160a01b0388166001600160a01b03199091161790556112f78761135e565b5050600180546001600160a01b03199081166001600160a01b039485161790915560048054821694841694909417909355600280549093169116179055505060008054600160a01b60ff60a01b19909116179055565b600254600160f01b900461ffff1681565b61136661192b565b6001600160a01b0316611377610d8b565b6001600160a01b0316146113c0576040805162461bcd60e51b8152602060048201819052602482015260008051602061299e833981519152604482015290519081900360640190fd5b6001600160a01b0381166114055760405162461bcd60e51b81526004018080602001828103825260268152602001806129786026913960400191505060405180910390fd5b600080546040516001600160a01b03808516939216917f8be0079c531659141344cd1fd0a4f28419497f9722a3daafe3b4186f6b6457e091a3600080546001600160a01b0319166001600160a01b0392909216919091179055565b61146861192b565b6001600160a01b0316611479610d8b565b6001600160a01b0316146114c2576040805162461bcd60e51b8152602060048201819052602482015260008051602061299e833981519152604482015290519081900360640190fd5b6001600160a01b03821660008181526005602052604090819020600481015491519092917f66eee6815c58499123c04371dcd1626be58265e658d9b05f94e0bd218a1636489161151d916001600160401b0316908690612726565b60405180910390a2600401805467ffffffffffffffff19166001600160401b039290921691909117905550565b4690565b6000604051733d602d80600a3d3981f3363d3d373d3d3d363d7360601b81528360601b60148201526e5af43d82803e903d91602b57fd5bf360881b6028820152826037826000f59150506001600160a01b0381166115f3576040805162461bcd60e51b815260206004820152601760248201527f455243313136373a2063726561746532206661696c6564000000000000000000604482015290519081900360640190fd5b92915050565b60008060008360020b12611610578260020b611618565b8260020b6000035b9050620d89e8811115611656576040805162461bcd60e51b81526020600482015260016024820152601560fa1b604482015290519081900360640190fd5b60006001821661166a57600160801b61167c565b6ffffcb933bd6fad37aa2d162d1a5940015b70ffffffffffffffffffffffffffffffffff16905060028216156116b0576ffff97272373d413259a46990580e213a0260801c5b60048216156116cf576ffff2e50f5f656932ef12357cf3c7fdcc0260801c5b60088216156116ee576fffe5caca7e10e4e61c3624eaa0941cd00260801c5b601082161561170d576fffcb9843d60f6159c9db58835c9266440260801c5b602082161561172c576fff973b41fa98c081472e6896dfb254c00260801c5b604082161561174b576fff2ea16466c96a3843ec78b326b528610260801c5b608082161561176a576ffe5dee046a99a2a811c461f1969c30530260801c5b61010082161561178a576ffcbe86c7900a88aedcffc83b479aa3a40260801c5b6102008216156117aa576ff987a7253ac413176f2b074cf7815e540260801c5b6104008216156117ca576ff3392b0822b70005940c7a398e4b70f30260801c5b6108008216156117ea576fe7159475a2c29b7443b29c7fa6e889d90260801c5b61100082161561180a576fd097f3bdfd2022b8845ad8f792aa58250260801c5b61200082161561182a576fa9f746462d870fdf8a65dc1f90e061e50260801c5b61400082161561184a576f70d869a156d2a1b890bb3df62baf32f70260801c5b61800082161561186a576f31be135f97d08fd981231505542fcfa60260801c5b6201000082161561188b576f09aa508b5b7a84e1c677de54f3e99bc90260801c5b620200008216156118ab576e5d6af8dedb81196699c329225ee6040260801c5b620400008216156118ca576d2216e584f5fa1ea926041bedfe980260801c5b620800008216156118e7576b048a170391f7dc42444e8fa20260801c5b60008460020b13156119025780600019816118fe57fe5b0490505b640100000000810615611916576001611919565b60005b60ff16602082901c0192505050919050565b3390565b611937611e78565b826001600160a01b0316846001600160a01b03161115611955579192915b50604080516060810182526001600160a01b03948516815292909316602083015262ffffff169181019190915290565b600154825160208401516040808601519051630b4c774160e11b81526000946001600160a01b031693631698ee82936119c5939192909190600401612310565b60206040518083038186803b1580156119dd57600080fd5b505afa1580156119f1573d6000803e3d6000fd5b505050506040513d601f19601f82011682018060405250810190611a159190611ed2565b90506001600160a01b038116611b1b5760015483516020850151604080870151905163a167129560e01b81526001600160a01b039094169363a167129593611a639390929091600401612310565b602060405180830381600087803b158015611a7d57600080fd5b505af1158015611a91573d6000803e3d6000fd5b505050506040513d601f19601f82011682018060405250810190611ab59190611ed2565b60405163f637731d60e01b81529091506001600160a01b0382169063f637731d90611ae49085906004016122e2565b600060405180830381600087803b158015611afe57600080fd5b505af1158015611b12573d6000803e3d6000fd5b505050506115f3565b6000816001600160a01b0316633850c7bd6040518163ffffffff1660e01b815260040160e06040518083038186803b158015611b5657600080fd5b505afa158015611b6a573d6000803e3d6000fd5b505050506040513d601f19601f82011682018060405250810190611b8e9190612076565b5050505050509050806001600160a01b031660001415611c0b5760405163f637731d60e01b81526001600160a01b0383169063f637731d90611bd49086906004016122e2565b600060405180830381600087803b158015611bee57600080fd5b505af1158015611c02573d6000803e3d6000fd5b50505050611c3c565b826001600160a01b0316816001600160a01b031614611c3c5760405162461bcd60e51b815260040161031890612338565b5092915050565b6001600160a01b03808816600090815260056020526040902060048101549091600160501b9091041615611c895760405162461bcd60e51b81526004016103189061238e565b60028054600783018054600160e01b90920461ffff90811661ffff1990931692909217808255835463ffff000019909116600160f01b90910490921662010000029190911790558154336001600160a01b031991821617835560018301805482166001600160a01b038b811691909117909155918301805482168984161762ffffff60a01b1916600160a01b62ffffff8a168102919091179091556003840180549092168784161767ffffffffffffffff60a01b19166001600160401b038781169092021790915560048301805467ffffffffffffffff1916918516919091177fffff0000000000000000000000000000000000000000ffffffffffffffffffff16600160501b928b1692909202919091179055611da887878761192f565b80516005830180546001600160a01b03199081166001600160a01b039384161790915560208301516006909401805460409094015193909116939091169290921762ffffff60a01b1916600160a01b62ffffff9092169190910217905550505050505050565b6040805161018081018252600080825260208201819052918101829052606081018290526080810182905260a0810182905260c0810182905260e081018290526101008101919091526101208101611e64611e78565b815260006020820181905260409091015290565b604080516060810182526000808252602082018190529181019190915290565b80356001600160401b0381168114610d7757600080fd5b600060208284031215611ec0578081fd5b8135611ecb81612940565b9392505050565b600060208284031215611ee3578081fd5b8151611ecb81612940565b60008060408385031215611f00578081fd5b8235611f0b81612940565b91506020830135611f1b81612940565b809150509250929050565b600080600080600080600060e0888a031215611f40578283fd5b8735611f4b81612940565b96506020880135611f5b81612940565b95506040880135611f6b81612940565b94506060880135611f7b81612940565b93506080880135611f8b81612940565b925060a0880135611f9b81612967565b915060c0880135611fab81612967565b8091505092959891949750929550565b60008060408385031215611fcd578182fd5b8235611fd881612940565b9150611fe660208401611e98565b90509250929050565b600060208284031215612000578081fd5b8135611ecb81612958565b60006020828403121561201c578081fd5b81356001600160401b03811115612031578182fd5b82016101208185031215611ecb578182fd5b600060a08284031215612054578081fd5b50919050565b60006020828403121561206b578081fd5b8135611ecb81612967565b600080600080600080600060e0888a031215612090578081fd5b875161209b81612940565b60208901519097506120ac81612958565b60408901519096506120bd81612967565b60608901519095506120ce81612967565b60808901519094506120df81612967565b60a089015190935060ff811681146120f5578182fd5b60c08901519092508015158114611fab578182fd5b60006020828403121561211b578081fd5b813562ffffff81168114611ecb578182fd5b60006020828403121561213e578081fd5b5051919050565b600060208284031215612156578081fd5b611ecb82611e98565b6001600160a01b03169052565b6000815180845260208085019450848183028601828601855b8581101561222e5783830389528151805161ffff9081168552868201516001600160a01b031687860152604091820151606083870181905281518188018190529189019390928b9290919060808901905b808510156122165786518051851683528c8101516001600160401b039081168e850152908401511683830152958b019560019490940193908501906121d6565b509d8a019d9750505093870193505050600101612185565b5090979650505050505050565b60020b9052565b80516001600160a01b0390811683526020808301519091169083015260409081015162ffffff16910152565b80546001600160a01b03908116835260019190910154908116602083015260a01c62ffffff16604090910152565b61ffff169052565b62ffffff169052565b6001600160401b03169052565b92835260609190911b6bffffffffffffffffffffffff19166020830152603482015260540190565b6001600160a01b0391909116815260200190565b6001600160a01b0392831681529116602082015260400190565b6001600160a01b03938416815291909216602082015262ffffff909116604082015260600190565b6020808252600490820152630555633560e41b604082015260600190565b602080825260029082015261141560f21b604082015260600190565b602080825260029082015261131560f21b604082015260600190565b602080825260029082015261524560f01b604082015260600190565b60208082526005908201526452414e474560d81b604082015260600190565b602080825260029082015261554160f01b604082015260600190565b60208082526003908201526214919560ea1b604082015260600190565b6020808252600290820152614e4960f01b604082015260600190565b60208082526002908201526104e560f41b604082015260600190565b60006020825261244e60208301845161215f565b6020830151612460604084018261223b565b506040830151612473606084018261223b565b506060830151612486608084018261215f565b50608083015161249960a084018261215f565b5060a083015160c083015260c083015160e083015260e08301516101008181850152808501519150506101206124d1818501836122ad565b84015190506101406124e5848201836122ad565b8401516101608481015290506124ff61018084018261216c565b949350505050565b60006101c08201905061251b82845161215f565b602083015161252d602084018261215f565b506040830151612540604084018261215f565b50606083015161255360608401826122a4565b506080830151612566608084018261215f565b5060a083015161257960a08401826122ad565b5060c083015161258c60c08401826122ad565b5060e083015161259f60e084018261229c565b50610100808401516125b38285018261215f565b5050610120808401516125c882850182612242565b50506101408301516125de61018084018261229c565b50610160830151611c3c6101a084018261229c565b60006101c08201905061260f8261260a85546127cd565b61215f565b61261c60018401546127cd565b612629602084018261215f565b5060028301546001600160a01b036126466040850182841661215f565b61265b6060850162ffffff8460a01c166122a4565b600385015491506126716080850182841661215f565b6001600160401b0361268b60a08601828560a01c166122ad565b600486015492506126a160c086018285166122ad565b5061ffff6126b760e08601828560401c1661229c565b6126ca6101008601838560501c1661215f565b6126db61012086016005880161226e565b600786015492506126f2610180860182851661229c565b6127056101a08601828560101c1661229c565b50505092915050565b61ffff91909116815260200190565b90815260200190565b6001600160401b0392831681529116602082015260400190565b6000808335601e19843603018112612756578283fd5b8301803591506001600160401b0382111561276f578283fd5b602090810192508102360382131561278657600080fd5b9250929050565b6040518181016001600160401b03811182821017156127a857fe5b604052919050565b60006001600160401b038211156127c357fe5b5060209081020190565b6001600160a01b031690565b60006127ec6127e7846127b0565b61278d565b8381526020808201919084845b8781101561293457813587016060808236031215612815578788fd5b604080518281016001600160401b03828210818311171561283257fe5b90835284359061284182612967565b908252848801359061285282612940565b818984015283860135915080821115612869578b8cfd5b9481019436601f87011261287b578b8cfd5b8535915061288b6127e7836127b0565b82815289810190878b01368886028a018d0111156128a7578e8ffd5b8e98505b84891015612915578781360312156128c1578e8ffd5b865188810181811086821117156128d457fe5b885281356128e181612967565b81526128ee828e01611e98565b8d8201526128fd888301611e98565b81890152835260019890980197918b019187016128ab565b50948401949094525050885250505093820193908201906001016127f9565b50919695505050505050565b6001600160a01b038116811461295557600080fd5b50565b8060020b811461295557600080fd5b61ffff8116811461295557600080fdfe4f776e61626c653a206e6577206f776e657220697320746865207a65726f20616464726573734f776e61626c653a2063616c6c6572206973206e6f7420746865206f776e6572a2646970667358221220100e02917f8d6e9c9f9e4e0e1b83af553247c914e2ee9cdfcaed7a4d4ade1a7a64736f6c634300070600334f776e61626c653a206e6577206f776e657220697320746865207a65726f20616464726573738be0079c531659141344cd1fd0a4f28419497f9722a3daafe3b4186f6b6457e0","linkReferences":{}},"methodIdentifiers":{"FEE_TAKER()":"552e94a9","ILO_POOL_IMPLEMENTATION()":"881501e3","PERFORMANCE_FEE()":"e93f5665","PLATFORM_FEE()":"34fbc9a1","UNIV3_FACTORY()":"7a89cdd3","WETH9()":"4aa4a4fc","claimRefund(address)":"bffa55d5","initILOPool((address,int24,int24,uint256,uint256,uint256,uint64,uint64,(uint16,address,(uint16,uint64,uint64)[])[]))":"0f2a6740","initProject((address,address,uint24,uint160,uint64))":"a2e53a7f","initialize(address,address,address,address,address,uint16,uint16)":"e1526419","launch(address)":"214013ca","owner()":"8da5cb5b","project(address)":"838134b6","renounceOwnership()":"715018a6","setDefaultDeadlineOffset(uint64)":"643e6fd3","setFeeTaker(address)":"4ec5908d","setILOPoolImplementation(address)":"c80b8500","setPerformanceFee(uint16)":"aa290e6d","setPlatformFee(uint16)":"5cbc742c","setRefundDeadlineForProject(address,uint64)":"f41a295d","transferAdminProject(address,address)":"d9739d16","transferOwnership(address)":"f2fde38b"},"id":59}