{
  "_format": "hh-sol-artifact-1",
  "contractName": "Vultisig",
  "sourceName": "hardhat-vultisig/contracts/Vultisig.sol",
  "abi": [
    {
      "inputs": [],
      "stateMutability": "nonpayable",
      "type": "constructor"
    },
    {
      "anonymous": false,
      "inputs": [
        {
          "indexed": true,
          "internalType": "address",
          "name": "owner",
          "type": "address"
        },
        {
          "indexed": true,
          "internalType": "address",
          "name": "spender",
          "type": "address"
        },
        {
          "indexed": false,
          "internalType": "uint256",
          "name": "value",
          "type": "uint256"
        }
      ],
      "name": "Approval",
      "type": "event"
    },
    {
      "anonymous": false,
      "inputs": [
        {
          "indexed": true,
          "internalType": "address",
          "name": "previousOwner",
          "type": "address"
        },
        {
          "indexed": true,
          "internalType": "address",
          "name": "newOwner",
          "type": "address"
        }
      ],
      "name": "OwnershipTransferred",
      "type": "event"
    },
    {
      "anonymous": false,
      "inputs": [
        {
          "indexed": true,
          "internalType": "address",
          "name": "from",
          "type": "address"
        },
        {
          "indexed": true,
          "internalType": "address",
          "name": "to",
          "type": "address"
        },
        {
          "indexed": false,
          "internalType": "uint256",
          "name": "value",
          "type": "uint256"
        }
      ],
      "name": "Transfer",
      "type": "event"
    },
    {
      "inputs": [
        {
          "internalType": "address",
          "name": "owner",
          "type": "address"
        },
        {
          "internalType": "address",
          "name": "spender",
          "type": "address"
        }
      ],
      "name": "allowance",
      "outputs": [
        {
          "internalType": "uint256",
          "name": "",
          "type": "uint256"
        }
      ],
      "stateMutability": "view",
      "type": "function"
    },
    {
      "inputs": [
        {
          "internalType": "address",
          "name": "spender",
          "type": "address"
        },
        {
          "internalType": "uint256",
          "name": "amount",
          "type": "uint256"
        }
      ],
      "name": "approve",
      "outputs": [
        {
          "internalType": "bool",
          "name": "",
          "type": "bool"
        }
      ],
      "stateMutability": "nonpayable",
      "type": "function"
    },
    {
      "inputs": [
        {
          "internalType": "address",
          "name": "spender",
          "type": "address"
        },
        {
          "internalType": "uint256",
          "name": "amount",
          "type": "uint256"
        },
        {
          "internalType": "bytes",
          "name": "extraData",
          "type": "bytes"
        }
      ],
      "name": "approveAndCall",
      "outputs": [
        {
          "internalType": "bool",
          "name": "",
          "type": "bool"
        }
      ],
      "stateMutability": "nonpayable",
      "type": "function"
    },
    {
      "inputs": [
        {
          "internalType": "address",
          "name": "account",
          "type": "address"
        }
      ],
      "name": "balanceOf",
      "outputs": [
        {
          "internalType": "uint256",
          "name": "",
          "type": "uint256"
        }
      ],
      "stateMutability": "view",
      "type": "function"
    },
    {
      "inputs": [],
      "name": "decimals",
      "outputs": [
        {
          "internalType": "uint8",
          "name": "",
          "type": "uint8"
        }
      ],
      "stateMutability": "view",
      "type": "function"
    },
    {
      "inputs": [
        {
          "internalType": "address",
          "name": "spender",
          "type": "address"
        },
        {
          "internalType": "uint256",
          "name": "subtractedValue",
          "type": "uint256"
        }
      ],
      "name": "decreaseAllowance",
      "outputs": [
        {
          "internalType": "bool",
          "name": "",
          "type": "bool"
        }
      ],
      "stateMutability": "nonpayable",
      "type": "function"
    },
    {
      "inputs": [
        {
          "internalType": "address",
          "name": "spender",
          "type": "address"
        },
        {
          "internalType": "uint256",
          "name": "addedValue",
          "type": "uint256"
        }
      ],
      "name": "increaseAllowance",
      "outputs": [
        {
          "internalType": "bool",
          "name": "",
          "type": "bool"
        }
      ],
      "stateMutability": "nonpayable",
      "type": "function"
    },
    {
      "inputs": [],
      "name": "name",
      "outputs": [
        {
          "internalType": "string",
          "name": "",
          "type": "string"
        }
      ],
      "stateMutability": "view",
      "type": "function"
    },
    {
      "inputs": [],
      "name": "owner",
      "outputs": [
        {
          "internalType": "address",
          "name": "",
          "type": "address"
        }
      ],
      "stateMutability": "view",
      "type": "function"
    },
    {
      "inputs": [],
      "name": "renounceOwnership",
      "outputs": [],
      "stateMutability": "nonpayable",
      "type": "function"
    },
    {
      "inputs": [],
      "name": "symbol",
      "outputs": [
        {
          "internalType": "string",
          "name": "",
          "type": "string"
        }
      ],
      "stateMutability": "view",
      "type": "function"
    },
    {
      "inputs": [],
      "name": "totalSupply",
      "outputs": [
        {
          "internalType": "uint256",
          "name": "",
          "type": "uint256"
        }
      ],
      "stateMutability": "view",
      "type": "function"
    },
    {
      "inputs": [
        {
          "internalType": "address",
          "name": "to",
          "type": "address"
        },
        {
          "internalType": "uint256",
          "name": "amount",
          "type": "uint256"
        }
      ],
      "name": "transfer",
      "outputs": [
        {
          "internalType": "bool",
          "name": "",
          "type": "bool"
        }
      ],
      "stateMutability": "nonpayable",
      "type": "function"
    },
    {
      "inputs": [
        {
          "internalType": "address",
          "name": "from",
          "type": "address"
        },
        {
          "internalType": "address",
          "name": "to",
          "type": "address"
        },
        {
          "internalType": "uint256",
          "name": "amount",
          "type": "uint256"
        }
      ],
      "name": "transferFrom",
      "outputs": [
        {
          "internalType": "bool",
          "name": "",
          "type": "bool"
        }
      ],
      "stateMutability": "nonpayable",
      "type": "function"
    },
    {
      "inputs": [
        {
          "internalType": "address",
          "name": "newOwner",
          "type": "address"
        }
      ],
      "name": "transferOwnership",
      "outputs": [],
      "stateMutability": "nonpayable",
      "type": "function"
    }
  ],
  "bytecode": "0x60806040523480156200001157600080fd5b506040518060400160405280600e81526020017f56756c746973696720546f6b656e0000000000000000000000000000000000008152506040518060400160405280600481526020017f56554c540000000000000000000000000000000000000000000000000000000081525081600390816200008f9190620005b5565b508060049081620000a19190620005b5565b505050620000c4620000b8620000f660201b60201c565b620000fe60201b60201c565b620000f0620000d8620000f660201b60201c565b6a52b7d2dcc80cd2e4000000620001c460201b60201c565b620007b7565b600033905090565b6000600560009054906101000a900473ffffffffffffffffffffffffffffffffffffffff16905081600560006101000a81548173ffffffffffffffffffffffffffffffffffffffff021916908373ffffffffffffffffffffffffffffffffffffffff1602179055508173ffffffffffffffffffffffffffffffffffffffff168173ffffffffffffffffffffffffffffffffffffffff167f8be0079c531659141344cd1fd0a4f28419497f9722a3daafe3b4186f6b6457e060405160405180910390a35050565b600073ffffffffffffffffffffffffffffffffffffffff168273ffffffffffffffffffffffffffffffffffffffff160362000236576040517f08c379a00000000000000000000000000000000000000000000000000000000081526004016200022d90620006fd565b60405180910390fd5b6200024a600083836200033160201b60201c565b80600260008282546200025e91906200074e565b92505081905550806000808473ffffffffffffffffffffffffffffffffffffffff1673ffffffffffffffffffffffffffffffffffffffff168152602001908152602001600020600082825401925050819055508173ffffffffffffffffffffffffffffffffffffffff16600073ffffffffffffffffffffffffffffffffffffffff167fddf252ad1be2c89b69c2b068fc378daa952ba7f163c4a11628f55a4df523b3ef836040516200031191906200079a565b60405180910390a36200032d600083836200033660201b60201c565b5050565b505050565b505050565b600081519050919050565b7f4e487b7100000000000000000000000000000000000000000000000000000000600052604160045260246000fd5b7f4e487b7100000000000000000000000000000000000000000000000000000000600052602260045260246000fd5b60006002820490506001821680620003bd57607f821691505b602082108103620003d357620003d262000375565b5b50919050565b60008190508160005260206000209050919050565b60006020601f8301049050919050565b600082821b905092915050565b6000600883026200043d7fffffffffffffffffffffffffffffffffffffffffffffffffffffffffffffffff82620003fe565b620004498683620003fe565b95508019841693508086168417925050509392505050565b6000819050919050565b6000819050919050565b600062000496620004906200048a8462000461565b6200046b565b62000461565b9050919050565b6000819050919050565b620004b28362000475565b620004ca620004c1826200049d565b8484546200040b565b825550505050565b600090565b620004e1620004d2565b620004ee818484620004a7565b505050565b5b8181101562000516576200050a600082620004d7565b600181019050620004f4565b5050565b601f82111562000565576200052f81620003d9565b6200053a84620003ee565b810160208510156200054a578190505b620005626200055985620003ee565b830182620004f3565b50505b505050565b600082821c905092915050565b60006200058a600019846008026200056a565b1980831691505092915050565b6000620005a5838362000577565b9150826002028217905092915050565b620005c0826200033b565b67ffffffffffffffff811115620005dc57620005db62000346565b5b620005e88254620003a4565b620005f58282856200051a565b600060209050601f8311600181146200062d576000841562000618578287015190505b62000624858262000597565b86555062000694565b601f1984166200063d86620003d9565b60005b82811015620006675784890151825560018201915060208501945060208101905062000640565b8683101562000687578489015162000683601f89168262000577565b8355505b6001600288020188555050505b505050505050565b600082825260208201905092915050565b7f45524332303a206d696e7420746f20746865207a65726f206164647265737300600082015250565b6000620006e5601f836200069c565b9150620006f282620006ad565b602082019050919050565b600060208201905081810360008301526200071881620006d6565b9050919050565b7f4e487b7100000000000000000000000000000000000000000000000000000000600052601160045260246000fd5b60006200075b8262000461565b9150620007688362000461565b92508282019050808211156200078357620007826200071f565b5b92915050565b620007948162000461565b82525050565b6000602082019050620007b1600083018462000789565b92915050565b61182180620007c76000396000f3fe608060405234801561001057600080fd5b50600436106100f55760003560e01c8063715018a611610097578063a9059cbb11610066578063a9059cbb1461028a578063cae9ca51146102ba578063dd62ed3e146102ea578063f2fde38b1461031a576100f5565b8063715018a6146102145780638da5cb5b1461021e57806395d89b411461023c578063a457c2d71461025a576100f5565b806323b872dd116100d357806323b872dd14610166578063313ce5671461019657806339509351146101b457806370a08231146101e4576100f5565b806306fdde03146100fa578063095ea7b31461011857806318160ddd14610148575b600080fd5b610102610336565b60405161010f9190610e5d565b60405180910390f35b610132600480360381019061012d9190610f1d565b6103c8565b60405161013f9190610f78565b60405180910390f35b6101506103eb565b60405161015d9190610fa2565b60405180910390f35b610180600480360381019061017b9190610fbd565b6103f5565b60405161018d9190610f78565b60405180910390f35b61019e610424565b6040516101ab919061102c565b60405180910390f35b6101ce60048036038101906101c99190610f1d565b61042d565b6040516101db9190610f78565b60405180910390f35b6101fe60048036038101906101f99190611047565b610464565b60405161020b9190610fa2565b60405180910390f35b61021c6104ac565b005b6102266104c0565b6040516102339190611083565b60405180910390f35b6102446104ea565b6040516102519190610e5d565b60405180910390f35b610274600480360381019061026f9190610f1d565b61057c565b6040516102819190610f78565b60405180910390f35b6102a4600480360381019061029f9190610f1d565b6105f3565b6040516102b19190610f78565b60405180910390f35b6102d460048036038101906102cf9190611103565b610616565b6040516102e19190610f78565b60405180910390f35b61030460048036038101906102ff9190611177565b6106a2565b6040516103119190610fa2565b60405180910390f35b610334600480360381019061032f9190611047565b610729565b005b606060038054610345906111e6565b80601f0160208091040260200160405190810160405280929190818152602001828054610371906111e6565b80156103be5780601f10610393576101008083540402835291602001916103be565b820191906000526020600020905b8154815290600101906020018083116103a157829003601f168201915b5050505050905090565b6000806103d36107ac565b90506103e08185856107b4565b600191505092915050565b6000600254905090565b6000806104006107ac565b905061040d85828561097d565b610418858585610a09565b60019150509392505050565b60006012905090565b6000806104386107ac565b905061045981858561044a85896106a2565b6104549190611246565b6107b4565b600191505092915050565b60008060008373ffffffffffffffffffffffffffffffffffffffff1673ffffffffffffffffffffffffffffffffffffffff168152602001908152602001600020549050919050565b6104b4610c7f565b6104be6000610cfd565b565b6000600560009054906101000a900473ffffffffffffffffffffffffffffffffffffffff16905090565b6060600480546104f9906111e6565b80601f0160208091040260200160405190810160405280929190818152602001828054610525906111e6565b80156105725780601f1061054757610100808354040283529160200191610572565b820191906000526020600020905b81548152906001019060200180831161055557829003601f168201915b5050505050905090565b6000806105876107ac565b9050600061059582866106a2565b9050838110156105da576040517f08c379a00000000000000000000000000000000000000000000000000000000081526004016105d1906112ec565b60405180910390fd5b6105e782868684036107b4565b60019250505092915050565b6000806105fe6107ac565b905061060b818585610a09565b600191505092915050565b60006106233386866107b4565b8473ffffffffffffffffffffffffffffffffffffffff16638f4ffcb133863087876040518663ffffffff1660e01b8152600401610664959493929190611359565b600060405180830381600087803b15801561067e57600080fd5b505af1158015610692573d6000803e3d6000fd5b5050505060019050949350505050565b6000600160008473ffffffffffffffffffffffffffffffffffffffff1673ffffffffffffffffffffffffffffffffffffffff16815260200190815260200160002060008373ffffffffffffffffffffffffffffffffffffffff1673ffffffffffffffffffffffffffffffffffffffff16815260200190815260200160002054905092915050565b610731610c7f565b600073ffffffffffffffffffffffffffffffffffffffff168173ffffffffffffffffffffffffffffffffffffffff16036107a0576040517f08c379a000000000000000000000000000000000000000000000000000000000815260040161079790611419565b60405180910390fd5b6107a981610cfd565b50565b600033905090565b600073ffffffffffffffffffffffffffffffffffffffff168373ffffffffffffffffffffffffffffffffffffffff1603610823576040517f08c379a000000000000000000000000000000000000000000000000000000000815260040161081a906114ab565b60405180910390fd5b600073ffffffffffffffffffffffffffffffffffffffff168273ffffffffffffffffffffffffffffffffffffffff1603610892576040517f08c379a00000000000000000000000000000000000000000000000000000000081526004016108899061153d565b60405180910390fd5b80600160008573ffffffffffffffffffffffffffffffffffffffff1673ffffffffffffffffffffffffffffffffffffffff16815260200190815260200160002060008473ffffffffffffffffffffffffffffffffffffffff1673ffffffffffffffffffffffffffffffffffffffff168152602001908152602001600020819055508173ffffffffffffffffffffffffffffffffffffffff168373ffffffffffffffffffffffffffffffffffffffff167f8c5be1e5ebec7d5bd14f71427d1e84f3dd0314c0f7b2291e5b200ac8c7c3b925836040516109709190610fa2565b60405180910390a3505050565b600061098984846106a2565b90507fffffffffffffffffffffffffffffffffffffffffffffffffffffffffffffffff8114610a0357818110156109f5576040517f08c379a00000000000000000000000000000000000000000000000000000000081526004016109ec906115a9565b60405180910390fd5b610a0284848484036107b4565b5b50505050565b600073ffffffffffffffffffffffffffffffffffffffff168373ffffffffffffffffffffffffffffffffffffffff1603610a78576040517f08c379a0000000000000000000000000000000000000000000000000000000008152600401610a6f9061163b565b60405180910390fd5b600073ffffffffffffffffffffffffffffffffffffffff168273ffffffffffffffffffffffffffffffffffffffff1603610ae7576040517f08c379a0000000000000000000000000000000000000000000000000000000008152600401610ade906116cd565b60405180910390fd5b610af2838383610dc3565b60008060008573ffffffffffffffffffffffffffffffffffffffff1673ffffffffffffffffffffffffffffffffffffffff16815260200190815260200160002054905081811015610b78576040517f08c379a0000000000000000000000000000000000000000000000000000000008152600401610b6f9061175f565b60405180910390fd5b8181036000808673ffffffffffffffffffffffffffffffffffffffff1673ffffffffffffffffffffffffffffffffffffffff16815260200190815260200160002081905550816000808573ffffffffffffffffffffffffffffffffffffffff1673ffffffffffffffffffffffffffffffffffffffff168152602001908152602001600020600082825401925050819055508273ffffffffffffffffffffffffffffffffffffffff168473ffffffffffffffffffffffffffffffffffffffff167fddf252ad1be2c89b69c2b068fc378daa952ba7f163c4a11628f55a4df523b3ef84604051610c669190610fa2565b60405180910390a3610c79848484610dc8565b50505050565b610c876107ac565b73ffffffffffffffffffffffffffffffffffffffff16610ca56104c0565b73ffffffffffffffffffffffffffffffffffffffff1614610cfb576040517f08c379a0000000000000000000000000000000000000000000000000000000008152600401610cf2906117cb565b60405180910390fd5b565b6000600560009054906101000a900473ffffffffffffffffffffffffffffffffffffffff16905081600560006101000a81548173ffffffffffffffffffffffffffffffffffffffff021916908373ffffffffffffffffffffffffffffffffffffffff1602179055508173ffffffffffffffffffffffffffffffffffffffff168173ffffffffffffffffffffffffffffffffffffffff167f8be0079c531659141344cd1fd0a4f28419497f9722a3daafe3b4186f6b6457e060405160405180910390a35050565b505050565b505050565b600081519050919050565b600082825260208201905092915050565b60005b83811015610e07578082015181840152602081019050610dec565b60008484015250505050565b6000601f19601f8301169050919050565b6000610e2f82610dcd565b610e398185610dd8565b9350610e49818560208601610de9565b610e5281610e13565b840191505092915050565b60006020820190508181036000830152610e778184610e24565b905092915050565b600080fd5b600080fd5b600073ffffffffffffffffffffffffffffffffffffffff82169050919050565b6000610eb482610e89565b9050919050565b610ec481610ea9565b8114610ecf57600080fd5b50565b600081359050610ee181610ebb565b92915050565b6000819050919050565b610efa81610ee7565b8114610f0557600080fd5b50565b600081359050610f1781610ef1565b92915050565b60008060408385031215610f3457610f33610e7f565b5b6000610f4285828601610ed2565b9250506020610f5385828601610f08565b9150509250929050565b60008115159050919050565b610f7281610f5d565b82525050565b6000602082019050610f8d6000830184610f69565b92915050565b610f9c81610ee7565b82525050565b6000602082019050610fb76000830184610f93565b92915050565b600080600060608486031215610fd657610fd5610e7f565b5b6000610fe486828701610ed2565b9350506020610ff586828701610ed2565b925050604061100686828701610f08565b9150509250925092565b600060ff82169050919050565b61102681611010565b82525050565b6000602082019050611041600083018461101d565b92915050565b60006020828403121561105d5761105c610e7f565b5b600061106b84828501610ed2565b91505092915050565b61107d81610ea9565b82525050565b60006020820190506110986000830184611074565b92915050565b600080fd5b600080fd5b600080fd5b60008083601f8401126110c3576110c261109e565b5b8235905067ffffffffffffffff8111156110e0576110df6110a3565b5b6020830191508360018202830111156110fc576110fb6110a8565b5b9250929050565b6000806000806060858703121561111d5761111c610e7f565b5b600061112b87828801610ed2565b945050602061113c87828801610f08565b935050604085013567ffffffffffffffff81111561115d5761115c610e84565b5b611169878288016110ad565b925092505092959194509250565b6000806040838503121561118e5761118d610e7f565b5b600061119c85828601610ed2565b92505060206111ad85828601610ed2565b9150509250929050565b7f4e487b7100000000000000000000000000000000000000000000000000000000600052602260045260246000fd5b600060028204905060018216806111fe57607f821691505b602082108103611211576112106111b7565b5b50919050565b7f4e487b7100000000000000000000000000000000000000000000000000000000600052601160045260246000fd5b600061125182610ee7565b915061125c83610ee7565b925082820190508082111561127457611273611217565b5b92915050565b7f45524332303a2064656372656173656420616c6c6f77616e63652062656c6f7760008201527f207a65726f000000000000000000000000000000000000000000000000000000602082015250565b60006112d6602583610dd8565b91506112e18261127a565b604082019050919050565b60006020820190508181036000830152611305816112c9565b9050919050565b600082825260208201905092915050565b82818337600083830152505050565b6000611338838561130c565b935061134583858461131d565b61134e83610e13565b840190509392505050565b600060808201905061136e6000830188611074565b61137b6020830187610f93565b6113886040830186611074565b818103606083015261139b81848661132c565b90509695505050505050565b7f4f776e61626c653a206e6577206f776e657220697320746865207a65726f206160008201527f6464726573730000000000000000000000000000000000000000000000000000602082015250565b6000611403602683610dd8565b915061140e826113a7565b604082019050919050565b60006020820190508181036000830152611432816113f6565b9050919050565b7f45524332303a20617070726f76652066726f6d20746865207a65726f2061646460008201527f7265737300000000000000000000000000000000000000000000000000000000602082015250565b6000611495602483610dd8565b91506114a082611439565b604082019050919050565b600060208201905081810360008301526114c481611488565b9050919050565b7f45524332303a20617070726f766520746f20746865207a65726f20616464726560008201527f7373000000000000000000000000000000000000000000000000000000000000602082015250565b6000611527602283610dd8565b9150611532826114cb565b604082019050919050565b600060208201905081810360008301526115568161151a565b9050919050565b7f45524332303a20696e73756666696369656e7420616c6c6f77616e6365000000600082015250565b6000611593601d83610dd8565b915061159e8261155d565b602082019050919050565b600060208201905081810360008301526115c281611586565b9050919050565b7f45524332303a207472616e736665722066726f6d20746865207a65726f20616460008201527f6472657373000000000000000000000000000000000000000000000000000000602082015250565b6000611625602583610dd8565b9150611630826115c9565b604082019050919050565b6000602082019050818103600083015261165481611618565b9050919050565b7f45524332303a207472616e7366657220746f20746865207a65726f206164647260008201527f6573730000000000000000000000000000000000000000000000000000000000602082015250565b60006116b7602383610dd8565b91506116c28261165b565b604082019050919050565b600060208201905081810360008301526116e6816116aa565b9050919050565b7f45524332303a207472616e7366657220616d6f756e742065786365656473206260008201527f616c616e63650000000000000000000000000000000000000000000000000000602082015250565b6000611749602683610dd8565b9150611754826116ed565b604082019050919050565b600060208201905081810360008301526117788161173c565b9050919050565b7f4f776e61626c653a2063616c6c6572206973206e6f7420746865206f776e6572600082015250565b60006117b5602083610dd8565b91506117c08261177f565b602082019050919050565b600060208201905081810360008301526117e4816117a8565b905091905056fea264697066735822122094e195bf817bcbf591487abb5e9dc88edeea3110f0692b0bfe66e7b34f66953d64736f6c63430008180033",
  "linkReferences": {},
  "deployedLinkReferences": {}
}