{"hardhat-vultisig/contracts/oracles/uniswap/UniswapV3Oracle.sol":{"UniswapV3Oracle":{"abi":[{"inputs":[{"internalType":"address","name":"_pool","type":"address"},{"internalType":"address","name":"_baseToken","type":"address"},{"internalType":"address","name":"_WETH","type":"address"}],"stateMutability":"nonpayable","type":"constructor"},{"inputs":[],"name":"BASE_AMOUNT","outputs":[{"internalType":"uint128","name":"","type":"uint128"}],"stateMutability":"view","type":"function"},{"inputs":[],"name":"PERIOD","outputs":[{"internalType":"uint32","name":"","type":"uint32"}],"stateMutability":"view","type":"function"},{"inputs":[],"name":"WETH","outputs":[{"internalType":"address","name":"","type":"address"}],"stateMutability":"view","type":"function"},{"inputs":[],"name":"baseToken","outputs":[{"internalType":"address","name":"","type":"address"}],"stateMutability":"view","type":"function"},{"inputs":[],"name":"name","outputs":[{"internalType":"string","name":"","type":"string"}],"stateMutability":"pure","type":"function"},{"inputs":[{"internalType":"uint256","name":"baseAmount","type":"uint256"}],"name":"peek","outputs":[{"internalType":"uint256","name":"","type":"uint256"}],"stateMutability":"view","type":"function"},{"inputs":[],"name":"pool","outputs":[{"internalType":"address","name":"","type":"address"}],"stateMutability":"view","type":"function"}],"evm":{"bytecode":{"linkReferences":{},"object":"60e06040523480156200001157600080fd5b5060405162001ffa38038062001ffa833981810160405281019062000037919062000146565b8273ffffffffffffffffffffffffffffffffffffffff1660808173ffffffffffffffffffffffffffffffffffffffff16815250508173ffffffffffffffffffffffffffffffffffffffff1660a08173ffffffffffffffffffffffffffffffffffffffff16815250508073ffffffffffffffffffffffffffffffffffffffff1660c08173ffffffffffffffffffffffffffffffffffffffff1681525050505050620001a2565b600080fd5b600073ffffffffffffffffffffffffffffffffffffffff82169050919050565b60006200010e82620000e1565b9050919050565b620001208162000101565b81146200012c57600080fd5b50565b600081519050620001408162000115565b92915050565b600080600060608486031215620001625762000161620000dc565b5b600062000172868287016200012f565b935050602062000185868287016200012f565b925050604062000198868287016200012f565b9150509250925092565b60805160a05160c051611e0c620001ee6000396000818161028401526102e3015260008181610263015261030d0152600081816101a5015281816101db015261022b0152611e0c6000f3fe608060405234801561001057600080fd5b506004361061007d5760003560e01c80637861d2691161005b5780637861d269146100dc578063ad5c46481461010c578063b4d1d7951461012a578063c55dae63146101485761007d565b806306fdde031461008257806316f0115b146100a057806325de1092146100be575b600080fd5b61008a610166565b6040516100979190611052565b60405180910390f35b6100a86101a3565b6040516100b591906110b5565b60405180910390f35b6100c66101c7565b6040516100d391906110fb565b60405180910390f35b6100f660048036038101906100f19190611160565b6101d3565b604051610103919061119c565b60405180910390f35b6101146102e1565b60405161012191906110b5565b60405180910390f35b610132610305565b60405161013f91906111d6565b60405180910390f35b61015061030b565b60405161015d91906110b5565b60405180910390f35b60606040518060400160405280601381526020017f56554c542f5745544820556e6976335457415000000000000000000000000000815250905090565b7f000000000000000000000000000000000000000000000000000000000000000081565b670de0b6b3a764000081565b6000806101ff7f000000000000000000000000000000000000000000000000000000000000000061032f565b905060008163ffffffff1661070863ffffffff161061021e5781610222565b6107085b905060006102507f00000000000000000000000000000000000000000000000000000000000000008361052f565b905060006102a882670de0b6b3a76400007f00000000000000000000000000000000000000000000000000000000000000007f0000000000000000000000000000000000000000000000000000000000000000610749565b905068056bc75e2d63100000605f87836102c29190611220565b6102cc9190611220565b6102d69190611291565b945050505050919050565b7f000000000000000000000000000000000000000000000000000000000000000081565b61070881565b7f000000000000000000000000000000000000000000000000000000000000000081565b60008060008373ffffffffffffffffffffffffffffffffffffffff16633850c7bd6040518163ffffffff1660e01b815260040160e060405180830381865afa15801561037f573d6000803e3d6000fd5b505050506040513d601f19601f820116820180604052508101906103a391906113d2565b50505093509350505060008161ffff16116103f3576040517f08c379a00000000000000000000000000000000000000000000000000000000081526004016103ea906114c0565b60405180910390fd5b6000808573ffffffffffffffffffffffffffffffffffffffff1663252c09d78460018761042091906114e0565b61042a9190611516565b6040518263ffffffff1660e01b81526004016104469190611582565b608060405180830381865afa158015610463573d6000803e3d6000fd5b505050506040513d601f19601f820116820180604052508101906104879190611602565b93505050915080610518578573ffffffffffffffffffffffffffffffffffffffff1663252c09d760006040518263ffffffff1660e01b81526004016104cc91906116a4565b608060405180830381865afa1580156104e9573d6000803e3d6000fd5b505050506040513d601f19601f8201168201806040525081019061050d9190611602565b909150905050809250505b814261052491906116bf565b945050505050919050565b6000808263ffffffff1603610579576040517f08c379a000000000000000000000000000000000000000000000000000000000815260040161057090611743565b60405180910390fd5b6000600267ffffffffffffffff81111561059657610595611763565b5b6040519080825280602002602001820160405280156105c45781602001602082028036833780820191505090505b50905082816000815181106105dc576105db611792565b5b602002602001019063ffffffff16908163ffffffff168152505060008160018151811061060c5761060b611792565b5b602002602001019063ffffffff16908163ffffffff168152505060008473ffffffffffffffffffffffffffffffffffffffff1663883bdbfd836040518263ffffffff1660e01b8152600401610661919061187f565b600060405180830381865afa15801561067e573d6000803e3d6000fd5b505050506040513d6000823e3d601f19601f820116820180604052508101906106a79190611a7d565b5090506000816000815181106106c0576106bf611792565b5b6020026020010151826001815181106106dc576106db611792565b5b60200260200101516106ee9190611af5565b90508463ffffffff16816107029190611b54565b935060008160060b12801561072c575060008563ffffffff16826107269190611bbe565b60060b14155b1561074057838061073c90611bef565b9450505b50505092915050565b60008061075586610955565b90506fffffffffffffffffffffffffffffffff80168173ffffffffffffffffffffffffffffffffffffffff161161086f5760008173ffffffffffffffffffffffffffffffffffffffff168273ffffffffffffffffffffffffffffffffffffffff166107c09190611220565b90508373ffffffffffffffffffffffffffffffffffffffff168573ffffffffffffffffffffffffffffffffffffffff16106108305761082b7801000000000000000000000000000000000000000000000000876fffffffffffffffffffffffffffffffff1683610e22565b610867565b61086681876fffffffffffffffffffffffffffffffff167801000000000000000000000000000000000000000000000000610e22565b5b92505061094c565b60006108b18273ffffffffffffffffffffffffffffffffffffffff168373ffffffffffffffffffffffffffffffffffffffff1668010000000000000000610e22565b90508373ffffffffffffffffffffffffffffffffffffffff168573ffffffffffffffffffffffffffffffffffffffff161061091957610914700100000000000000000000000000000000876fffffffffffffffffffffffffffffffff1683610e22565b610948565b61094781876fffffffffffffffffffffffffffffffff16700100000000000000000000000000000000610e22565b5b9250505b50949350505050565b60008060008360020b1261096c578260020b61097a565b8260020b61097990611c41565b5b90507ffffffffffffffffffffffffffffffffffffffffffffffffffffffffffff276186109a690611c89565b62ffffff168111156109ed576040517f08c379a00000000000000000000000000000000000000000000000000000000081526004016109e490611d1d565b60405180910390fd5b6000806001831603610a1057700100000000000000000000000000000000610a22565b6ffffcb933bd6fad37aa2d162d1a5940015b70ffffffffffffffffffffffffffffffffff16905060006002831614610a655760806ffff97272373d413259a46990580e213a82610a609190611220565b901c90505b60006004831614610a935760806ffff2e50f5f656932ef12357cf3c7fdcc82610a8e9190611220565b901c90505b60006008831614610ac15760806fffe5caca7e10e4e61c3624eaa0941cd082610abc9190611220565b901c90505b60006010831614610aef5760806fffcb9843d60f6159c9db58835c92664482610aea9190611220565b901c90505b60006020831614610b1d5760806fff973b41fa98c081472e6896dfb254c082610b189190611220565b901c90505b60006040831614610b4b5760806fff2ea16466c96a3843ec78b326b5286182610b469190611220565b901c90505b60006080831614610b795760806ffe5dee046a99a2a811c461f1969c305382610b749190611220565b901c90505b6000610100831614610ba85760806ffcbe86c7900a88aedcffc83b479aa3a482610ba39190611220565b901c90505b6000610200831614610bd75760806ff987a7253ac413176f2b074cf7815e5482610bd29190611220565b901c90505b6000610400831614610c065760806ff3392b0822b70005940c7a398e4b70f382610c019190611220565b901c90505b6000610800831614610c355760806fe7159475a2c29b7443b29c7fa6e889d982610c309190611220565b901c90505b6000611000831614610c645760806fd097f3bdfd2022b8845ad8f792aa582582610c5f9190611220565b901c90505b6000612000831614610c935760806fa9f746462d870fdf8a65dc1f90e061e582610c8e9190611220565b901c90505b6000614000831614610cc25760806f70d869a156d2a1b890bb3df62baf32f782610cbd9190611220565b901c90505b6000618000831614610cf15760806f31be135f97d08fd981231505542fcfa682610cec9190611220565b901c90505b600062010000831614610d215760806f09aa508b5b7a84e1c677de54f3e99bc982610d1c9190611220565b901c90505b600062020000831614610d505760806e5d6af8dedb81196699c329225ee60482610d4b9190611220565b901c90505b600062040000831614610d7e5760806d2216e584f5fa1ea926041bedfe9882610d799190611220565b901c90505b600062080000831614610daa5760806b048a170391f7dc42444e8fa282610da59190611220565b901c90505b60008460020b1315610de557807fffffffffffffffffffffffffffffffffffffffffffffffffffffffffffffffff610de29190611291565b90505b600064010000000082610df89190611d3d565b14610e04576001610e07565b60005b60ff16602082901c610e199190611d6e565b92505050919050565b6000806000801985870985870292508281108382030391505060008103610e5c5760008411610e5057600080fd5b83820492505050610fbb565b808411610e6857600080fd5b600084868809905082811182039150808303925060008560018719610e8d9190611d6e565b1690508086049550808404935060018182600003040190508083610eb19190611220565b8417935060006002876003610ec69190611220565b1890508087610ed59190611220565b6002610ee19190611da2565b81610eec9190611220565b90508087610efa9190611220565b6002610f069190611da2565b81610f119190611220565b90508087610f1f9190611220565b6002610f2b9190611da2565b81610f369190611220565b90508087610f449190611220565b6002610f509190611da2565b81610f5b9190611220565b90508087610f699190611220565b6002610f759190611da2565b81610f809190611220565b90508087610f8e9190611220565b6002610f9a9190611da2565b81610fa59190611220565b90508085610fb39190611220565b955050505050505b9392505050565b600081519050919050565b600082825260208201905092915050565b60005b83811015610ffc578082015181840152602081019050610fe1565b60008484015250505050565b6000601f19601f8301169050919050565b600061102482610fc2565b61102e8185610fcd565b935061103e818560208601610fde565b61104781611008565b840191505092915050565b6000602082019050818103600083015261106c8184611019565b905092915050565b600073ffffffffffffffffffffffffffffffffffffffff82169050919050565b600061109f82611074565b9050919050565b6110af81611094565b82525050565b60006020820190506110ca60008301846110a6565b92915050565b60006fffffffffffffffffffffffffffffffff82169050919050565b6110f5816110d0565b82525050565b600060208201905061111060008301846110ec565b92915050565b6000604051905090565b600080fd5b600080fd5b6000819050919050565b61113d8161112a565b811461114857600080fd5b50565b60008135905061115a81611134565b92915050565b60006020828403121561117657611175611120565b5b60006111848482850161114b565b91505092915050565b6111968161112a565b82525050565b60006020820190506111b1600083018461118d565b92915050565b600063ffffffff82169050919050565b6111d0816111b7565b82525050565b60006020820190506111eb60008301846111c7565b92915050565b7f4e487b7100000000000000000000000000000000000000000000000000000000600052601160045260246000fd5b600061122b8261112a565b91506112368361112a565b92508282026112448161112a565b9150828204841483151761125b5761125a6111f1565b5b5092915050565b7f4e487b7100000000000000000000000000000000000000000000000000000000600052601260045260246000fd5b600061129c8261112a565b91506112a78361112a565b9250826112b7576112b6611262565b5b828204905092915050565b6112cb81611074565b81146112d657600080fd5b50565b6000815190506112e8816112c2565b92915050565b60008160020b9050919050565b611304816112ee565b811461130f57600080fd5b50565b600081519050611321816112fb565b92915050565b600061ffff82169050919050565b61133e81611327565b811461134957600080fd5b50565b60008151905061135b81611335565b92915050565b600060ff82169050919050565b61137781611361565b811461138257600080fd5b50565b6000815190506113948161136e565b92915050565b60008115159050919050565b6113af8161139a565b81146113ba57600080fd5b50565b6000815190506113cc816113a6565b92915050565b600080600080600080600060e0888a0312156113f1576113f0611120565b5b60006113ff8a828b016112d9565b97505060206114108a828b01611312565b96505060406114218a828b0161134c565b95505060606114328a828b0161134c565b94505060806114438a828b0161134c565b93505060a06114548a828b01611385565b92505060c06114658a828b016113bd565b91505092959891949750929550565b7f4e49000000000000000000000000000000000000000000000000000000000000600082015250565b60006114aa600283610fcd565b91506114b582611474565b602082019050919050565b600060208201905081810360008301526114d98161149d565b9050919050565b60006114eb82611327565b91506114f683611327565b9250828201905061ffff8111156115105761150f6111f1565b5b92915050565b600061152182611327565b915061152c83611327565b92508261153c5761153b611262565b5b828206905092915050565b6000819050919050565b600061156c61156761156284611327565b611547565b61112a565b9050919050565b61157c81611551565b82525050565b60006020820190506115976000830184611573565b92915050565b6115a6816111b7565b81146115b157600080fd5b50565b6000815190506115c38161159d565b92915050565b60008160060b9050919050565b6115df816115c9565b81146115ea57600080fd5b50565b6000815190506115fc816115d6565b92915050565b6000806000806080858703121561161c5761161b611120565b5b600061162a878288016115b4565b945050602061163b878288016115ed565b935050604061164c878288016112d9565b925050606061165d878288016113bd565b91505092959194509250565b6000819050919050565b600061168e61168961168484611669565b611547565b61112a565b9050919050565b61169e81611673565b82525050565b60006020820190506116b96000830184611695565b92915050565b60006116ca826111b7565b91506116d5836111b7565b9250828203905063ffffffff8111156116f1576116f06111f1565b5b92915050565b7f4250000000000000000000000000000000000000000000000000000000000000600082015250565b600061172d600283610fcd565b9150611738826116f7565b602082019050919050565b6000602082019050818103600083015261175c81611720565b9050919050565b7f4e487b7100000000000000000000000000000000000000000000000000000000600052604160045260246000fd5b7f4e487b7100000000000000000000000000000000000000000000000000000000600052603260045260246000fd5b600081519050919050565b600082825260208201905092915050565b6000819050602082019050919050565b6117f6816111b7565b82525050565b600061180883836117ed565b60208301905092915050565b6000602082019050919050565b600061182c826117c1565b61183681856117cc565b9350611841836117dd565b8060005b8381101561187257815161185988826117fc565b975061186483611814565b925050600181019050611845565b5085935050505092915050565b600060208201905081810360008301526118998184611821565b905092915050565b600080fd5b6118af82611008565b810181811067ffffffffffffffff821117156118ce576118cd611763565b5b80604052505050565b60006118e1611116565b90506118ed82826118a6565b919050565b600067ffffffffffffffff82111561190d5761190c611763565b5b602082029050602081019050919050565b600080fd5b6000611936611931846118f2565b6118d7565b905080838252602082019050602084028301858111156119595761195861191e565b5b835b81811015611982578061196e88826115ed565b84526020840193505060208101905061195b565b5050509392505050565b600082601f8301126119a1576119a06118a1565b5b81516119b1848260208601611923565b91505092915050565b600067ffffffffffffffff8211156119d5576119d4611763565b5b602082029050602081019050919050565b60006119f96119f4846119ba565b6118d7565b90508083825260208201905060208402830185811115611a1c57611a1b61191e565b5b835b81811015611a455780611a3188826112d9565b845260208401935050602081019050611a1e565b5050509392505050565b600082601f830112611a6457611a636118a1565b5b8151611a748482602086016119e6565b91505092915050565b60008060408385031215611a9457611a93611120565b5b600083015167ffffffffffffffff811115611ab257611ab1611125565b5b611abe8582860161198c565b925050602083015167ffffffffffffffff811115611adf57611ade611125565b5b611aeb85828601611a4f565b9150509250929050565b6000611b00826115c9565b9150611b0b836115c9565b92508282039050667fffffffffffff81137fffffffffffffffffffffffffffffffffffffffffffffffffff8000000000000082121715611b4e57611b4d6111f1565b5b92915050565b6000611b5f826115c9565b9150611b6a836115c9565b925082611b7a57611b79611262565b5b600160000383147fffffffffffffffffffffffffffffffffffffffffffffffffff8000000000000083141615611bb357611bb26111f1565b5b828205905092915050565b6000611bc9826115c9565b9150611bd4836115c9565b925082611be457611be3611262565b5b828207905092915050565b6000611bfa826112ee565b91507fffffffffffffffffffffffffffffffffffffffffffffffffffffffffff8000008203611c2c57611c2b6111f1565b5b600182039050919050565b6000819050919050565b6000611c4c82611c37565b91507f80000000000000000000000000000000000000000000000000000000000000008203611c7e57611c7d6111f1565b5b816000039050919050565b6000611c94826112ee565b91507fffffffffffffffffffffffffffffffffffffffffffffffffffffffffff8000008203611cc657611cc56111f1565b5b816000039050919050565b7f5400000000000000000000000000000000000000000000000000000000000000600082015250565b6000611d07600183610fcd565b9150611d1282611cd1565b602082019050919050565b60006020820190508181036000830152611d3681611cfa565b9050919050565b6000611d488261112a565b9150611d538361112a565b925082611d6357611d62611262565b5b828206905092915050565b6000611d798261112a565b9150611d848361112a565b9250828201905080821115611d9c57611d9b6111f1565b5b92915050565b6000611dad8261112a565b9150611db88361112a565b9250828203905081811115611dd057611dcf6111f1565b5b9291505056fea264697066735822122076beb92b15fd75f0134f25ca9eb1b8b6228c381839bcd2acd93ebf77346d9fad64736f6c63430008180033","opcodes":"PUSH1 0xE0 PUSH1 0x40 MSTORE CALLVALUE DUP1 ISZERO PUSH3 0x11 JUMPI PUSH1 0x0 DUP1 REVERT JUMPDEST POP PUSH1 0x40 MLOAD PUSH3 0x1FFA CODESIZE SUB DUP1 PUSH3 0x1FFA DUP4 CODECOPY DUP2 DUP2 ADD PUSH1 0x40 MSTORE DUP2 ADD SWAP1 PUSH3 0x37 SWAP2 SWAP1 PUSH3 0x146 JUMP JUMPDEST DUP3 PUSH20 0xFFFFFFFFFFFFFFFFFFFFFFFFFFFFFFFFFFFFFFFF AND PUSH1 0x80 DUP2 PUSH20 0xFFFFFFFFFFFFFFFFFFFFFFFFFFFFFFFFFFFFFFFF AND DUP2 MSTORE POP POP DUP2 PUSH20 0xFFFFFFFFFFFFFFFFFFFFFFFFFFFFFFFFFFFFFFFF AND PUSH1 0xA0 DUP2 PUSH20 0xFFFFFFFFFFFFFFFFFFFFFFFFFFFFFFFFFFFFFFFF AND DUP2 MSTORE POP POP DUP1 PUSH20 0xFFFFFFFFFFFFFFFFFFFFFFFFFFFFFFFFFFFFFFFF AND PUSH1 0xC0 DUP2 PUSH20 0xFFFFFFFFFFFFFFFFFFFFFFFFFFFFFFFFFFFFFFFF AND DUP2 MSTORE POP POP POP POP POP PUSH3 0x1A2 JUMP JUMPDEST PUSH1 0x0 DUP1 REVERT JUMPDEST PUSH1 0x0 PUSH20 0xFFFFFFFFFFFFFFFFFFFFFFFFFFFFFFFFFFFFFFFF DUP3 AND SWAP1 POP SWAP2 SWAP1 POP JUMP JUMPDEST PUSH1 0x0 PUSH3 0x10E DUP3 PUSH3 0xE1 JUMP JUMPDEST SWAP1 POP SWAP2 SWAP1 POP JUMP JUMPDEST PUSH3 0x120 DUP2 PUSH3 0x101 JUMP JUMPDEST DUP2 EQ PUSH3 0x12C JUMPI PUSH1 0x0 DUP1 REVERT JUMPDEST POP JUMP JUMPDEST PUSH1 0x0 DUP2 MLOAD SWAP1 POP PUSH3 0x140 DUP2 PUSH3 0x115 JUMP JUMPDEST SWAP3 SWAP2 POP POP JUMP JUMPDEST PUSH1 0x0 DUP1 PUSH1 0x0 PUSH1 0x60 DUP5 DUP7 SUB SLT ISZERO PUSH3 0x162 JUMPI PUSH3 0x161 PUSH3 0xDC JUMP JUMPDEST JUMPDEST PUSH1 0x0 PUSH3 0x172 DUP7 DUP3 DUP8 ADD PUSH3 0x12F JUMP JUMPDEST SWAP4 POP POP PUSH1 0x20 PUSH3 0x185 DUP7 DUP3 DUP8 ADD PUSH3 0x12F JUMP JUMPDEST SWAP3 POP POP PUSH1 0x40 PUSH3 0x198 DUP7 DUP3 DUP8 ADD PUSH3 0x12F JUMP JUMPDEST SWAP2 POP POP SWAP3 POP SWAP3 POP SWAP3 JUMP JUMPDEST PUSH1 0x80 MLOAD PUSH1 0xA0 MLOAD PUSH1 0xC0 MLOAD PUSH2 0x1E0C PUSH3 0x1EE PUSH1 0x0 CODECOPY PUSH1 0x0 DUP2 DUP2 PUSH2 0x284 ADD MSTORE PUSH2 0x2E3 ADD MSTORE PUSH1 0x0 DUP2 DUP2 PUSH2 0x263 ADD MSTORE PUSH2 0x30D ADD MSTORE PUSH1 0x0 DUP2 DUP2 PUSH2 0x1A5 ADD MSTORE DUP2 DUP2 PUSH2 0x1DB ADD MSTORE PUSH2 0x22B ADD MSTORE PUSH2 0x1E0C PUSH1 0x0 RETURN INVALID PUSH1 0x80 PUSH1 0x40 MSTORE CALLVALUE DUP1 ISZERO PUSH2 0x10 JUMPI PUSH1 0x0 DUP1 REVERT JUMPDEST POP PUSH1 0x4 CALLDATASIZE LT PUSH2 0x7D JUMPI PUSH1 0x0 CALLDATALOAD PUSH1 0xE0 SHR DUP1 PUSH4 0x7861D269 GT PUSH2 0x5B JUMPI DUP1 PUSH4 0x7861D269 EQ PUSH2 0xDC JUMPI DUP1 PUSH4 0xAD5C4648 EQ PUSH2 0x10C JUMPI DUP1 PUSH4 0xB4D1D795 EQ PUSH2 0x12A JUMPI DUP1 PUSH4 0xC55DAE63 EQ PUSH2 0x148 JUMPI PUSH2 0x7D JUMP JUMPDEST DUP1 PUSH4 0x6FDDE03 EQ PUSH2 0x82 JUMPI DUP1 PUSH4 0x16F0115B EQ PUSH2 0xA0 JUMPI DUP1 PUSH4 0x25DE1092 EQ PUSH2 0xBE JUMPI JUMPDEST PUSH1 0x0 DUP1 REVERT JUMPDEST PUSH2 0x8A PUSH2 0x166 JUMP JUMPDEST PUSH1 0x40 MLOAD PUSH2 0x97 SWAP2 SWAP1 PUSH2 0x1052 JUMP JUMPDEST PUSH1 0x40 MLOAD DUP1 SWAP2 SUB SWAP1 RETURN JUMPDEST PUSH2 0xA8 PUSH2 0x1A3 JUMP JUMPDEST PUSH1 0x40 MLOAD PUSH2 0xB5 SWAP2 SWAP1 PUSH2 0x10B5 JUMP JUMPDEST PUSH1 0x40 MLOAD DUP1 SWAP2 SUB SWAP1 RETURN JUMPDEST PUSH2 0xC6 PUSH2 0x1C7 JUMP JUMPDEST PUSH1 0x40 MLOAD PUSH2 0xD3 SWAP2 SWAP1 PUSH2 0x10FB JUMP JUMPDEST PUSH1 0x40 MLOAD DUP1 SWAP2 SUB SWAP1 RETURN JUMPDEST PUSH2 0xF6 PUSH1 0x4 DUP1 CALLDATASIZE SUB DUP2 ADD SWAP1 PUSH2 0xF1 SWAP2 SWAP1 PUSH2 0x1160 JUMP JUMPDEST PUSH2 0x1D3 JUMP JUMPDEST PUSH1 0x40 MLOAD PUSH2 0x103 SWAP2 SWAP1 PUSH2 0x119C JUMP JUMPDEST PUSH1 0x40 MLOAD DUP1 SWAP2 SUB SWAP1 RETURN JUMPDEST PUSH2 0x114 PUSH2 0x2E1 JUMP JUMPDEST PUSH1 0x40 MLOAD PUSH2 0x121 SWAP2 SWAP1 PUSH2 0x10B5 JUMP JUMPDEST PUSH1 0x40 MLOAD DUP1 SWAP2 SUB SWAP1 RETURN JUMPDEST PUSH2 0x132 PUSH2 0x305 JUMP JUMPDEST PUSH1 0x40 MLOAD PUSH2 0x13F SWAP2 SWAP1 PUSH2 0x11D6 JUMP JUMPDEST PUSH1 0x40 MLOAD DUP1 SWAP2 SUB SWAP1 RETURN JUMPDEST PUSH2 0x150 PUSH2 0x30B JUMP JUMPDEST PUSH1 0x40 MLOAD PUSH2 0x15D SWAP2 SWAP1 PUSH2 0x10B5 JUMP JUMPDEST PUSH1 0x40 MLOAD DUP1 SWAP2 SUB SWAP1 RETURN JUMPDEST PUSH1 0x60 PUSH1 0x40 MLOAD DUP1 PUSH1 0x40 ADD PUSH1 0x40 MSTORE DUP1 PUSH1 0x13 DUP2 MSTORE PUSH1 0x20 ADD PUSH32 0x56554C542F5745544820556E6976335457415000000000000000000000000000 DUP2 MSTORE POP SWAP1 POP SWAP1 JUMP JUMPDEST PUSH32 0x0 DUP2 JUMP JUMPDEST PUSH8 0xDE0B6B3A7640000 DUP2 JUMP JUMPDEST PUSH1 0x0 DUP1 PUSH2 0x1FF PUSH32 0x0 PUSH2 0x32F JUMP JUMPDEST SWAP1 POP PUSH1 0x0 DUP2 PUSH4 0xFFFFFFFF AND PUSH2 0x708 PUSH4 0xFFFFFFFF AND LT PUSH2 0x21E JUMPI DUP2 PUSH2 0x222 JUMP JUMPDEST PUSH2 0x708 JUMPDEST SWAP1 POP PUSH1 0x0 PUSH2 0x250 PUSH32 0x0 DUP4 PUSH2 0x52F JUMP JUMPDEST SWAP1 POP PUSH1 0x0 PUSH2 0x2A8 DUP3 PUSH8 0xDE0B6B3A7640000 PUSH32 0x0 PUSH32 0x0 PUSH2 0x749 JUMP JUMPDEST SWAP1 POP PUSH9 0x56BC75E2D63100000 PUSH1 0x5F DUP8 DUP4 PUSH2 0x2C2 SWAP2 SWAP1 PUSH2 0x1220 JUMP JUMPDEST PUSH2 0x2CC SWAP2 SWAP1 PUSH2 0x1220 JUMP JUMPDEST PUSH2 0x2D6 SWAP2 SWAP1 PUSH2 0x1291 JUMP JUMPDEST SWAP5 POP POP POP POP POP SWAP2 SWAP1 POP JUMP JUMPDEST PUSH32 0x0 DUP2 JUMP JUMPDEST PUSH2 0x708 DUP2 JUMP JUMPDEST PUSH32 0x0 DUP2 JUMP JUMPDEST PUSH1 0x0 DUP1 PUSH1 0x0 DUP4 PUSH20 0xFFFFFFFFFFFFFFFFFFFFFFFFFFFFFFFFFFFFFFFF AND PUSH4 0x3850C7BD PUSH1 0x40 MLOAD DUP2 PUSH4 0xFFFFFFFF AND PUSH1 0xE0 SHL DUP2 MSTORE PUSH1 0x4 ADD PUSH1 0xE0 PUSH1 0x40 MLOAD DUP1 DUP4 SUB DUP2 DUP7 GAS STATICCALL ISZERO DUP1 ISZERO PUSH2 0x37F JUMPI RETURNDATASIZE PUSH1 0x0 DUP1 RETURNDATACOPY RETURNDATASIZE PUSH1 0x0 REVERT JUMPDEST POP POP POP POP PUSH1 0x40 MLOAD RETURNDATASIZE PUSH1 0x1F NOT PUSH1 0x1F DUP3 ADD AND DUP3 ADD DUP1 PUSH1 0x40 MSTORE POP DUP2 ADD SWAP1 PUSH2 0x3A3 SWAP2 SWAP1 PUSH2 0x13D2 JUMP JUMPDEST POP POP POP SWAP4 POP SWAP4 POP POP POP PUSH1 0x0 DUP2 PUSH2 0xFFFF AND GT PUSH2 0x3F3 JUMPI PUSH1 0x40 MLOAD PUSH32 0x8C379A000000000000000000000000000000000000000000000000000000000 DUP2 MSTORE PUSH1 0x4 ADD PUSH2 0x3EA SWAP1 PUSH2 0x14C0 JUMP JUMPDEST PUSH1 0x40 MLOAD DUP1 SWAP2 SUB SWAP1 REVERT JUMPDEST PUSH1 0x0 DUP1 DUP6 PUSH20 0xFFFFFFFFFFFFFFFFFFFFFFFFFFFFFFFFFFFFFFFF AND PUSH4 0x252C09D7 DUP5 PUSH1 0x1 DUP8 PUSH2 0x420 SWAP2 SWAP1 PUSH2 0x14E0 JUMP JUMPDEST PUSH2 0x42A SWAP2 SWAP1 PUSH2 0x1516 JUMP JUMPDEST PUSH1 0x40 MLOAD DUP3 PUSH4 0xFFFFFFFF AND PUSH1 0xE0 SHL DUP2 MSTORE PUSH1 0x4 ADD PUSH2 0x446 SWAP2 SWAP1 PUSH2 0x1582 JUMP JUMPDEST PUSH1 0x80 PUSH1 0x40 MLOAD DUP1 DUP4 SUB DUP2 DUP7 GAS STATICCALL ISZERO DUP1 ISZERO PUSH2 0x463 JUMPI RETURNDATASIZE PUSH1 0x0 DUP1 RETURNDATACOPY RETURNDATASIZE PUSH1 0x0 REVERT JUMPDEST POP POP POP POP PUSH1 0x40 MLOAD RETURNDATASIZE PUSH1 0x1F NOT PUSH1 0x1F DUP3 ADD AND DUP3 ADD DUP1 PUSH1 0x40 MSTORE POP DUP2 ADD SWAP1 PUSH2 0x487 SWAP2 SWAP1 PUSH2 0x1602 JUMP JUMPDEST SWAP4 POP POP POP SWAP2 POP DUP1 PUSH2 0x518 JUMPI DUP6 PUSH20 0xFFFFFFFFFFFFFFFFFFFFFFFFFFFFFFFFFFFFFFFF AND PUSH4 0x252C09D7 PUSH1 0x0 PUSH1 0x40 MLOAD DUP3 PUSH4 0xFFFFFFFF AND PUSH1 0xE0 SHL DUP2 MSTORE PUSH1 0x4 ADD PUSH2 0x4CC SWAP2 SWAP1 PUSH2 0x16A4 JUMP JUMPDEST PUSH1 0x80 PUSH1 0x40 MLOAD DUP1 DUP4 SUB DUP2 DUP7 GAS STATICCALL ISZERO DUP1 ISZERO PUSH2 0x4E9 JUMPI RETURNDATASIZE PUSH1 0x0 DUP1 RETURNDATACOPY RETURNDATASIZE PUSH1 0x0 REVERT JUMPDEST POP POP POP POP PUSH1 0x40 MLOAD RETURNDATASIZE PUSH1 0x1F NOT PUSH1 0x1F DUP3 ADD AND DUP3 ADD DUP1 PUSH1 0x40 MSTORE POP DUP2 ADD SWAP1 PUSH2 0x50D SWAP2 SWAP1 PUSH2 0x1602 JUMP JUMPDEST SWAP1 SWAP2 POP SWAP1 POP POP DUP1 SWAP3 POP POP JUMPDEST DUP2 TIMESTAMP PUSH2 0x524 SWAP2 SWAP1 PUSH2 0x16BF JUMP JUMPDEST SWAP5 POP POP POP POP POP SWAP2 SWAP1 POP JUMP JUMPDEST PUSH1 0x0 DUP1 DUP3 PUSH4 0xFFFFFFFF AND SUB PUSH2 0x579 JUMPI PUSH1 0x40 MLOAD PUSH32 0x8C379A000000000000000000000000000000000000000000000000000000000 DUP2 MSTORE PUSH1 0x4 ADD PUSH2 0x570 SWAP1 PUSH2 0x1743 JUMP JUMPDEST PUSH1 0x40 MLOAD DUP1 SWAP2 SUB SWAP1 REVERT JUMPDEST PUSH1 0x0 PUSH1 0x2 PUSH8 0xFFFFFFFFFFFFFFFF DUP2 GT ISZERO PUSH2 0x596 JUMPI PUSH2 0x595 PUSH2 0x1763 JUMP JUMPDEST JUMPDEST PUSH1 0x40 MLOAD SWAP1 DUP1 DUP3 MSTORE DUP1 PUSH1 0x20 MUL PUSH1 0x20 ADD DUP3 ADD PUSH1 0x40 MSTORE DUP1 ISZERO PUSH2 0x5C4 JUMPI DUP2 PUSH1 0x20 ADD PUSH1 0x20 DUP3 MUL DUP1 CALLDATASIZE DUP4 CALLDATACOPY DUP1 DUP3 ADD SWAP2 POP POP SWAP1 POP JUMPDEST POP SWAP1 POP DUP3 DUP2 PUSH1 0x0 DUP2 MLOAD DUP2 LT PUSH2 0x5DC JUMPI PUSH2 0x5DB PUSH2 0x1792 JUMP JUMPDEST JUMPDEST PUSH1 0x20 MUL PUSH1 0x20 ADD ADD SWAP1 PUSH4 0xFFFFFFFF AND SWAP1 DUP2 PUSH4 0xFFFFFFFF AND DUP2 MSTORE POP POP PUSH1 0x0 DUP2 PUSH1 0x1 DUP2 MLOAD DUP2 LT PUSH2 0x60C JUMPI PUSH2 0x60B PUSH2 0x1792 JUMP JUMPDEST JUMPDEST PUSH1 0x20 MUL PUSH1 0x20 ADD ADD SWAP1 PUSH4 0xFFFFFFFF AND SWAP1 DUP2 PUSH4 0xFFFFFFFF AND DUP2 MSTORE POP POP PUSH1 0x0 DUP5 PUSH20 0xFFFFFFFFFFFFFFFFFFFFFFFFFFFFFFFFFFFFFFFF AND PUSH4 0x883BDBFD DUP4 PUSH1 0x40 MLOAD DUP3 PUSH4 0xFFFFFFFF AND PUSH1 0xE0 SHL DUP2 MSTORE PUSH1 0x4 ADD PUSH2 0x661 SWAP2 SWAP1 PUSH2 0x187F JUMP JUMPDEST PUSH1 0x0 PUSH1 0x40 MLOAD DUP1 DUP4 SUB DUP2 DUP7 GAS STATICCALL ISZERO DUP1 ISZERO PUSH2 0x67E JUMPI RETURNDATASIZE PUSH1 0x0 DUP1 RETURNDATACOPY RETURNDATASIZE PUSH1 0x0 REVERT JUMPDEST POP POP POP POP PUSH1 0x40 MLOAD RETURNDATASIZE PUSH1 0x0 DUP3 RETURNDATACOPY RETURNDATASIZE PUSH1 0x1F NOT PUSH1 0x1F DUP3 ADD AND DUP3 ADD DUP1 PUSH1 0x40 MSTORE POP DUP2 ADD SWAP1 PUSH2 0x6A7 SWAP2 SWAP1 PUSH2 0x1A7D JUMP JUMPDEST POP SWAP1 POP PUSH1 0x0 DUP2 PUSH1 0x0 DUP2 MLOAD DUP2 LT PUSH2 0x6C0 JUMPI PUSH2 0x6BF PUSH2 0x1792 JUMP JUMPDEST JUMPDEST PUSH1 0x20 MUL PUSH1 0x20 ADD ADD MLOAD DUP3 PUSH1 0x1 DUP2 MLOAD DUP2 LT PUSH2 0x6DC JUMPI PUSH2 0x6DB PUSH2 0x1792 JUMP JUMPDEST JUMPDEST PUSH1 0x20 MUL PUSH1 0x20 ADD ADD MLOAD PUSH2 0x6EE SWAP2 SWAP1 PUSH2 0x1AF5 JUMP JUMPDEST SWAP1 POP DUP5 PUSH4 0xFFFFFFFF AND DUP2 PUSH2 0x702 SWAP2 SWAP1 PUSH2 0x1B54 JUMP JUMPDEST SWAP4 POP PUSH1 0x0 DUP2 PUSH1 0x6 SIGNEXTEND SLT DUP1 ISZERO PUSH2 0x72C JUMPI POP PUSH1 0x0 DUP6 PUSH4 0xFFFFFFFF AND DUP3 PUSH2 0x726 SWAP2 SWAP1 PUSH2 0x1BBE JUMP JUMPDEST PUSH1 0x6 SIGNEXTEND EQ ISZERO JUMPDEST ISZERO PUSH2 0x740 JUMPI DUP4 DUP1 PUSH2 0x73C SWAP1 PUSH2 0x1BEF JUMP JUMPDEST SWAP5 POP POP JUMPDEST POP POP POP SWAP3 SWAP2 POP POP JUMP JUMPDEST PUSH1 0x0 DUP1 PUSH2 0x755 DUP7 PUSH2 0x955 JUMP JUMPDEST SWAP1 POP PUSH16 0xFFFFFFFFFFFFFFFFFFFFFFFFFFFFFFFF DUP1 AND DUP2 PUSH20 0xFFFFFFFFFFFFFFFFFFFFFFFFFFFFFFFFFFFFFFFF AND GT PUSH2 0x86F JUMPI PUSH1 0x0 DUP2 PUSH20 0xFFFFFFFFFFFFFFFFFFFFFFFFFFFFFFFFFFFFFFFF AND DUP3 PUSH20 0xFFFFFFFFFFFFFFFFFFFFFFFFFFFFFFFFFFFFFFFF AND PUSH2 0x7C0 SWAP2 SWAP1 PUSH2 0x1220 JUMP JUMPDEST SWAP1 POP DUP4 PUSH20 0xFFFFFFFFFFFFFFFFFFFFFFFFFFFFFFFFFFFFFFFF AND DUP6 PUSH20 0xFFFFFFFFFFFFFFFFFFFFFFFFFFFFFFFFFFFFFFFF AND LT PUSH2 0x830 JUMPI PUSH2 0x82B PUSH25 0x1000000000000000000000000000000000000000000000000 DUP8 PUSH16 0xFFFFFFFFFFFFFFFFFFFFFFFFFFFFFFFF AND DUP4 PUSH2 0xE22 JUMP JUMPDEST PUSH2 0x867 JUMP JUMPDEST PUSH2 0x866 DUP2 DUP8 PUSH16 0xFFFFFFFFFFFFFFFFFFFFFFFFFFFFFFFF AND PUSH25 0x1000000000000000000000000000000000000000000000000 PUSH2 0xE22 JUMP JUMPDEST JUMPDEST SWAP3 POP POP PUSH2 0x94C JUMP JUMPDEST PUSH1 0x0 PUSH2 0x8B1 DUP3 PUSH20 0xFFFFFFFFFFFFFFFFFFFFFFFFFFFFFFFFFFFFFFFF AND DUP4 PUSH20 0xFFFFFFFFFFFFFFFFFFFFFFFFFFFFFFFFFFFFFFFF AND PUSH9 0x10000000000000000 PUSH2 0xE22 JUMP JUMPDEST SWAP1 POP DUP4 PUSH20 0xFFFFFFFFFFFFFFFFFFFFFFFFFFFFFFFFFFFFFFFF AND DUP6 PUSH20 0xFFFFFFFFFFFFFFFFFFFFFFFFFFFFFFFFFFFFFFFF AND LT PUSH2 0x919 JUMPI PUSH2 0x914 PUSH17 0x100000000000000000000000000000000 DUP8 PUSH16 0xFFFFFFFFFFFFFFFFFFFFFFFFFFFFFFFF AND DUP4 PUSH2 0xE22 JUMP JUMPDEST PUSH2 0x948 JUMP JUMPDEST PUSH2 0x947 DUP2 DUP8 PUSH16 0xFFFFFFFFFFFFFFFFFFFFFFFFFFFFFFFF AND PUSH17 0x100000000000000000000000000000000 PUSH2 0xE22 JUMP JUMPDEST JUMPDEST SWAP3 POP POP JUMPDEST POP SWAP5 SWAP4 POP POP POP POP JUMP JUMPDEST PUSH1 0x0 DUP1 PUSH1 0x0 DUP4 PUSH1 0x2 SIGNEXTEND SLT PUSH2 0x96C JUMPI DUP3 PUSH1 0x2 SIGNEXTEND PUSH2 0x97A JUMP JUMPDEST DUP3 PUSH1 0x2 SIGNEXTEND PUSH2 0x979 SWAP1 PUSH2 0x1C41 JUMP JUMPDEST JUMPDEST SWAP1 POP PUSH32 0xFFFFFFFFFFFFFFFFFFFFFFFFFFFFFFFFFFFFFFFFFFFFFFFFFFFFFFFFFFF27618 PUSH2 0x9A6 SWAP1 PUSH2 0x1C89 JUMP JUMPDEST PUSH3 0xFFFFFF AND DUP2 GT ISZERO PUSH2 0x9ED JUMPI PUSH1 0x40 MLOAD PUSH32 0x8C379A000000000000000000000000000000000000000000000000000000000 DUP2 MSTORE PUSH1 0x4 ADD PUSH2 0x9E4 SWAP1 PUSH2 0x1D1D JUMP JUMPDEST PUSH1 0x40 MLOAD DUP1 SWAP2 SUB SWAP1 REVERT JUMPDEST PUSH1 0x0 DUP1 PUSH1 0x1 DUP4 AND SUB PUSH2 0xA10 JUMPI PUSH17 0x100000000000000000000000000000000 PUSH2 0xA22 JUMP JUMPDEST PUSH16 0xFFFCB933BD6FAD37AA2D162D1A594001 JUMPDEST PUSH17 0xFFFFFFFFFFFFFFFFFFFFFFFFFFFFFFFFFF AND SWAP1 POP PUSH1 0x0 PUSH1 0x2 DUP4 AND EQ PUSH2 0xA65 JUMPI PUSH1 0x80 PUSH16 0xFFF97272373D413259A46990580E213A DUP3 PUSH2 0xA60 SWAP2 SWAP1 PUSH2 0x1220 JUMP JUMPDEST SWAP1 SHR SWAP1 POP JUMPDEST PUSH1 0x0 PUSH1 0x4 DUP4 AND EQ PUSH2 0xA93 JUMPI PUSH1 0x80 PUSH16 0xFFF2E50F5F656932EF12357CF3C7FDCC DUP3 PUSH2 0xA8E SWAP2 SWAP1 PUSH2 0x1220 JUMP JUMPDEST SWAP1 SHR SWAP1 POP JUMPDEST PUSH1 0x0 PUSH1 0x8 DUP4 AND EQ PUSH2 0xAC1 JUMPI PUSH1 0x80 PUSH16 0xFFE5CACA7E10E4E61C3624EAA0941CD0 DUP3 PUSH2 0xABC SWAP2 SWAP1 PUSH2 0x1220 JUMP JUMPDEST SWAP1 SHR SWAP1 POP JUMPDEST PUSH1 0x0 PUSH1 0x10 DUP4 AND EQ PUSH2 0xAEF JUMPI PUSH1 0x80 PUSH16 0xFFCB9843D60F6159C9DB58835C926644 DUP3 PUSH2 0xAEA SWAP2 SWAP1 PUSH2 0x1220 JUMP JUMPDEST SWAP1 SHR SWAP1 POP JUMPDEST PUSH1 0x0 PUSH1 0x20 DUP4 AND EQ PUSH2 0xB1D JUMPI PUSH1 0x80 PUSH16 0xFF973B41FA98C081472E6896DFB254C0 DUP3 PUSH2 0xB18 SWAP2 SWAP1 PUSH2 0x1220 JUMP JUMPDEST SWAP1 SHR SWAP1 POP JUMPDEST PUSH1 0x0 PUSH1 0x40 DUP4 AND EQ PUSH2 0xB4B JUMPI PUSH1 0x80 PUSH16 0xFF2EA16466C96A3843EC78B326B52861 DUP3 PUSH2 0xB46 SWAP2 SWAP1 PUSH2 0x1220 JUMP JUMPDEST SWAP1 SHR SWAP1 POP JUMPDEST PUSH1 0x0 PUSH1 0x80 DUP4 AND EQ PUSH2 0xB79 JUMPI PUSH1 0x80 PUSH16 0xFE5DEE046A99A2A811C461F1969C3053 DUP3 PUSH2 0xB74 SWAP2 SWAP1 PUSH2 0x1220 JUMP JUMPDEST SWAP1 SHR SWAP1 POP JUMPDEST PUSH1 0x0 PUSH2 0x100 DUP4 AND EQ PUSH2 0xBA8 JUMPI PUSH1 0x80 PUSH16 0xFCBE86C7900A88AEDCFFC83B479AA3A4 DUP3 PUSH2 0xBA3 SWAP2 SWAP1 PUSH2 0x1220 JUMP JUMPDEST SWAP1 SHR SWAP1 POP JUMPDEST PUSH1 0x0 PUSH2 0x200 DUP4 AND EQ PUSH2 0xBD7 JUMPI PUSH1 0x80 PUSH16 0xF987A7253AC413176F2B074CF7815E54 DUP3 PUSH2 0xBD2 SWAP2 SWAP1 PUSH2 0x1220 JUMP JUMPDEST SWAP1 SHR SWAP1 POP JUMPDEST PUSH1 0x0 PUSH2 0x400 DUP4 AND EQ PUSH2 0xC06 JUMPI PUSH1 0x80 PUSH16 0xF3392B0822B70005940C7A398E4B70F3 DUP3 PUSH2 0xC01 SWAP2 SWAP1 PUSH2 0x1220 JUMP JUMPDEST SWAP1 SHR SWAP1 POP JUMPDEST PUSH1 0x0 PUSH2 0x800 DUP4 AND EQ PUSH2 0xC35 JUMPI PUSH1 0x80 PUSH16 0xE7159475A2C29B7443B29C7FA6E889D9 DUP3 PUSH2 0xC30 SWAP2 SWAP1 PUSH2 0x1220 JUMP JUMPDEST SWAP1 SHR SWAP1 POP JUMPDEST PUSH1 0x0 PUSH2 0x1000 DUP4 AND EQ PUSH2 0xC64 JUMPI PUSH1 0x80 PUSH16 0xD097F3BDFD2022B8845AD8F792AA5825 DUP3 PUSH2 0xC5F SWAP2 SWAP1 PUSH2 0x1220 JUMP JUMPDEST SWAP1 SHR SWAP1 POP JUMPDEST PUSH1 0x0 PUSH2 0x2000 DUP4 AND EQ PUSH2 0xC93 JUMPI PUSH1 0x80 PUSH16 0xA9F746462D870FDF8A65DC1F90E061E5 DUP3 PUSH2 0xC8E SWAP2 SWAP1 PUSH2 0x1220 JUMP JUMPDEST SWAP1 SHR SWAP1 POP JUMPDEST PUSH1 0x0 PUSH2 0x4000 DUP4 AND EQ PUSH2 0xCC2 JUMPI PUSH1 0x80 PUSH16 0x70D869A156D2A1B890BB3DF62BAF32F7 DUP3 PUSH2 0xCBD SWAP2 SWAP1 PUSH2 0x1220 JUMP JUMPDEST SWAP1 SHR SWAP1 POP JUMPDEST PUSH1 0x0 PUSH2 0x8000 DUP4 AND EQ PUSH2 0xCF1 JUMPI PUSH1 0x80 PUSH16 0x31BE135F97D08FD981231505542FCFA6 DUP3 PUSH2 0xCEC SWAP2 SWAP1 PUSH2 0x1220 JUMP JUMPDEST SWAP1 SHR SWAP1 POP JUMPDEST PUSH1 0x0 PUSH3 0x10000 DUP4 AND EQ PUSH2 0xD21 JUMPI PUSH1 0x80 PUSH16 0x9AA508B5B7A84E1C677DE54F3E99BC9 DUP3 PUSH2 0xD1C SWAP2 SWAP1 PUSH2 0x1220 JUMP JUMPDEST SWAP1 SHR SWAP1 POP JUMPDEST PUSH1 0x0 PUSH3 0x20000 DUP4 AND EQ PUSH2 0xD50 JUMPI PUSH1 0x80 PUSH15 0x5D6AF8DEDB81196699C329225EE604 DUP3 PUSH2 0xD4B SWAP2 SWAP1 PUSH2 0x1220 JUMP JUMPDEST SWAP1 SHR SWAP1 POP JUMPDEST PUSH1 0x0 PUSH3 0x40000 DUP4 AND EQ PUSH2 0xD7E JUMPI PUSH1 0x80 PUSH14 0x2216E584F5FA1EA926041BEDFE98 DUP3 PUSH2 0xD79 SWAP2 SWAP1 PUSH2 0x1220 JUMP JUMPDEST SWAP1 SHR SWAP1 POP JUMPDEST PUSH1 0x0 PUSH3 0x80000 DUP4 AND EQ PUSH2 0xDAA JUMPI PUSH1 0x80 PUSH12 0x48A170391F7DC42444E8FA2 DUP3 PUSH2 0xDA5 SWAP2 SWAP1 PUSH2 0x1220 JUMP JUMPDEST SWAP1 SHR SWAP1 POP JUMPDEST PUSH1 0x0 DUP5 PUSH1 0x2 SIGNEXTEND SGT ISZERO PUSH2 0xDE5 JUMPI DUP1 PUSH32 0xFFFFFFFFFFFFFFFFFFFFFFFFFFFFFFFFFFFFFFFFFFFFFFFFFFFFFFFFFFFFFFFF PUSH2 0xDE2 SWAP2 SWAP1 PUSH2 0x1291 JUMP JUMPDEST SWAP1 POP JUMPDEST PUSH1 0x0 PUSH5 0x100000000 DUP3 PUSH2 0xDF8 SWAP2 SWAP1 PUSH2 0x1D3D JUMP JUMPDEST EQ PUSH2 0xE04 JUMPI PUSH1 0x1 PUSH2 0xE07 JUMP JUMPDEST PUSH1 0x0 JUMPDEST PUSH1 0xFF AND PUSH1 0x20 DUP3 SWAP1 SHR PUSH2 0xE19 SWAP2 SWAP1 PUSH2 0x1D6E JUMP JUMPDEST SWAP3 POP POP POP SWAP2 SWAP1 POP JUMP JUMPDEST PUSH1 0x0 DUP1 PUSH1 0x0 DUP1 NOT DUP6 DUP8 MULMOD DUP6 DUP8 MUL SWAP3 POP DUP3 DUP2 LT DUP4 DUP3 SUB SUB SWAP2 POP POP PUSH1 0x0 DUP2 SUB PUSH2 0xE5C JUMPI PUSH1 0x0 DUP5 GT PUSH2 0xE50 JUMPI PUSH1 0x0 DUP1 REVERT JUMPDEST DUP4 DUP3 DIV SWAP3 POP POP POP PUSH2 0xFBB JUMP JUMPDEST DUP1 DUP5 GT PUSH2 0xE68 JUMPI PUSH1 0x0 DUP1 REVERT JUMPDEST PUSH1 0x0 DUP5 DUP7 DUP9 MULMOD SWAP1 POP DUP3 DUP2 GT DUP3 SUB SWAP2 POP DUP1 DUP4 SUB SWAP3 POP PUSH1 0x0 DUP6 PUSH1 0x1 DUP8 NOT PUSH2 0xE8D SWAP2 SWAP1 PUSH2 0x1D6E JUMP JUMPDEST AND SWAP1 POP DUP1 DUP7 DIV SWAP6 POP DUP1 DUP5 DIV SWAP4 POP PUSH1 0x1 DUP2 DUP3 PUSH1 0x0 SUB DIV ADD SWAP1 POP DUP1 DUP4 PUSH2 0xEB1 SWAP2 SWAP1 PUSH2 0x1220 JUMP JUMPDEST DUP5 OR SWAP4 POP PUSH1 0x0 PUSH1 0x2 DUP8 PUSH1 0x3 PUSH2 0xEC6 SWAP2 SWAP1 PUSH2 0x1220 JUMP JUMPDEST XOR SWAP1 POP DUP1 DUP8 PUSH2 0xED5 SWAP2 SWAP1 PUSH2 0x1220 JUMP JUMPDEST PUSH1 0x2 PUSH2 0xEE1 SWAP2 SWAP1 PUSH2 0x1DA2 JUMP JUMPDEST DUP2 PUSH2 0xEEC SWAP2 SWAP1 PUSH2 0x1220 JUMP JUMPDEST SWAP1 POP DUP1 DUP8 PUSH2 0xEFA SWAP2 SWAP1 PUSH2 0x1220 JUMP JUMPDEST PUSH1 0x2 PUSH2 0xF06 SWAP2 SWAP1 PUSH2 0x1DA2 JUMP JUMPDEST DUP2 PUSH2 0xF11 SWAP2 SWAP1 PUSH2 0x1220 JUMP JUMPDEST SWAP1 POP DUP1 DUP8 PUSH2 0xF1F SWAP2 SWAP1 PUSH2 0x1220 JUMP JUMPDEST PUSH1 0x2 PUSH2 0xF2B SWAP2 SWAP1 PUSH2 0x1DA2 JUMP JUMPDEST DUP2 PUSH2 0xF36 SWAP2 SWAP1 PUSH2 0x1220 JUMP JUMPDEST SWAP1 POP DUP1 DUP8 PUSH2 0xF44 SWAP2 SWAP1 PUSH2 0x1220 JUMP JUMPDEST PUSH1 0x2 PUSH2 0xF50 SWAP2 SWAP1 PUSH2 0x1DA2 JUMP JUMPDEST DUP2 PUSH2 0xF5B SWAP2 SWAP1 PUSH2 0x1220 JUMP JUMPDEST SWAP1 POP DUP1 DUP8 PUSH2 0xF69 SWAP2 SWAP1 PUSH2 0x1220 JUMP JUMPDEST PUSH1 0x2 PUSH2 0xF75 SWAP2 SWAP1 PUSH2 0x1DA2 JUMP JUMPDEST DUP2 PUSH2 0xF80 SWAP2 SWAP1 PUSH2 0x1220 JUMP JUMPDEST SWAP1 POP DUP1 DUP8 PUSH2 0xF8E SWAP2 SWAP1 PUSH2 0x1220 JUMP JUMPDEST PUSH1 0x2 PUSH2 0xF9A SWAP2 SWAP1 PUSH2 0x1DA2 JUMP JUMPDEST DUP2 PUSH2 0xFA5 SWAP2 SWAP1 PUSH2 0x1220 JUMP JUMPDEST SWAP1 POP DUP1 DUP6 PUSH2 0xFB3 SWAP2 SWAP1 PUSH2 0x1220 JUMP JUMPDEST SWAP6 POP POP POP POP POP POP JUMPDEST SWAP4 SWAP3 POP POP POP JUMP JUMPDEST PUSH1 0x0 DUP2 MLOAD SWAP1 POP SWAP2 SWAP1 POP JUMP JUMPDEST PUSH1 0x0 DUP3 DUP3 MSTORE PUSH1 0x20 DUP3 ADD SWAP1 POP SWAP3 SWAP2 POP POP JUMP JUMPDEST PUSH1 0x0 JUMPDEST DUP4 DUP2 LT ISZERO PUSH2 0xFFC JUMPI DUP1 DUP3 ADD MLOAD DUP2 DUP5 ADD MSTORE PUSH1 0x20 DUP2 ADD SWAP1 POP PUSH2 0xFE1 JUMP JUMPDEST PUSH1 0x0 DUP5 DUP5 ADD MSTORE POP POP POP POP JUMP JUMPDEST PUSH1 0x0 PUSH1 0x1F NOT PUSH1 0x1F DUP4 ADD AND SWAP1 POP SWAP2 SWAP1 POP JUMP JUMPDEST PUSH1 0x0 PUSH2 0x1024 DUP3 PUSH2 0xFC2 JUMP JUMPDEST PUSH2 0x102E DUP2 DUP6 PUSH2 0xFCD JUMP JUMPDEST SWAP4 POP PUSH2 0x103E DUP2 DUP6 PUSH1 0x20 DUP7 ADD PUSH2 0xFDE JUMP JUMPDEST PUSH2 0x1047 DUP2 PUSH2 0x1008 JUMP JUMPDEST DUP5 ADD SWAP2 POP POP SWAP3 SWAP2 POP POP JUMP JUMPDEST PUSH1 0x0 PUSH1 0x20 DUP3 ADD SWAP1 POP DUP2 DUP2 SUB PUSH1 0x0 DUP4 ADD MSTORE PUSH2 0x106C DUP2 DUP5 PUSH2 0x1019 JUMP JUMPDEST SWAP1 POP SWAP3 SWAP2 POP POP JUMP JUMPDEST PUSH1 0x0 PUSH20 0xFFFFFFFFFFFFFFFFFFFFFFFFFFFFFFFFFFFFFFFF DUP3 AND SWAP1 POP SWAP2 SWAP1 POP JUMP JUMPDEST PUSH1 0x0 PUSH2 0x109F DUP3 PUSH2 0x1074 JUMP JUMPDEST SWAP1 POP SWAP2 SWAP1 POP JUMP JUMPDEST PUSH2 0x10AF DUP2 PUSH2 0x1094 JUMP JUMPDEST DUP3 MSTORE POP POP JUMP JUMPDEST PUSH1 0x0 PUSH1 0x20 DUP3 ADD SWAP1 POP PUSH2 0x10CA PUSH1 0x0 DUP4 ADD DUP5 PUSH2 0x10A6 JUMP JUMPDEST SWAP3 SWAP2 POP POP JUMP JUMPDEST PUSH1 0x0 PUSH16 0xFFFFFFFFFFFFFFFFFFFFFFFFFFFFFFFF DUP3 AND SWAP1 POP SWAP2 SWAP1 POP JUMP JUMPDEST PUSH2 0x10F5 DUP2 PUSH2 0x10D0 JUMP JUMPDEST DUP3 MSTORE POP POP JUMP JUMPDEST PUSH1 0x0 PUSH1 0x20 DUP3 ADD SWAP1 POP PUSH2 0x1110 PUSH1 0x0 DUP4 ADD DUP5 PUSH2 0x10EC JUMP JUMPDEST SWAP3 SWAP2 POP POP JUMP JUMPDEST PUSH1 0x0 PUSH1 0x40 MLOAD SWAP1 POP SWAP1 JUMP JUMPDEST PUSH1 0x0 DUP1 REVERT JUMPDEST PUSH1 0x0 DUP1 REVERT JUMPDEST PUSH1 0x0 DUP2 SWAP1 POP SWAP2 SWAP1 POP JUMP JUMPDEST PUSH2 0x113D DUP2 PUSH2 0x112A JUMP JUMPDEST DUP2 EQ PUSH2 0x1148 JUMPI PUSH1 0x0 DUP1 REVERT JUMPDEST POP JUMP JUMPDEST PUSH1 0x0 DUP2 CALLDATALOAD SWAP1 POP PUSH2 0x115A DUP2 PUSH2 0x1134 JUMP JUMPDEST SWAP3 SWAP2 POP POP JUMP JUMPDEST PUSH1 0x0 PUSH1 0x20 DUP3 DUP5 SUB SLT ISZERO PUSH2 0x1176 JUMPI PUSH2 0x1175 PUSH2 0x1120 JUMP JUMPDEST JUMPDEST PUSH1 0x0 PUSH2 0x1184 DUP5 DUP3 DUP6 ADD PUSH2 0x114B JUMP JUMPDEST SWAP2 POP POP SWAP3 SWAP2 POP POP JUMP JUMPDEST PUSH2 0x1196 DUP2 PUSH2 0x112A JUMP JUMPDEST DUP3 MSTORE POP POP JUMP JUMPDEST PUSH1 0x0 PUSH1 0x20 DUP3 ADD SWAP1 POP PUSH2 0x11B1 PUSH1 0x0 DUP4 ADD DUP5 PUSH2 0x118D JUMP JUMPDEST SWAP3 SWAP2 POP POP JUMP JUMPDEST PUSH1 0x0 PUSH4 0xFFFFFFFF DUP3 AND SWAP1 POP SWAP2 SWAP1 POP JUMP JUMPDEST PUSH2 0x11D0 DUP2 PUSH2 0x11B7 JUMP JUMPDEST DUP3 MSTORE POP POP JUMP JUMPDEST PUSH1 0x0 PUSH1 0x20 DUP3 ADD SWAP1 POP PUSH2 0x11EB PUSH1 0x0 DUP4 ADD DUP5 PUSH2 0x11C7 JUMP JUMPDEST SWAP3 SWAP2 POP POP JUMP JUMPDEST PUSH32 0x4E487B7100000000000000000000000000000000000000000000000000000000 PUSH1 0x0 MSTORE PUSH1 0x11 PUSH1 0x4 MSTORE PUSH1 0x24 PUSH1 0x0 REVERT JUMPDEST PUSH1 0x0 PUSH2 0x122B DUP3 PUSH2 0x112A JUMP JUMPDEST SWAP2 POP PUSH2 0x1236 DUP4 PUSH2 0x112A JUMP JUMPDEST SWAP3 POP DUP3 DUP3 MUL PUSH2 0x1244 DUP2 PUSH2 0x112A JUMP JUMPDEST SWAP2 POP DUP3 DUP3 DIV DUP5 EQ DUP4 ISZERO OR PUSH2 0x125B JUMPI PUSH2 0x125A PUSH2 0x11F1 JUMP JUMPDEST JUMPDEST POP SWAP3 SWAP2 POP POP JUMP JUMPDEST PUSH32 0x4E487B7100000000000000000000000000000000000000000000000000000000 PUSH1 0x0 MSTORE PUSH1 0x12 PUSH1 0x4 MSTORE PUSH1 0x24 PUSH1 0x0 REVERT JUMPDEST PUSH1 0x0 PUSH2 0x129C DUP3 PUSH2 0x112A JUMP JUMPDEST SWAP2 POP PUSH2 0x12A7 DUP4 PUSH2 0x112A JUMP JUMPDEST SWAP3 POP DUP3 PUSH2 0x12B7 JUMPI PUSH2 0x12B6 PUSH2 0x1262 JUMP JUMPDEST JUMPDEST DUP3 DUP3 DIV SWAP1 POP SWAP3 SWAP2 POP POP JUMP JUMPDEST PUSH2 0x12CB DUP2 PUSH2 0x1074 JUMP JUMPDEST DUP2 EQ PUSH2 0x12D6 JUMPI PUSH1 0x0 DUP1 REVERT JUMPDEST POP JUMP JUMPDEST PUSH1 0x0 DUP2 MLOAD SWAP1 POP PUSH2 0x12E8 DUP2 PUSH2 0x12C2 JUMP JUMPDEST SWAP3 SWAP2 POP POP JUMP JUMPDEST PUSH1 0x0 DUP2 PUSH1 0x2 SIGNEXTEND SWAP1 POP SWAP2 SWAP1 POP JUMP JUMPDEST PUSH2 0x1304 DUP2 PUSH2 0x12EE JUMP JUMPDEST DUP2 EQ PUSH2 0x130F JUMPI PUSH1 0x0 DUP1 REVERT JUMPDEST POP JUMP JUMPDEST PUSH1 0x0 DUP2 MLOAD SWAP1 POP PUSH2 0x1321 DUP2 PUSH2 0x12FB JUMP JUMPDEST SWAP3 SWAP2 POP POP JUMP JUMPDEST PUSH1 0x0 PUSH2 0xFFFF DUP3 AND SWAP1 POP SWAP2 SWAP1 POP JUMP JUMPDEST PUSH2 0x133E DUP2 PUSH2 0x1327 JUMP JUMPDEST DUP2 EQ PUSH2 0x1349 JUMPI PUSH1 0x0 DUP1 REVERT JUMPDEST POP JUMP JUMPDEST PUSH1 0x0 DUP2 MLOAD SWAP1 POP PUSH2 0x135B DUP2 PUSH2 0x1335 JUMP JUMPDEST SWAP3 SWAP2 POP POP JUMP JUMPDEST PUSH1 0x0 PUSH1 0xFF DUP3 AND SWAP1 POP SWAP2 SWAP1 POP JUMP JUMPDEST PUSH2 0x1377 DUP2 PUSH2 0x1361 JUMP JUMPDEST DUP2 EQ PUSH2 0x1382 JUMPI PUSH1 0x0 DUP1 REVERT JUMPDEST POP JUMP JUMPDEST PUSH1 0x0 DUP2 MLOAD SWAP1 POP PUSH2 0x1394 DUP2 PUSH2 0x136E JUMP JUMPDEST SWAP3 SWAP2 POP POP JUMP JUMPDEST PUSH1 0x0 DUP2 ISZERO ISZERO SWAP1 POP SWAP2 SWAP1 POP JUMP JUMPDEST PUSH2 0x13AF DUP2 PUSH2 0x139A JUMP JUMPDEST DUP2 EQ PUSH2 0x13BA JUMPI PUSH1 0x0 DUP1 REVERT JUMPDEST POP JUMP JUMPDEST PUSH1 0x0 DUP2 MLOAD SWAP1 POP PUSH2 0x13CC DUP2 PUSH2 0x13A6 JUMP JUMPDEST SWAP3 SWAP2 POP POP JUMP JUMPDEST PUSH1 0x0 DUP1 PUSH1 0x0 DUP1 PUSH1 0x0 DUP1 PUSH1 0x0 PUSH1 0xE0 DUP9 DUP11 SUB SLT ISZERO PUSH2 0x13F1 JUMPI PUSH2 0x13F0 PUSH2 0x1120 JUMP JUMPDEST JUMPDEST PUSH1 0x0 PUSH2 0x13FF DUP11 DUP3 DUP12 ADD PUSH2 0x12D9 JUMP JUMPDEST SWAP8 POP POP PUSH1 0x20 PUSH2 0x1410 DUP11 DUP3 DUP12 ADD PUSH2 0x1312 JUMP JUMPDEST SWAP7 POP POP PUSH1 0x40 PUSH2 0x1421 DUP11 DUP3 DUP12 ADD PUSH2 0x134C JUMP JUMPDEST SWAP6 POP POP PUSH1 0x60 PUSH2 0x1432 DUP11 DUP3 DUP12 ADD PUSH2 0x134C JUMP JUMPDEST SWAP5 POP POP PUSH1 0x80 PUSH2 0x1443 DUP11 DUP3 DUP12 ADD PUSH2 0x134C JUMP JUMPDEST SWAP4 POP POP PUSH1 0xA0 PUSH2 0x1454 DUP11 DUP3 DUP12 ADD PUSH2 0x1385 JUMP JUMPDEST SWAP3 POP POP PUSH1 0xC0 PUSH2 0x1465 DUP11 DUP3 DUP12 ADD PUSH2 0x13BD JUMP JUMPDEST SWAP2 POP POP SWAP3 SWAP6 SWAP9 SWAP2 SWAP5 SWAP8 POP SWAP3 SWAP6 POP JUMP JUMPDEST PUSH32 0x4E49000000000000000000000000000000000000000000000000000000000000 PUSH1 0x0 DUP3 ADD MSTORE POP JUMP JUMPDEST PUSH1 0x0 PUSH2 0x14AA PUSH1 0x2 DUP4 PUSH2 0xFCD JUMP JUMPDEST SWAP2 POP PUSH2 0x14B5 DUP3 PUSH2 0x1474 JUMP JUMPDEST PUSH1 0x20 DUP3 ADD SWAP1 POP SWAP2 SWAP1 POP JUMP JUMPDEST PUSH1 0x0 PUSH1 0x20 DUP3 ADD SWAP1 POP DUP2 DUP2 SUB PUSH1 0x0 DUP4 ADD MSTORE PUSH2 0x14D9 DUP2 PUSH2 0x149D JUMP JUMPDEST SWAP1 POP SWAP2 SWAP1 POP JUMP JUMPDEST PUSH1 0x0 PUSH2 0x14EB DUP3 PUSH2 0x1327 JUMP JUMPDEST SWAP2 POP PUSH2 0x14F6 DUP4 PUSH2 0x1327 JUMP JUMPDEST SWAP3 POP DUP3 DUP3 ADD SWAP1 POP PUSH2 0xFFFF DUP2 GT ISZERO PUSH2 0x1510 JUMPI PUSH2 0x150F PUSH2 0x11F1 JUMP JUMPDEST JUMPDEST SWAP3 SWAP2 POP POP JUMP JUMPDEST PUSH1 0x0 PUSH2 0x1521 DUP3 PUSH2 0x1327 JUMP JUMPDEST SWAP2 POP PUSH2 0x152C DUP4 PUSH2 0x1327 JUMP JUMPDEST SWAP3 POP DUP3 PUSH2 0x153C JUMPI PUSH2 0x153B PUSH2 0x1262 JUMP JUMPDEST JUMPDEST DUP3 DUP3 MOD SWAP1 POP SWAP3 SWAP2 POP POP JUMP JUMPDEST PUSH1 0x0 DUP2 SWAP1 POP SWAP2 SWAP1 POP JUMP JUMPDEST PUSH1 0x0 PUSH2 0x156C PUSH2 0x1567 PUSH2 0x1562 DUP5 PUSH2 0x1327 JUMP JUMPDEST PUSH2 0x1547 JUMP JUMPDEST PUSH2 0x112A JUMP JUMPDEST SWAP1 POP SWAP2 SWAP1 POP JUMP JUMPDEST PUSH2 0x157C DUP2 PUSH2 0x1551 JUMP JUMPDEST DUP3 MSTORE POP POP JUMP JUMPDEST PUSH1 0x0 PUSH1 0x20 DUP3 ADD SWAP1 POP PUSH2 0x1597 PUSH1 0x0 DUP4 ADD DUP5 PUSH2 0x1573 JUMP JUMPDEST SWAP3 SWAP2 POP POP JUMP JUMPDEST PUSH2 0x15A6 DUP2 PUSH2 0x11B7 JUMP JUMPDEST DUP2 EQ PUSH2 0x15B1 JUMPI PUSH1 0x0 DUP1 REVERT JUMPDEST POP JUMP JUMPDEST PUSH1 0x0 DUP2 MLOAD SWAP1 POP PUSH2 0x15C3 DUP2 PUSH2 0x159D JUMP JUMPDEST SWAP3 SWAP2 POP POP JUMP JUMPDEST PUSH1 0x0 DUP2 PUSH1 0x6 SIGNEXTEND SWAP1 POP SWAP2 SWAP1 POP JUMP JUMPDEST PUSH2 0x15DF DUP2 PUSH2 0x15C9 JUMP JUMPDEST DUP2 EQ PUSH2 0x15EA JUMPI PUSH1 0x0 DUP1 REVERT JUMPDEST POP JUMP JUMPDEST PUSH1 0x0 DUP2 MLOAD SWAP1 POP PUSH2 0x15FC DUP2 PUSH2 0x15D6 JUMP JUMPDEST SWAP3 SWAP2 POP POP JUMP JUMPDEST PUSH1 0x0 DUP1 PUSH1 0x0 DUP1 PUSH1 0x80 DUP6 DUP8 SUB SLT ISZERO PUSH2 0x161C JUMPI PUSH2 0x161B PUSH2 0x1120 JUMP JUMPDEST JUMPDEST PUSH1 0x0 PUSH2 0x162A DUP8 DUP3 DUP9 ADD PUSH2 0x15B4 JUMP JUMPDEST SWAP5 POP POP PUSH1 0x20 PUSH2 0x163B DUP8 DUP3 DUP9 ADD PUSH2 0x15ED JUMP JUMPDEST SWAP4 POP POP PUSH1 0x40 PUSH2 0x164C DUP8 DUP3 DUP9 ADD PUSH2 0x12D9 JUMP JUMPDEST SWAP3 POP POP PUSH1 0x60 PUSH2 0x165D DUP8 DUP3 DUP9 ADD PUSH2 0x13BD JUMP JUMPDEST SWAP2 POP POP SWAP3 SWAP6 SWAP2 SWAP5 POP SWAP3 POP JUMP JUMPDEST PUSH1 0x0 DUP2 SWAP1 POP SWAP2 SWAP1 POP JUMP JUMPDEST PUSH1 0x0 PUSH2 0x168E PUSH2 0x1689 PUSH2 0x1684 DUP5 PUSH2 0x1669 JUMP JUMPDEST PUSH2 0x1547 JUMP JUMPDEST PUSH2 0x112A JUMP JUMPDEST SWAP1 POP SWAP2 SWAP1 POP JUMP JUMPDEST PUSH2 0x169E DUP2 PUSH2 0x1673 JUMP JUMPDEST DUP3 MSTORE POP POP JUMP JUMPDEST PUSH1 0x0 PUSH1 0x20 DUP3 ADD SWAP1 POP PUSH2 0x16B9 PUSH1 0x0 DUP4 ADD DUP5 PUSH2 0x1695 JUMP JUMPDEST SWAP3 SWAP2 POP POP JUMP JUMPDEST PUSH1 0x0 PUSH2 0x16CA DUP3 PUSH2 0x11B7 JUMP JUMPDEST SWAP2 POP PUSH2 0x16D5 DUP4 PUSH2 0x11B7 JUMP JUMPDEST SWAP3 POP DUP3 DUP3 SUB SWAP1 POP PUSH4 0xFFFFFFFF DUP2 GT ISZERO PUSH2 0x16F1 JUMPI PUSH2 0x16F0 PUSH2 0x11F1 JUMP JUMPDEST JUMPDEST SWAP3 SWAP2 POP POP JUMP JUMPDEST PUSH32 0x4250000000000000000000000000000000000000000000000000000000000000 PUSH1 0x0 DUP3 ADD MSTORE POP JUMP JUMPDEST PUSH1 0x0 PUSH2 0x172D PUSH1 0x2 DUP4 PUSH2 0xFCD JUMP JUMPDEST SWAP2 POP PUSH2 0x1738 DUP3 PUSH2 0x16F7 JUMP JUMPDEST PUSH1 0x20 DUP3 ADD SWAP1 POP SWAP2 SWAP1 POP JUMP JUMPDEST PUSH1 0x0 PUSH1 0x20 DUP3 ADD SWAP1 POP DUP2 DUP2 SUB PUSH1 0x0 DUP4 ADD MSTORE PUSH2 0x175C DUP2 PUSH2 0x1720 JUMP JUMPDEST SWAP1 POP SWAP2 SWAP1 POP JUMP JUMPDEST PUSH32 0x4E487B7100000000000000000000000000000000000000000000000000000000 PUSH1 0x0 MSTORE PUSH1 0x41 PUSH1 0x4 MSTORE PUSH1 0x24 PUSH1 0x0 REVERT JUMPDEST PUSH32 0x4E487B7100000000000000000000000000000000000000000000000000000000 PUSH1 0x0 MSTORE PUSH1 0x32 PUSH1 0x4 MSTORE PUSH1 0x24 PUSH1 0x0 REVERT JUMPDEST PUSH1 0x0 DUP2 MLOAD SWAP1 POP SWAP2 SWAP1 POP JUMP JUMPDEST PUSH1 0x0 DUP3 DUP3 MSTORE PUSH1 0x20 DUP3 ADD SWAP1 POP SWAP3 SWAP2 POP POP JUMP JUMPDEST PUSH1 0x0 DUP2 SWAP1 POP PUSH1 0x20 DUP3 ADD SWAP1 POP SWAP2 SWAP1 POP JUMP JUMPDEST PUSH2 0x17F6 DUP2 PUSH2 0x11B7 JUMP JUMPDEST DUP3 MSTORE POP POP JUMP JUMPDEST PUSH1 0x0 PUSH2 0x1808 DUP4 DUP4 PUSH2 0x17ED JUMP JUMPDEST PUSH1 0x20 DUP4 ADD SWAP1 POP SWAP3 SWAP2 POP POP JUMP JUMPDEST PUSH1 0x0 PUSH1 0x20 DUP3 ADD SWAP1 POP SWAP2 SWAP1 POP JUMP JUMPDEST PUSH1 0x0 PUSH2 0x182C DUP3 PUSH2 0x17C1 JUMP JUMPDEST PUSH2 0x1836 DUP2 DUP6 PUSH2 0x17CC JUMP JUMPDEST SWAP4 POP PUSH2 0x1841 DUP4 PUSH2 0x17DD JUMP JUMPDEST DUP1 PUSH1 0x0 JUMPDEST DUP4 DUP2 LT ISZERO PUSH2 0x1872 JUMPI DUP2 MLOAD PUSH2 0x1859 DUP9 DUP3 PUSH2 0x17FC JUMP JUMPDEST SWAP8 POP PUSH2 0x1864 DUP4 PUSH2 0x1814 JUMP JUMPDEST SWAP3 POP POP PUSH1 0x1 DUP2 ADD SWAP1 POP PUSH2 0x1845 JUMP JUMPDEST POP DUP6 SWAP4 POP POP POP POP SWAP3 SWAP2 POP POP JUMP JUMPDEST PUSH1 0x0 PUSH1 0x20 DUP3 ADD SWAP1 POP DUP2 DUP2 SUB PUSH1 0x0 DUP4 ADD MSTORE PUSH2 0x1899 DUP2 DUP5 PUSH2 0x1821 JUMP JUMPDEST SWAP1 POP SWAP3 SWAP2 POP POP JUMP JUMPDEST PUSH1 0x0 DUP1 REVERT JUMPDEST PUSH2 0x18AF DUP3 PUSH2 0x1008 JUMP JUMPDEST DUP2 ADD DUP2 DUP2 LT PUSH8 0xFFFFFFFFFFFFFFFF DUP3 GT OR ISZERO PUSH2 0x18CE JUMPI PUSH2 0x18CD PUSH2 0x1763 JUMP JUMPDEST JUMPDEST DUP1 PUSH1 0x40 MSTORE POP POP POP JUMP JUMPDEST PUSH1 0x0 PUSH2 0x18E1 PUSH2 0x1116 JUMP JUMPDEST SWAP1 POP PUSH2 0x18ED DUP3 DUP3 PUSH2 0x18A6 JUMP JUMPDEST SWAP2 SWAP1 POP JUMP JUMPDEST PUSH1 0x0 PUSH8 0xFFFFFFFFFFFFFFFF DUP3 GT ISZERO PUSH2 0x190D JUMPI PUSH2 0x190C PUSH2 0x1763 JUMP JUMPDEST JUMPDEST PUSH1 0x20 DUP3 MUL SWAP1 POP PUSH1 0x20 DUP2 ADD SWAP1 POP SWAP2 SWAP1 POP JUMP JUMPDEST PUSH1 0x0 DUP1 REVERT JUMPDEST PUSH1 0x0 PUSH2 0x1936 PUSH2 0x1931 DUP5 PUSH2 0x18F2 JUMP JUMPDEST PUSH2 0x18D7 JUMP JUMPDEST SWAP1 POP DUP1 DUP4 DUP3 MSTORE PUSH1 0x20 DUP3 ADD SWAP1 POP PUSH1 0x20 DUP5 MUL DUP4 ADD DUP6 DUP2 GT ISZERO PUSH2 0x1959 JUMPI PUSH2 0x1958 PUSH2 0x191E JUMP JUMPDEST JUMPDEST DUP4 JUMPDEST DUP2 DUP2 LT ISZERO PUSH2 0x1982 JUMPI DUP1 PUSH2 0x196E DUP9 DUP3 PUSH2 0x15ED JUMP JUMPDEST DUP5 MSTORE PUSH1 0x20 DUP5 ADD SWAP4 POP POP PUSH1 0x20 DUP2 ADD SWAP1 POP PUSH2 0x195B JUMP JUMPDEST POP POP POP SWAP4 SWAP3 POP POP POP JUMP JUMPDEST PUSH1 0x0 DUP3 PUSH1 0x1F DUP4 ADD SLT PUSH2 0x19A1 JUMPI PUSH2 0x19A0 PUSH2 0x18A1 JUMP JUMPDEST JUMPDEST DUP2 MLOAD PUSH2 0x19B1 DUP5 DUP3 PUSH1 0x20 DUP7 ADD PUSH2 0x1923 JUMP JUMPDEST SWAP2 POP POP SWAP3 SWAP2 POP POP JUMP JUMPDEST PUSH1 0x0 PUSH8 0xFFFFFFFFFFFFFFFF DUP3 GT ISZERO PUSH2 0x19D5 JUMPI PUSH2 0x19D4 PUSH2 0x1763 JUMP JUMPDEST JUMPDEST PUSH1 0x20 DUP3 MUL SWAP1 POP PUSH1 0x20 DUP2 ADD SWAP1 POP SWAP2 SWAP1 POP JUMP JUMPDEST PUSH1 0x0 PUSH2 0x19F9 PUSH2 0x19F4 DUP5 PUSH2 0x19BA JUMP JUMPDEST PUSH2 0x18D7 JUMP JUMPDEST SWAP1 POP DUP1 DUP4 DUP3 MSTORE PUSH1 0x20 DUP3 ADD SWAP1 POP PUSH1 0x20 DUP5 MUL DUP4 ADD DUP6 DUP2 GT ISZERO PUSH2 0x1A1C JUMPI PUSH2 0x1A1B PUSH2 0x191E JUMP JUMPDEST JUMPDEST DUP4 JUMPDEST DUP2 DUP2 LT ISZERO PUSH2 0x1A45 JUMPI DUP1 PUSH2 0x1A31 DUP9 DUP3 PUSH2 0x12D9 JUMP JUMPDEST DUP5 MSTORE PUSH1 0x20 DUP5 ADD SWAP4 POP POP PUSH1 0x20 DUP2 ADD SWAP1 POP PUSH2 0x1A1E JUMP JUMPDEST POP POP POP SWAP4 SWAP3 POP POP POP JUMP JUMPDEST PUSH1 0x0 DUP3 PUSH1 0x1F DUP4 ADD SLT PUSH2 0x1A64 JUMPI PUSH2 0x1A63 PUSH2 0x18A1 JUMP JUMPDEST JUMPDEST DUP2 MLOAD PUSH2 0x1A74 DUP5 DUP3 PUSH1 0x20 DUP7 ADD PUSH2 0x19E6 JUMP JUMPDEST SWAP2 POP POP SWAP3 SWAP2 POP POP JUMP JUMPDEST PUSH1 0x0 DUP1 PUSH1 0x40 DUP4 DUP6 SUB SLT ISZERO PUSH2 0x1A94 JUMPI PUSH2 0x1A93 PUSH2 0x1120 JUMP JUMPDEST JUMPDEST PUSH1 0x0 DUP4 ADD MLOAD PUSH8 0xFFFFFFFFFFFFFFFF DUP2 GT ISZERO PUSH2 0x1AB2 JUMPI PUSH2 0x1AB1 PUSH2 0x1125 JUMP JUMPDEST JUMPDEST PUSH2 0x1ABE DUP6 DUP3 DUP7 ADD PUSH2 0x198C JUMP JUMPDEST SWAP3 POP POP PUSH1 0x20 DUP4 ADD MLOAD PUSH8 0xFFFFFFFFFFFFFFFF DUP2 GT ISZERO PUSH2 0x1ADF JUMPI PUSH2 0x1ADE PUSH2 0x1125 JUMP JUMPDEST JUMPDEST PUSH2 0x1AEB DUP6 DUP3 DUP7 ADD PUSH2 0x1A4F JUMP JUMPDEST SWAP2 POP POP SWAP3 POP SWAP3 SWAP1 POP JUMP JUMPDEST PUSH1 0x0 PUSH2 0x1B00 DUP3 PUSH2 0x15C9 JUMP JUMPDEST SWAP2 POP PUSH2 0x1B0B DUP4 PUSH2 0x15C9 JUMP JUMPDEST SWAP3 POP DUP3 DUP3 SUB SWAP1 POP PUSH7 0x7FFFFFFFFFFFFF DUP2 SGT PUSH32 0xFFFFFFFFFFFFFFFFFFFFFFFFFFFFFFFFFFFFFFFFFFFFFFFFFF80000000000000 DUP3 SLT OR ISZERO PUSH2 0x1B4E JUMPI PUSH2 0x1B4D PUSH2 0x11F1 JUMP JUMPDEST JUMPDEST SWAP3 SWAP2 POP POP JUMP JUMPDEST PUSH1 0x0 PUSH2 0x1B5F DUP3 PUSH2 0x15C9 JUMP JUMPDEST SWAP2 POP PUSH2 0x1B6A DUP4 PUSH2 0x15C9 JUMP JUMPDEST SWAP3 POP DUP3 PUSH2 0x1B7A JUMPI PUSH2 0x1B79 PUSH2 0x1262 JUMP JUMPDEST JUMPDEST PUSH1 0x1 PUSH1 0x0 SUB DUP4 EQ PUSH32 0xFFFFFFFFFFFFFFFFFFFFFFFFFFFFFFFFFFFFFFFFFFFFFFFFFF80000000000000 DUP4 EQ AND ISZERO PUSH2 0x1BB3 JUMPI PUSH2 0x1BB2 PUSH2 0x11F1 JUMP JUMPDEST JUMPDEST DUP3 DUP3 SDIV SWAP1 POP SWAP3 SWAP2 POP POP JUMP JUMPDEST PUSH1 0x0 PUSH2 0x1BC9 DUP3 PUSH2 0x15C9 JUMP JUMPDEST SWAP2 POP PUSH2 0x1BD4 DUP4 PUSH2 0x15C9 JUMP JUMPDEST SWAP3 POP DUP3 PUSH2 0x1BE4 JUMPI PUSH2 0x1BE3 PUSH2 0x1262 JUMP JUMPDEST JUMPDEST DUP3 DUP3 SMOD SWAP1 POP SWAP3 SWAP2 POP POP JUMP JUMPDEST PUSH1 0x0 PUSH2 0x1BFA DUP3 PUSH2 0x12EE JUMP JUMPDEST SWAP2 POP PUSH32 0xFFFFFFFFFFFFFFFFFFFFFFFFFFFFFFFFFFFFFFFFFFFFFFFFFFFFFFFFFF800000 DUP3 SUB PUSH2 0x1C2C JUMPI PUSH2 0x1C2B PUSH2 0x11F1 JUMP JUMPDEST JUMPDEST PUSH1 0x1 DUP3 SUB SWAP1 POP SWAP2 SWAP1 POP JUMP JUMPDEST PUSH1 0x0 DUP2 SWAP1 POP SWAP2 SWAP1 POP JUMP JUMPDEST PUSH1 0x0 PUSH2 0x1C4C DUP3 PUSH2 0x1C37 JUMP JUMPDEST SWAP2 POP PUSH32 0x8000000000000000000000000000000000000000000000000000000000000000 DUP3 SUB PUSH2 0x1C7E JUMPI PUSH2 0x1C7D PUSH2 0x11F1 JUMP JUMPDEST JUMPDEST DUP2 PUSH1 0x0 SUB SWAP1 POP SWAP2 SWAP1 POP JUMP JUMPDEST PUSH1 0x0 PUSH2 0x1C94 DUP3 PUSH2 0x12EE JUMP JUMPDEST SWAP2 POP PUSH32 0xFFFFFFFFFFFFFFFFFFFFFFFFFFFFFFFFFFFFFFFFFFFFFFFFFFFFFFFFFF800000 DUP3 SUB PUSH2 0x1CC6 JUMPI PUSH2 0x1CC5 PUSH2 0x11F1 JUMP JUMPDEST JUMPDEST DUP2 PUSH1 0x0 SUB SWAP1 POP SWAP2 SWAP1 POP JUMP JUMPDEST PUSH32 0x5400000000000000000000000000000000000000000000000000000000000000 PUSH1 0x0 DUP3 ADD MSTORE POP JUMP JUMPDEST PUSH1 0x0 PUSH2 0x1D07 PUSH1 0x1 DUP4 PUSH2 0xFCD JUMP JUMPDEST SWAP2 POP PUSH2 0x1D12 DUP3 PUSH2 0x1CD1 JUMP JUMPDEST PUSH1 0x20 DUP3 ADD SWAP1 POP SWAP2 SWAP1 POP JUMP JUMPDEST PUSH1 0x0 PUSH1 0x20 DUP3 ADD SWAP1 POP DUP2 DUP2 SUB PUSH1 0x0 DUP4 ADD MSTORE PUSH2 0x1D36 DUP2 PUSH2 0x1CFA JUMP JUMPDEST SWAP1 POP SWAP2 SWAP1 POP JUMP JUMPDEST PUSH1 0x0 PUSH2 0x1D48 DUP3 PUSH2 0x112A JUMP JUMPDEST SWAP2 POP PUSH2 0x1D53 DUP4 PUSH2 0x112A JUMP JUMPDEST SWAP3 POP DUP3 PUSH2 0x1D63 JUMPI PUSH2 0x1D62 PUSH2 0x1262 JUMP JUMPDEST JUMPDEST DUP3 DUP3 MOD SWAP1 POP SWAP3 SWAP2 POP POP JUMP JUMPDEST PUSH1 0x0 PUSH2 0x1D79 DUP3 PUSH2 0x112A JUMP JUMPDEST SWAP2 POP PUSH2 0x1D84 DUP4 PUSH2 0x112A JUMP JUMPDEST SWAP3 POP DUP3 DUP3 ADD SWAP1 POP DUP1 DUP3 GT ISZERO PUSH2 0x1D9C JUMPI PUSH2 0x1D9B PUSH2 0x11F1 JUMP JUMPDEST JUMPDEST SWAP3 SWAP2 POP POP JUMP JUMPDEST PUSH1 0x0 PUSH2 0x1DAD DUP3 PUSH2 0x112A JUMP JUMPDEST SWAP2 POP PUSH2 0x1DB8 DUP4 PUSH2 0x112A JUMP JUMPDEST SWAP3 POP DUP3 DUP3 SUB SWAP1 POP DUP2 DUP2 GT ISZERO PUSH2 0x1DD0 JUMPI PUSH2 0x1DCF PUSH2 0x11F1 JUMP JUMPDEST JUMPDEST SWAP3 SWAP2 POP POP JUMP INVALID LOG2 PUSH5 0x6970667358 0x22 SLT KECCAK256 PUSH23 0xBEB92B15FD75F0134F25CA9EB1B8B6228C381839BCD2AC 0xD9 RETURNDATACOPY 0xBF PUSH24 0x346D9FAD64736F6C63430008180033000000000000000000 "},"methodIdentifiers":{"BASE_AMOUNT()":"25de1092","PERIOD()":"b4d1d795","WETH()":"ad5c4648","baseToken()":"c55dae63","name()":"06fdde03","peek(uint256)":"7861d269","pool()":"16f0115b"}}}}}