{
  "_format": "hh-sol-artifact-1",
  "contractName": "MockWhitelistFail",
  "sourceName": "hardhat-vultisig/contracts/mocks/MockWhitelistFail.sol",
  "abi": [
    {
      "inputs": [
        {
          "internalType": "address",
          "name": "from",
          "type": "address"
        },
        {
          "internalType": "address",
          "name": "to",
          "type": "address"
        },
        {
          "internalType": "uint256",
          "name": "amount",
          "type": "uint256"
        }
      ],
      "name": "checkWhitelist",
      "outputs": [],
      "stateMutability": "nonpayable",
      "type": "function"
    }
  ],
  "bytecode": "0x608060405234801561001057600080fd5b50610173806100206000396000f3fe608060405234801561001057600080fd5b506004361061002b5760003560e01c806342d5eb2e14610030575b600080fd5b61004a600480360381019061004591906100ea565b61004c565b005b600080fd5b600080fd5b600073ffffffffffffffffffffffffffffffffffffffff82169050919050565b600061008182610056565b9050919050565b61009181610076565b811461009c57600080fd5b50565b6000813590506100ae81610088565b92915050565b6000819050919050565b6100c7816100b4565b81146100d257600080fd5b50565b6000813590506100e4816100be565b92915050565b60008060006060848603121561010357610102610051565b5b60006101118682870161009f565b93505060206101228682870161009f565b9250506040610133868287016100d5565b915050925092509256fea2646970667358221220d1a31c5d939f0b8c117f47992ce134a17b7bd7f2d166420c0f7b6a560f15dd6e64736f6c63430008180033",
  "linkReferences": {},
  "deployedLinkReferences": {}
}